:020000040800F2
:100000000000052079150108F11F0008F31F000802
:10001000F51F0008F71F0008F91F00080000000086
:1000200000000000000000000000000011B80008FF
:10003000FB1F000800000000B1B80008FD1F000809
:10004000C9150108C9150108C9150108C915010814
:10005000C9150108C9150108C9150108C915010804
:10006000C9150108C9150108C9150108C9150108F4
:10007000C9150108C9150108C9150108C9150108E4
:10008000C9150108C9150108C9150108C9150108D4
:10009000C9150108C9150108C9150108C9150108C4
:1000A000C9150108C9150108C9150108C9150108B4
:1000B000C9150108C9150108C9150108C9150108A4
:1000C000C9150108C9150108C9150108C915010894
:1000D000C9150108C9150108C9150108C915010884
:1000E000C9150108C9150108C9150108C915010874
:1000F000C9150108C9150108C9150108C915010864
:10010000C9150108C9150108C9150108C915010853
:10011000C9150108C915010805200008C9150108FD
:10012000C9150108C9150108C9150108C915010833
:10013000E11F000815200008C9150108C9150108AC
:10014000C9150108C9150108C915010825200008AD
:10015000C9150108C9150108D11F0008C9150108F2
:10016000C9150108C9150108C9150108C9150108F3
:10017000C9150108C9150108C915010800000000CA
:10018000C9150108C9150108C9150108C9150108D3
:10019000C9150108C9150108C9150108C9150108C3
:1001A00035200008C915010845200008C9150108B7
:1001B000C9150108C9150108C9150108C9150108A3
:0801C000C9150108C915010869
:1001D00010B5054C237833B9044B13B10448AFF381
:1001E00000800123237010BDF400002000000000F7
:1001F000AC2501080C4B43B10C480D4910B5AFF3C9
:1002000000800C48036823B910BD0A48036833B95D
:100210007047094B002BF7D0BDE810401847064B3C
:10022000002BF5D0184700BF00000000AC250108E6
:10023000F8000020F4000020000000000000000092
:1002400001F0FF01102A2BDB10F0070F08D010F887
:10025000013B013A8B422DD010F0070F42B3F6D18B
:10026000F0B441EA012141EA014122F007047FF0A4
:1002700000070023F0E80256083C85EA010586EAFB
:10028000010685FA47F5A3FA87F586FA47F6A5FA37
:1002900087F68EB9EED1F0BC01F0FF0102F0070243
:1002A00032B110F8013B013A83EA010313B1F8D1EE
:1002B0000020704701387047002D06BF35460338CF
:1002C000073815F0010F07D1013015F4807F02BF08
:1002D000013015F4C03F0130F0BC0138704700BF59
:1002E00053B94AB9002908BF00281CBF4FF0FF319D
:1002F0004FF0FF3000F07AB9ADF1080C6DE904CE93
:1003000000F006F8DDF804E0DDE9022304B07047F0
:100310002DE9F0478C460D460446089E002B51D12E
:100320008A4217466DD9B2FA82FEBEF1000F0BD099
:10033000CEF1200C01FA0EF520FA0CFC02FA0EF7B1
:100340004CEA050C00FA0EF44FEA174A250CBCFBE8
:10035000FAF81FFA87F90AFB18CC45EA0C4508FBA6
:1003600009F3AB420AD9ED1908F1FF3280F023817D
:10037000AB4240F22081A8F102083D44ED1AA4B23C
:10038000B5FBFAF00AFB105544EA054400FB09F9F5
:10039000A14509D9E41900F1FF3380F00A81A14594
:1003A00040F2078102383C44A4EB090440EA0840CB
:1003B0000021002E61D024FA0EF400233460736013
:1003C000BDE8F0878B4207D9002E54D0002186E883
:1003D00021000846BDE8F087B3FA83F1002940F018
:1003E0008E80AB4202D3824200F2FA80841A65EB1F
:1003F00003050120AC46002E3FD086E81010BDE872
:10040000F08712B90127B7FBF2F7B7FA87FEBEF102
:10041000000F34D1EB1B3A0C1FFA87FC0121B3FB10
:10042000F2F8250C02FB183345EA03450CFB08F3F0
:10043000AB4207D9ED1908F1FF3002D2AB4200F20E
:10044000D1808046ED1AA3B2B5FBF2F002FB105545
:1004500043EA05440CFB00FCA44507D9E41900F16C
:10046000FF3302D2A44500F2B8801846A4EB0C0476
:1004700040EA08409DE731463046BDE8F087CEF1BE
:10048000200405FA0EF307FA0EF720FA04F83A0CE6
:1004900025FA04F448EA0308B4FBF2F14FEA1845E0
:1004A00002FB11441FFA87FC45EA044501FB0CF3EB
:1004B000AB4200FA0EF409D9ED1901F1FF3080F0DA
:1004C0008A80AB4240F2878002393D44EB1A1FFA22
:1004D00088F5B3FBF2F002FB103345EA034500FB5D
:1004E0000CF3AB4207D9ED1900F1FF386FD2AB42E4
:1004F0006DD902383D44EB1A40EA01418FE7C1F162
:10050000200722FA07F88B4005FA01F448EA0303B2
:1005100020FA07FE4FEA134CFD404EEA040EB5FBED
:10052000FCF94FEA1E440CFB19551FFA83F844EA04
:10053000054509FB08F4AC4202FA01F200FA01FA9F
:1005400008D9ED1809F1FF3043D2AC4241D9A9F1E5
:1005500002091D442D1B1FFA8EFEB5FBFCF00CFB9F
:1005600010554EEA054400FB08F8A04507D9E418E9
:1005700000F1FF3529D2A04527D902381C4440EAB2
:100580000940A4EB0804A0FB02894C45C6464D4631
:1005900015D312D056B1BAEB0E0364EB050404FA7E
:1005A00007F7CB401F43CC40376074600021BDE8A3
:1005B000F0871846F8E69046E0E6C245EAD2B8EB86
:1005C000020E69EB03050138E4E72846D7E7404609
:1005D00091E78146BEE7014678E702383C4445E7AB
:1005E000084608E7A8F102083D442BE7704700BF22
:1005F000054B064A1A6000225A609A60DA601A6156
:100600005A619A61704700BF4C8B0020002C01405A
:100610002DE9F04F91B09A4B1A6B42F010021A6319
:100620001A6B02F010020092009A1A6B42F040021C
:100630001A631A6B02F040020192019A1A6B42F09F
:1006400002021A631A6B02F002020292029A1A6BF9
:1006500042F008021A631A6B02F008020392039A2E
:100660001A6B42F004021A631A6B02F0040204923D
:10067000049A1A6B42F001021A631A6B02F001022B
:100680000592059A1A6B42F400721A631A6B02F40F
:1006900000720692069A1A6B42F480721A631A6B01
:1006A00002F480720792079A1A6B42F480621A630E
:1006B0001A6B02F480620892089A1A6B42F02002C8
:1006C0001A631A6B02F020020992099A1A6B42F01F
:1006D00080021A631B6B03F080030A930A9B0122BA
:1006E0002021684808F09FFE00220C21664808F08F
:1006F0009AFE01220821654808F095FE01224FF478
:100700008051614808F08FFE00224FF4005160488C
:1007100008F089FE0022C8215E4808F084FE4FF0F0
:10072000080ACDF82CA000240C940D940BA95A486B
:1007300008F0E6FC43F623430B934FF00208CDF894
:1007400030800D9403270E970A260F960BA9534865
:1007500008F0D6FC4FF480530B930C940D940BA926
:100760004F4808F0CDFC40230B93DFF840B1CDF8A3
:1007700030B00D940BA9434808F0C2FC20230B9322
:1007800001250C950D940E940BA93E4808F0B8FC79
:1007900041F20C030B930C950D940E940BA93A485F
:1007A00008F0AEFC4FF40059CDF82C900C940D9449
:1007B0000BA93C4808F0A4FCCDF82CA00C950D9496
:1007C0000E940BA9314808F09BFC4FF0100ACDF8AD
:1007D0002CA00C940D940BA92A4808F091FC48F227
:1007E00004030B930C940D940BA9294808F088FC82
:1007F000CDF82C900C950D940E940BA9244808F07C
:100800007FFCCDF82C90CDF830B00D940BA91E488C
:1008100008F076FCCDF82CA0CDF830800D940E9722
:100820000F960BA91A4808F06BFCC8230B930C9584
:100830000D940E940BA9174808F062FC05230B9346
:10084000CDF830800D940E970F960BA9154808F03F
:1008500057FC04230B930C940D940BA90D4808F03E
:100860004FFC28230B93CDF830800D940E970F96F4
:100870000BA90D4808F044FC11B0BDE8F08F00BF93
:1008800000380240000C02400020024000280240D4
:10089000001C024000180240001002400004024008
:1008A0000024024000080240000002400000121034
:1008B00008B50FF063FA4FF0404100200EF03CFF06
:1008C000144901200EF038FF0FF08AF900200EF0D5
:1008D00073FF4FF0FF300EF0B3FF4FF0FF300EF01C
:1008E00093FF4FF0FF3101200EF074FF01200EF056
:1008F00063FF4FF0FF300EF0A3FF4FF0FF300EF01C
:1009000083FFFF2100200EF05DFFFF2101200EF08C
:1009100059FF08BD00F807C0044B1B68DA6912F0E4
:10092000800FF9D0C0B298620020704790AD0020CF
:10093000064B1B68DA6912F0280F04D008221A62ED
:10094000586AC0B270470020704700BF90AD0020C9
:1009500010B582B001F05EF801F0C0F94FF47A7082
:100960000CF002F854480EF035FC54480EF032FCFE
:10097000FA200BF0F9FF524B1B78022BF5D1012224
:10098000504951480AF048FB014668B94F480EF0FB
:1009900021FC4AF644423C2102200EF015FE38B1FB
:1009A0004B480EF017FC62E04A480EF013FCFEE7DD
:1009B00005200EF007FD48480EF00CFC57E04FF004
:1009C000FF300EF03DFF45480EF012FF2822A189AE
:1009D00060880FF099F851E041480EF0FBFB414B65
:1009E0001B781BB140480EF0F5FB4BE001223D4B5C
:1009F0001A704FF400513D480EF0A8FC00233C4A09
:100A000013603C4A13703DE001AB4FF4805237490C
:100A10002D480AF031FC40B90022364B1A70344A96
:100A2000136801990B44136034E002200EF0AEFC11
:100A300031480EF0CFFBEFE701AB4FF480522F4966
:100A400021480AF019FC40B900222A4B1A70284AA2
:100A5000136801990B44136020E002200EF096FC0D
:100A600027480EF0B7FBEFE702200BF07DFF254C87
:100A700020460FF087FB2378002BA0D1FFF758FF0B
:100A80007028A9D0174B1B78002BEDD0194B1B7881
:100A9000012BB9D0174B1B78022BCDD0019BB3F59E
:100AA000805FE1D218480EF095FB02200EF06EFC3C
:100AB00000220C4B1A70D7E708260108D02D010838
:100AC0008403002028260108400100203826010860
:100AD0007C2601084C2601086C260108FF00FF4017
:100AE0009026010874030020A4260108D08B002062
:100AF000700300203C010020B8260108D09B002094
:100B0000D026010810010020E826010808B50020C1
:100B10000EF052FE4FF0FF200EF06AFE8223962266
:100B20003621C0200EF0A6FF01200EF045FE08BDC4
:100B300010B50EF0E9FD84B20EF0F2FD81B2204650
:100B40000FF0BEFA08B9002010BD4FF0FF3010BD05
:100B50000222014B1A7070473C0100200122014B18
:100B60001A7070473C01002008B50268034B9A4296
:100B700000D008BD08F032FFFBE700BF00100040C6
:100B8000FEE7000000B585B01648174B03604FF430
:100B90008033436000238360036183610362C36227
:100BA000124A8262C3600122C2610363426103F0A0
:100BB000D1F968B904230093012301930023029320
:100BC0006946084803F0F0F938B905B05DF804FB50
:100BD00040F2F5110648FFF7D3FF40F2FF11044839
:100BE000FFF7CEFFF8AC0020002201400100000F0B
:100BF000FC25010808B50948094B0360002303716F
:100C00004371436183610123036203F017FB00B961
:100C100008BD4FF404710348FFF7B2FF288B002092
:100C200000300240FC25010808B50C480C4B03605D
:100C3000002343608360C360036143618361036297
:100C400043628362C362036303F064FB00B908BDBF
:100C500040F227210348FFF793FF00BF40AD00207B
:100C600000000550FC25010808B50F480F4B036034
:100C7000002343608360C3608362C3620363436392
:100C800003F0DAFB28B90121074803F05FFD28B91A
:100C900008BD40F23A210648FFF772FF40F23F21BB
:100CA0000348FFF76DFF00BFD4AE002000B0024044
:100CB000FC25010800B589B01648174B03600023D6
:100CC000436083600421C1601022026140224261BE
:100CD0004FF4C0728261C3614FF4006202624FF44C
:100CE000805242628362022301930722029203919F
:100CF00004920322059206930793694403F02AFEA7
:100D000010B909B05DF804FB40F222510348FFF727
:100D100037FF00BF94AF0020400100A0FC25010870
:100D200008B51548154B0360154B436000238360DD
:100D30000122C260036143618361C361036203F006
:100D4000C3FF50B900210C4804F0FDF950B900214F
:100D5000094804F026FA50B908BD40F25321094869
:100D6000FFF70EFF40F25A210648FFF709FF40F255
:100D700061210448FFF704FFDC8A00200054004092
:100D8000FFEAC000FC25010808B51548154B0360B3
:100D9000154B4360002383600122C26003614361FD
:100DA0008361C361036203F08FFF50B900210C48D7
:100DB00004F0C9F950B90021094804F0F2F950B91A
:100DC00008BD40F275210948FFF7DAFE4FF41F71A4
:100DD0000648FFF7D5FE40F283210448FFF7D0FE16
:100DE0001C890020005C0040FFEAC000FC250108CF
:100DF00000B58FB029482A4B03600023436083600D
:100E0000C360036128224261092282613522C261E6
:100E10000B22026240F21522426240F21B128262F1
:100E200040F23522C26240F21D12026380F8343073
:100E300080F8353080F8363004F0A8FA20BB002264
:100E400001924FF4F071029103924FF4887304936E
:100E50000592FF20069007924FF4C060089007208B
:100E600009904FF040400A900B910C938DF834207C
:100E70008DF835208DF8362001A9084804F07AFB5A
:100E800038B90FB05DF804FB4FF428710548FFF73F
:100E900077FE4FF42D710348FFF772FE50AC00202F
:100EA00000680140FC25010808B50B480B4B0360A6
:100EB000FF234360012282600023C360026143611B
:100EC0008361C361036204F011FC00B908BD40F204
:100ED000C9210348FFF754FE08B00020001000A00D
:100EE000FC25010800B593B03C483D4B036000234E
:100EF00043607F228260FF22C2600361436183619D
:100F000004F090FC00284BD100238DF830308DF890
:100F100031308DF832301093119301220CA92F48F3
:100F200004F04CFD002840D101228DF82C208DF8D2
:100F30002D208DF82E2000238DF82F300BA9274867
:100F400004F0CEFC002835D100238DF800308DF858
:100F500001308DF8023001930493059306930793B3
:100F6000089301228DF824204FF480730A93694678
:100F70001A4804F0A3FD10BB01228DF824204FF481
:100F800000730A936946154804F098FDE0B90222FF
:100F90000021124804F042FED8B913B05DF804FBFA
:100FA00040F2E9210F48FFF7EBFD40F2F5210D4833
:100FB000FFF7E6FD40F2FF210A48FFF7E1FD40F2AE
:100FC00011310848FFF7DCFD40F21A310548FFF700
:100FD000D7FD40F221310348FFF7D2FD00AE0020DB
:100FE00000280040FC25010808B52648264B036070
:100FF000002303634360C02242638363C36383604F
:10100000036143618361214AC261C36043628362B9
:10101000C36208220264012242648364C3640365DC
:1010200043658365C265036604F062FE00BB184831
:10103000184B03600023036303224260C022426313
:101040008363C3630122826003618361C36043627F
:101050008362C3620821016442648364C3640365DC
:1010600043658365C265036604F042FE28B908BD86
:101070004FF451710848FFF783FD40F25F31064895
:10108000FFF77EFD588A0020045C014000EE02005C
:1010900094880020245C0140FC25010808B50C4818
:1010A0004FF040230360002343608360C36003610B
:1010B00043618361C36103624362836206F0BCF8EB
:1010C00000B908BD40F283310248FFF759FD00BF67
:1010D0000C8A0020FC25010808B51148114B03605B
:1010E0004FF482734360002383604FF44072C26008
:1010F000036143614FF400728261C3610362436222
:1011000083620722C26203630823436306F0CCF8BC
:1011100000B908BD40F29D310348FFF731FD00BF23
:101120006889002000380040FC25010800B59BB00C
:101130003748384B0360002343608360C36003611A
:101140004361836106F0BAFA002842D11AA94FF42C
:10115000805341F8103D2E4806F0B0FB00283DD1E9
:101160002B4806F0C4FA00283DD1002313931493B2
:10117000159313A9264806F07FFC002838D1602378
:101180000C9300220D920E920F92109211921292D5
:101190000CA91F4806F0E8FC00282ED1002301937B
:1011A00002930393049305934FF40052069207931E
:1011B00008934FF0007209920A930B9301A9144807
:1011C00006F086FCF0B9124801F0F4FA1BB05DF8A5
:1011D00004FB4FF46D711048FFF7D2FC40F2BA31B6
:1011E0000D48FFF7CDFC40F2BF310B48FFF7C8FCBC
:1011F00040F2C7310848FFF7C3FC40F2D33106483C
:10120000FFF7BEFC40F2E3310348FFF7B9FC00BF33
:1012100020AE002000000140FC25010800B58FB081
:1012200025484FF080430360002343608360C36020
:101230000361836106F042FA28BB0EA94FF4805384
:1012400041F8103D1C4806F039FB08BB1A4806F06F
:101250004EFA10BB00230793099307A9164806F01E
:101260000BFCF8B9602300930022019202920492D1
:101270006946114806F078FCC8B90F4801F09AFA9F
:101280000FB05DF804FB40F2FA310C48FFF778FC30
:101290004FF480610948FFF773FC40F205410748AD
:1012A000FFF76EFC40F20C410448FFF769FC40F286
:1012B00015410248FFF764FC14AF0020FC2501082B
:1012C00000B58FB02548264B036000234360836040
:1012D000C3600361836106F0F1F928BB0EA94FF4E6
:1012E000805341F8103D1D4806F0E8FA08BB1B4842
:1012F00006F0FDF910BB00230793099307A91748CF
:1013000006F0BAFBF8B96023009300220192029222
:1013100004926946114806F027FCC8B90F4801F04D
:1013200049FA0FB05DF804FB40F22C410D48FFF77D
:1013300027FC40F232410B48FFF722FC40F23741D4
:101340000848FFF71DFC40F23E410648FFF718FC35
:1013500040F247410348FFF713FC00BF10AC0020E8
:1013600000040040FC25010800B58FB02548264B3D
:101370000360002343608360C3600361836106F000
:101380009DF930BB0EA94FF4805341F8103D1D4824
:1013900006F094FA10BB1B4806F0A9F918BB00230D
:1013A0000793099307A9174806F066FB00BB602363
:1013B000009300230193029304930C226946114881
:1013C00006F0D2FBC8B90F4801F0F4F90FB05DF890
:1013D00004FB40F25E410D48FFF7D2FB40F264414E
:1013E0000A48FFF7CDFB40F269410848FFF7C8FB08
:1013F0004FF48E610548FFF7C3FB40F27941034883
:10140000FFF7BEFBD0AB0020000C0040FC2501081C
:1014100000B589B01848194B03600023436083600E
:10142000C36003614361836106F048F9A0B908A96C
:101430004FF4805341F8103D0F4806F03FFA80B951
:10144000002301930293039301A90B4806F014FBB8
:1014500060B909B05DF804FB40F2A9410848FFF704
:101460008FFB40F2AF410648FFF78AFB40F2B741DD
:101470000348FFF785FB00BFCC8900200004014032
:10148000FC25010800B589B01348144B0360002304
:1014900043608360C3600361836106F028F980B90B
:1014A00060230193002202920392059201A90A4847
:1014B00006F05AFB50B9084801F07CF909B05DF814
:1014C00004FB40F2CA410648FFF75AFB40F2D34101
:1014D0000348FFF755FB00BF54AF00200018004041
:1014E000FC25010808B50C480C4B03604FF4E133B0
:1014F000436000238360C36003610C224261836107
:10150000C3610362436206F034FE00B908BD40F2D5
:10151000EA410348FFF734FB90AD00200010014082
:10152000FC25010808B50C480C4B03604FF4E1336F
:10153000436000238360C36003610C2242618361C6
:10154000C3610362436206F014FE00B908BD40F2B5
:10155000FF410348FFF714FB60AE00200014014078
:10156000FC25010800B585B00F48104B036000232F
:1015700043608360C360836106F0A0F850B9002324
:101580000193039301A9084806F076FA38B905B02B
:101590005DF804FB40F28D410548FFF7F1FA40F297
:1015A00094410348FFF7ECFAC8AF00200014004054
:1015B000FC25010800B5B5B0474B1A6C42F08052CB
:1015C0001A641B6C03F080530093009B434B1A6812
:1015D00042F440421A601B6803F440430193019BAC
:1015E000092328934FF48033299301232D93022359
:1015F0002E934FF480022F92192230924FF4C8722A
:10160000319232930823339328A806F0E7FD00288F
:101610004ED108F099F900284FD10F2323930223CC
:101620002493002325934FF4A05326934FF4805323
:101630002793062123A807F00DF8002842D1284B54
:101640000293642303930223069304930593C02318
:10165000079304230993089301230A930B930C9394
:101660004FF400330D934FF400730E930023129345
:10167000139318931B931D934FF0006221922293B2
:1016800002A807F0DDF810BB07F096F8154BA3FB96
:101690000030800902F0ACFD042002F0BFFD002202
:1016A0000F214FF0FF3002F067FD35B05DF804FB0D
:1016B0004FF4CF710C48FFF763FA40F2A5110A48C6
:1016C000FFF75EFA40F2B3110748FFF759FA4FF4FB
:1016D000E8710548FFF754FA0038024000700040F6
:1016E0006848B101D34D6210FC25010800B587B0F0
:1016F00008F068F9FFF75EFFFEF78AFFFFF742FA8E
:10170000FFF778FAFFF790FAFFF7AEFAFFF7D2FA91
:10171000FFF706FBFFF738FBFFF76AFBFFF7C4FB99
:10172000FFF7E0FBFFF760FCFEF762FFFFF7B6FC98
:10173000FFF7D2FCFFF7FAFCFFF770FDFFF7C0FDE3
:10174000FFF712FEFFF764FEFFF79CFEFFF7CAFEED
:10175000FFF7E8FEFFF706FF0E480DF0CDFC0E4840
:101760000DF038FD0D4810F0AFF8FFF7A1F8FFF7C6
:10177000CDF9FFF7DDF901AC094D0FCD0FC42B6892
:101780002360002101A80BF07DFB064B18600BF0D5
:1017900061FBFEE790AD0020F82601082427010830
:1017A000C42501081889002008B513460A460146D9
:1017B000024805F0A3F900B1012008BD4C8B0020C0
:1017C00008B513460A460146024805F01FFA00B163
:1017D000012008BD4C8B002008B5034805F0E8FC4B
:1017E000043818BF012008BD4C8B002008B5014605
:1017F000014805F07BFC08BD4C8B002008B500F0CB
:10180000FDF808BD00B583B001238DF8073000F066
:1018100039F910B900238DF807309DF8070003B09F
:101820005DF804FB10B5FFF7EDFF012802D002249C
:10183000204610BD074805F040FC04460028F7D1BB
:101840004FF40061034805F063FC0028F0D0012448
:10185000EEE700BF4C8B002008B50122064B1A7042
:10186000FFF7BAFF20B9044A137803F0FE031370A0
:10187000014B187808BD00BF0000002010B582B0F1
:1018800004460122114B1A700BF0E9FA18B90F4BFC
:10189000187802B010BDFFF7C5FF80B10B4B1B7865
:1018A000DBB2012BF3D00A4A92E803008DE8030073
:1018B000002168460BF08AFB064B1860E7E72046DC
:1018C000FFF7CAFF014B1870E8E700BF00000020D7
:1018D000D82501087803002008B5FFF7BDFF08BD33
:1018E00010B584B0084611461A46FFF75DFF10B1E7
:1018F000012004B010BD47F23052104B196801A806
:101900000BF0A0FB019B102B01D00120F1E7029B03
:10191000012B01D00120ECE70BF0AAFA47F230547A
:1019200004440BF0A5FA844205D9FFF755FF0028BF
:10193000F7D10020DDE70120DBE700BF78030020BE
:1019400010B584B0084611461A46FFF739FF10B1AA
:10195000012004B010BD47F23052104B196801A8A5
:101960000BF070FB019B102B01D00120F1E7029BD3
:10197000022B01D00120ECE70BF07AFA47F2305449
:1019800004440BF075FA844205D9FFF725FF0028BF
:10199000F7D10020DDE70120DBE700BF780300205E
:1019A000154B1B7813F0010F01D00320704710B5C1
:1019B00088B0144603291CD8DFE801F002050C1397
:1019C000002008B010BD6846FFF710FF069B23609B
:1019D0000020F6E76846FFF709FF079B23800020F9
:1019E000EFE76846FFF702FF079B5B0A23600020D2
:1019F000E7E70420E5E700BF0000002008B54FF04E
:101A0000FF320121024B18680BF0E8FA08BD00BF55
:101A10007803002070B5114C2146114809F03EFDB5
:101A2000104B1870104D2946104809F037FD104B27
:101A3000187021460F480FF0BFFE29460E480FF0E0
:101A4000BBFE0E4E00222946304609F09DFA0022C8
:101A50002146304609F098FA70BD00BF5CB0002006
:101A60004027010854B0002058B000207827010812
:101A700038B900205427010868270108FCB6002067
:101A80000020704708B54FF40051044807F0C4FC2B
:101A900008B9002008BD012008BD00BF00080240B1
:101AA0000020704708B5014603480CF0D3FE08B982
:101AB000012008BD002008BD24EA002010B58EB02A
:101AC0001446032924D8DFE801F002050E1800208F
:101AD0000EB010BD01AA014611480CF0CEFEC8B9E7
:101AE000029B2360F4E701AA01460D480CF0C5FEF5
:101AF00090B9BDF80C302360EAE701AA0146084816
:101B00000CF0BBFE50B9BDF80C305B0A2360DFE778
:101B10000420DDE70120DBE70120D9E70120D7E73A
:101B200024EA002010B590B0044600930B4601460D
:101B300010480CF0C4FE10B9002010B010BD03AA6C
:101B400021460C480CF099FE9DF81930282B05D041
:101B50003A2B03D0042B01D00120EEE706480FF00A
:101B60002BFE06480FF028FE0A200FF03DFE032052
:101B7000E3E700BF24EA00208C270108942701082E
:101B800010B590B0044600930B46014617480CF080
:101B9000DFFE10B9002010B010BD03AA2146134883
:101BA0000CF06BFE9DF81930272B13D00ED9282B83
:101BB00001D03A2B0CD10E480FF0FEFD0D480FF06E
:101BC000FBFD0A200FF010FE0320E4E7042BF2D007
:101BD0000120E0E706480FF0EFFD07480FF0ECFDAD
:101BE0000A200FF001FE0220D5E700BF24EA002002
:101BF0008C27010894270108AC270108704770471B
:101C00007047000008B5024B18680BF0A5F908BD35
:101C10007C03002003460D4A126862B10B4A10682B
:101C20000B4A12681268A2F5005203449A4206D386
:101C3000064A136070470749044A1160EEE70C2218
:101C4000054B1A604FF0FF30704700BF8003002043
:101C500008ED00E068F200203CF1002070B5164667
:101C6000002405E04D1C0878FEF756FE0134294695
:101C7000B442F7DB304670BD4FF0FF3070474FF491
:101C800000534B60002070470120704700207047D0
:101C9000F8B50D461746002405E06E1CAFF3008032
:101CA000287001343546BC42F7DB3846F8BD0000E9
:101CB00004290CD0052902D0022904D07047032240
:101CC000054B1A7070470222034B1A7070470122AD
:101CD000014B1A70F2E700BF8403002010B5074CD7
:101CE0000122074920460BF061FB064920460BF014
:101CF0009DFB20460BF033FC10BD00BF24EA002002
:101D0000B11C00080C0000200368B3F1A04F00D004
:101D1000704710B588B04FF4E05303930223049347
:101D200000240594032306930A23079303A910486C
:101D300007F0E6F90F4B5A6B42F080025A635A6B78
:101D400002F080020192019A5A6C42F480425A6475
:101D50005B6C03F480430293029B224605214320DF
:101D600002F00AFA432002F037FA08B010BD00BFB3
:101D7000000002400038024008B5D0F8BC020BF069
:101D8000FBFB08BD08B5D0F8BC020BF09EFD08BDFA
:101D900008B5D0F8BC020BF0B3FD08BD08B5D0F80B
:101DA000BC020BF0D7FD08BD08B5D0F8BC020BF0A3
:101DB000ECFB08BD08B5D0F8BC020BF0EAFB08BD8F
:101DC00090F8C033012B01D00020704710B50446B5
:101DD0001048C0F8BC42C4F8C4034FF0A0430360ED
:101DE000082383600323C36000230361022282610E
:101DF000C36100F055FF40B9064801F064FC01469C
:101E000020460BF0B6FB002010BDEE210248FEF785
:101E1000B7FEF1E7F8ED0020CC27010808B5D0F8AF
:101E2000C40301F016FC18B1022803D0022008BD3B
:101E3000002008BD012008BD08B5D0F8C40301F09A
:101E40001EFC18B1022803D0022008BD002008BDE6
:101E5000012008BD08B5D0F8C40301F039FC18B161
:101E6000022803D0012008BD002008BD022008BDC3
:101E700008B5D0F8C40301F014FC18B1022803D04F
:101E8000022008BD002008BD012008BD08B5D0F81B
:101E9000C40301F012FC08BD10B584B0D0F8C4032F
:101EA000BDF8204002949DF81C4001949DF8184014
:101EB000009400F093FE20B1022804D0022004B068
:101EC00010BD0020FBE70120F9E708B5D0F8C403F6
:101ED00000F0D4FE18B1022803D0022008BD002073
:101EE00008BD012008BD10B584B0D0F8C4039DF82A
:101EF00024400394BDF820400294079C01949DF86F
:101F00001840009400F00EFF20B1022804D00220F7
:101F100004B010BD0020FBE70120F9E708B5D0F8B8
:101F2000C40301F0C3FB08BD08B590F8C033012B12
:101F300004D0C82007F064FD002008BD084600F06A
:101F400033F8F6E710B4D0F8C43301EB8104E000B5
:101F50000446184490F83B0048B901EB8101C800E1
:101F6000034483F8512000205DF8044B704723445C
:101F700083F85020F7E7D0F8C43301EB8100C200AA
:101F800010461A4492F83B2032B901EB8101CA0095
:101F9000134493F851007047034493F8500070477E
:101FA00008B507F02DFD08BD08B528B10022202195
:101FB000024807F038FA08BD0122F8E7000C024099
:101FC00008B502480DF006F9FEE700BFDC2701085E
:101FD00008B5024B186F07F0C7FB08BD2485002029
:101FE00008B5024BD86E07F0BFFB08BDA8850020DE
:101FF0007047FEE7FEE7FEE7FEE7704708B50BF027
:1020000071F808BD08B5024805F0EAF908BD00BF3F
:10201000B8F0002008B5024800F05CFD08BD00BF24
:102020000CD2002008B5024801F06AFA08BD00BFD2
:10203000F8ED002008B5024803F029FA08BD00BFFA
:1020400050AC002008B5024802F0E1FA08BD00BF1C
:10205000D4AE00202C4B1B6803B17047F0B587B09D
:102060000122294B1A60294B9A6B42F001029A63B4
:102070009B6B03F001030093009B4FF68373019366
:102080000227029700260396032504950C24059445
:1020900001A91F4807F034F848F23313019302975F
:1020A00003960495059401A91A4807F029F84CF203
:1020B00003730193029703960495059401A91648AA
:1020C00007F01EF84FF63F0301930297039604951D
:1020D000059401A9114807F013F8282301930297EA
:1020E00003960495059401A90D4807F009F8082303
:1020F0000193029703960495059401A9094806F0F7
:10210000FFFF07B0F0BD00BF880300200038024089
:102110000010024000180240000C0240001402406F
:10212000001C02400008024000B583B0214B1A6C2D
:1021300042F080521A641A6C02F080520092009AA7
:102140005A6C42F480425A645B6C03F480430193FE
:10215000019B032001F0FEFF002211466FF00B00EF
:1021600002F00AF8002211466FF00A0002F004F8AB
:10217000002211466FF0090001F0FEFF0022114617
:102180006FF0040001F0F8FF002211466FF0030029
:1021900001F0F2FF00220F216FF0010001F0ECFFCF
:1021A00000220F214FF0FF3001F0E6FF03B05DF891
:1021B00004FB00BF003802400268134B9A4200D073
:1021C000704730B587B003F58B335A6C42F48062A8
:1021D0005A645B6C03F480630093009B4FF4F863D4
:1021E0000193032502950024039401A9074806F0F2
:1021F00087FF012301930295039401A9044806F087
:102200007FFF07B030BD00BF002201400014024034
:10221000000002400268094B9A4200D0704782B029
:1022200003F500631A6B42F480521A631B6B03F4CC
:1022300080530193019B02B0F0E700BF00300240E1
:102240000268244B9A4200D0704770B586B0224B8A
:102250005A6B42F001025A635B6B03F00103009377
:10226000009B6023019302260296002403940494A9
:102270000D25059501A9194806F042FF0823019391
:10228000029603940494059501A9154806F038FFB9
:102290004FF400730193029603940494059501A9E9
:1022A000104806F02DFF4FF4BC43019302960394AF
:1022B0000494059501A90C4806F022FF50230193D0
:1022C000029603940494059501A9084806F018FFA6
:1022D00006B070BD000005500038024000100240FA
:1022E000000C024000180240001C024000000240A6
:1022F00002680E4B9A4200D0704700B583B0A3F538
:10230000F0431A6B42F400021A631B6B03F40003E0
:102310000193019B002205215A2001F02DFF5A2034
:1023200001F05AFF03B05DF804FB00BF00B00240AB
:1023300000B589B003681E4A934205D01D4A9342F6
:102340001CD009B05DF804FB4FF4407303931223D3
:10235000049301230593002306930423079303A901
:10236000154806F0CDFE154B1A6C42F400121A64A3
:102370001B6C03F400130193019BE2E74FF4C0735D
:102380000393122304930123059303230693042349
:10239000079303A90A4806F0B3FE084B1A6C42F4EF
:1023A00000021A641B6C03F400030293029BC8E74B
:1023B00000540040005C004000040240003802402D
:1023C000001C024008B503680F4A934203D00F4A2D
:1023D00093420CD008BD02F5F232136C23F40013C3
:1023E00013644FF440710A4806F078FF08BD02F507
:1023F000EE32136C23F4000313644FF4C0710548EC
:1024000006F06CFFE6E700BF00540040005C0040AF
:1024100000040240001C024002682A4B9A4200D08D
:10242000704770B586B003F550435A6C42F0806235
:102430005A645B6C03F080630093009B102301934C
:10244000022502950024039404940E26059601A902
:102450001D4806F055FE4EF6FF7301930295039456
:102460000494059601A9194806F04AFEF723019342
:10247000029503940494059601A9154806F040FEC0
:102480004FF4805301930295039404940923059318
:1024900001A9104806F034FE4FF44643019302951B
:1024A00003940494059601A90B4806F029FE2246E0
:1024B0000521582001F060FE582001F08DFE06B085
:1024C00070BD00BF006801400010024000240240BF
:1024D0000028024000180240002002400268254BFC
:1024E0009A4200D070472DE9F04387B0224B9A6B97
:1024F00042F002029A639B6B03F002030093009B7D
:102500004FF00409CDF804900226029600250395A9
:1025100003240494092705970DEB0901174806F0D9
:10252000EFFD402301930296039504940A2305933B
:10253000DFF850800DEB0901404606F0E1FDCDF8D3
:10254000049002960395049405970DEB090140460B
:1025500006F0D6FD4FF46053019302960395049460
:1025600005970DEB0901064806F0CAFD07B0BDE866
:10257000F08300BF001000A00038024000100240AD
:10258000000C0240000402400268054B9A4200D051
:102590007047044A136F43F400431367F8E700BF22
:1025A00000280040003802400268164B9A4200D0D2
:1025B0007047F0B587B003F586335A6C42F4006279
:1025C0005A645B6C03F400630093009B4FF4F85370
:1025D00001930227029700260396032504950C24F5
:1025E000059401A9084806F08BFD04230193029786
:1025F0000396049505940DEB0301044806F080FD55
:1026000007B0F0BD002C014000080240000C024061
:102610000368B3F1402F00D0704700B587B003F5D1
:10262000FC331A6C42F480321A641B6C03F480335E
:102630000093009B802301930223029300230393C2
:1026400004930823059301A9024806F059FD07B039
:102650005DF804FB000C02400268154B9A4200D062
:10266000704770B586B003F500331A6C42F48042AF
:102670001A641B6C03F480430093009B02250195B0
:1026800002950024039404940526059601A909489F
:1026900006F036FD4FF440430193029503940494F1
:1026A000059601A9044806F02BFD06B070BD00BFD9
:1026B00000380040002002400004024086B0036859
:1026C0002B4A934210D0B3F1804F18D0294A93423D
:1026D00021D0294A934229D0284A934231D0284A0E
:1026E000934239D006B07047264B5A6C42F0010233
:1026F0005A645B6C03F001030093009BF2E703F55F
:102700000E331A6C42F001021A641B6C03F00103D1
:102710000193019BE6E71B4B1A6C42F002021A641C
:102720001B6C03F002030293029BDBE7154B1A6C50
:1027300042F008021A641B6C03F008030393039B26
:10274000D0E7104B1A6C42F020021A641B6C03F0A5
:1027500020030493049BC5E70A4B5A6C42F0020223
:102760005A645B6C03F002030593059BBAE700BF54
:102770000000014000040040000C00400014004034
:1027800000040140003802400268094B9A4200D020
:10279000704782B003F508331A6C42F040021A64A5
:1027A0001B6C03F040030193019B02B0F0E700BFF4
:1027B0000018004000B587B003682C4A93420ED041
:1027C000B3F1804F1AD02A4A934226D0294A934225
:1027D00030D0294A93423AD007B05DF804FB4FF459
:1027E0008073019302230293002303930493012334
:1027F000059301A9214806F083FCEDE74FF400435F
:10280000019302230293002303930493012305936E
:1028100001A91A4806F074FCDEE710230193022395
:102820000293002203920492059301A9144806F032
:1028300067FCD1E701230193022302930022039254
:102840000492059301A90F4806F05AFCC4E74023FF
:102850000193022302930023039304930923059316
:1028600001A9094806F04CFCB6E700BF0000014092
:1028700000040040000C004000180040000002402E
:102880000004024000200240001C024070B588B0E5
:102890000368224A934204D0214A934224D008B0CC
:1028A00070BD204B5A6C42F010025A645B6C03F00E
:1028B00010030193019B80230393022604960024B6
:1028C000059406940725079503A9174806F018FCF8
:1028D0004FF400730393049605940694079503A997
:1028E000124806F00DFCDAE70E4B5A6C42F020025B
:1028F0005A645B6C03F020030293029BC023039392
:1029000002230493002305930323069308230793CC
:1029100003A9074806F0F4FBC1E700BF001001401F
:102920000014014000380240000402400000024050
:102930000008024008B5FFF78DFB08BD10B588B050
:1029400004460268224B9A4205D02268214B9A42E3
:102950001FD008B010BD204B1B684BB91F4A516CEB
:1029600041F400015164526C02F400020192019A98
:102970000133194A1360F0230393022304930023C5
:10298000059306930A23079303A9154806F0B8FB9D
:10299000DBE7114B1B684BB9104A516C41F4000145
:1029A0005164526C02F400020292029A01330A4A04
:1029B00013604FF480630393022304930023059371
:1029C00006930A23079303A9064806F099FBC0E77C
:1029D000045C0140245C01408C030020003802406C
:1029E000002002400018024010B504460268134B54
:1029F0009A4204D02268124B9A420FD010BD114A5D
:102A00001368013B136023B90F4A536C23F400038E
:102A10005364F0210D4806F061FCEBE7094A1368A6
:102A2000013B136023B9084A536C23F40003536439
:102A30004FF48061064806F051FCDFE7045C01407A
:102A4000245C01408C03002000380240002002403A
:102A50000018024000B589B000220146362001F07E
:102A60008BFB362001F0B8FB154B1A6C42F01002BC
:102A70001A641B6C03F010030193019B02A903A8C5
:102A800005F0C0FE05F09EFE43000E48A0FB0323A8
:102A90009B0C013B0C480D4A026040F2E732C260D9
:102AA000436000230361836004F008FE18B1012035
:102AB00009B05DF804FB044804F082FCF8E700BFAD
:102AC0000038024083DE1B43B8F0002000100040B5
:102AD0007047704710B50446036841F214029A58D3
:102AE00012F0400F11D141F214029B5813F0010F64
:102AF00019D1226841F214034FF48031D150226879
:102B0000D35813F4004F1BD110BDFFF77BF8226898
:102B1000402141F21403D150012384F844300023B2
:102B200084F84530E5E7FFF7D3FF2168012341F240
:102B300014028B5084F84430002384F84530D8E7E1
:102B40002046FFF7C6FF22684FF4004141F214030C
:102B5000D150012384F84430002384F84530D3E772
:102B6000F8B50668346A04F00F07C4F34343C4F3AE
:102B70000A14022B2ED16CB307EB8702D300034457
:102B8000596C39B305462246304600F061FEBA0062
:102B90003A44D3002B445A6C22445A64DA6C2244DF
:102BA000DA6406EB4713D3F810150B4A0A408AB1D2
:102BB000D3F8002522F0804242F00042C3F80025FD
:102BC000BB00D919CA002A4492F8503083F001039F
:102BD00082F85030F8BD00BF0000F81FF0B585B096
:102BE0009DF828509DF82C60BDF8307090F8B842E0
:102BF000012C41D0012480F8B8424FEA810E8E4466
:102C00004FEACE0404444FF0000E84F83DE084F80F
:102C10003830A4F8407084F8391084F83F6002F02E
:102C20007F0E84F83AE012F0800F1BD101EB810E89
:102C30004FEACE0404444FF0000E84F83BE0044613
:102C400001EB810E4FEACE00204480F83C50029701
:102C500001960095206800F0F7FE002384F8B83252
:102C600005B0F0BD01EB810E4FEACE0404444FF0F5
:102C7000010E84F83BE0E2E70220F1E790F8B83279
:102C8000012B01D10220704710B50446012380F8C2
:102C9000B832006800F05EFF002084F8B80210BD72
:102CA00000283DD0F0B58BB0064690F8B93293B30A
:102CB000032386F8B932306800F072FD344654F8C8
:102CC00010EB6D460FCC0FC50FCC0FC594E8030079
:102CD00085E80300371D97E80E00704600F01CFDE4
:102CE0000121306800F062FD344654F810EB6D4667
:102CF0000FCC0FC50FCC0FC594E8030085E8030087
:102D000097E80E00704600F021FE012386F8B932E4
:102D100000200BB0F0BD80F8B832FEF7F5FFC7E732
:102D200001207047F8B59DF81870BDF820608D003F
:102D30000D44EC00044484F83B2084F83F306FB924
:102D400001EB8105EC000444032584F84250032B79
:102D500000F29580DFE803F00A8C2E5D01EB81051F
:102D6000EC000444022584F84250F0E7012F08BF2C
:102D7000002A40F0848036B901EB8102D30003447D
:102D8000012283F8512001EB8102D300034493F820
:102D900051303BB901EB8102D3000344002283F898
:102DA00042206CE001EB8102D3000344022283F84D
:102DB000422064E0B2B901EB8102D300034493F8EE
:102DC00051303BB901EB8102D3000344002283F868
:102DD000422054E001EB8102D3000344022283F835
:102DE00042204CE001EB8102D300034493F85030C1
:102DF0003BB901EB8102D3000344002283F8422057
:102E00003DE001EB8102D3000344022283F842201B
:102E100035E0B2B901EB8102D300034493F851309D
:102E20003BB901EB8102D3000344002283F8422026
:102E300025E001EB8102D3000344022283F8422003
:102E40001DE001EB8102D300034493F850303BB9FD
:102E500001EB8102D3000344002283F842200EE0FC
:102E600001EB8102D3000344022283F8422006E0F2
:102E700001EB8102D3000344002283F842208A0040
:102E80005418E3000344079C5C649E64002483F8A8
:102E90005C40DC6483F8391083F85D401144CB005A
:102EA00003F13801027C0144006800F0CFFEF8BD58
:102EB00030B583B005460468D4F840340193D4F8A3
:102EC00040340093009B23F02E030093019B13F0EA
:102ED000020F07D0019B13F0010F28D1009B43F094
:102EE00002030093019B13F0080F13D0009B43F0E3
:102EF00008030093019B13F0040F34D0AB69022B3D
:102F00001CD0EB68032B29D02846FEF74DFF28463E
:102F1000FEF738FF019B13F0200F03D0009B43F016
:102F200020030093009BC4F8403403B030BDA36974
:102F300023F00053A361FEF725FFCFE7019B03F4C5
:102F4000C023B3F5802F04D00121286800F09CFC39
:102F5000DAE70221286800F097FCD5E74EF66022F8
:102F6000C4F80424D0E72846FEF724FFD4F8403400
:102F700023F02E03C4F840342A68936943F00053C9
:102F80009361C7E7F8B506460D46076807EB41179A
:102F900007F5A064A36813F0040F37D00423A360DF
:102FA000E36843F00203E360A36813F4007F63D196
:102FB000A36813F0010F00F0888033694BB1AA00B9
:102FC0002A44D30033449A6C2169C1F31201521A86
:102FD000DA64AA002A44D3003344012283F85D2036
:102FE00000219965A26093F83F30022B18BF8B42F5
:102FF0004ED0032B57D0AB005919CA00324492F877
:10300000503083F0010382F85030F8BDA36813F00C
:10301000200F02D02023A360C6E7A36813F0080F97
:1030200017D1A36813F4806FBED0E36843F00203A6
:10303000E360006800F08EFD1023A36005EB8502BD
:10304000D3003344082283F85D204FF48063A360EB
:10305000AAE7E36843F00203E36001EB8102D300D7
:103060000344052283F85D201023A3600823A36096
:10307000006800F06FFD97E7E36843F00203E36048
:103080002946306800F066FD4FF40073A360F8BD78
:10309000E36843F00203E3602946306800F05AFD1C
:1030A0001023A360A7E7D7F8003543F00053C7F813
:1030B000003505EB8502D3003344012283F85C2000
:1030C00029463046FEF76AFE95E7A36813F0020F23
:1030D00062D0E36823F00203E36005EB8502D300CE
:1030E000334493F85D30012B20D0052B32D0082BD0
:1030F00018BF062B3ED1AA002A44D30033449A6D50
:1031000001329A65032A2DD9AA002A44D3003344F8
:1031100000229A65042283F85C20D7F8003523F05A
:10312000804343F00043C7F8003506E005EB850215
:10313000D3003344012283F85C200223A36005EB13
:103140008502D300334493F85C2029463046FEF7CD
:1031500025FEF8BD05EB8502D3003344052283F834
:103160005C20EAE705EB8502D3003344022283F8B2
:103170005C20D2E7032BE0D105EB8502D30033447A
:10318000022283F85C20D7F8003523F0804343F017
:103190000043C7F80035D0E7A36813F0800F1AD1B9
:1031A000A36813F0100F15D005EB8502D30033444C
:1031B00093F83F30032B26D0022B18BF002B07D1EA
:1031C00005EB8502D300334400229A6533694BB383
:1031D0001023A360F8BDE36843F00203E360AB0093
:1031E0005919CA003244916D013191652B44DA00BE
:1031F0003244062382F85D302946306800F0AAFC8C
:103200008023A360F8BD05EB8502D3003344002280
:103210009A65E36843F00203E3602946306800F0F2
:1032200099FCD5E705EB8502D3003344032283F8EC
:103230005D20E36843F00203E3602946306800F054
:1032400089FCC5E7F8B5036803EB411303F5A064F7
:10325000A26812F0040F11D10E460546A26812F0C2
:10326000200F26D02023A36001EB8102D3001A4651
:10327000034493F83D30012B07D0F8BD0423A3602D
:10328000E36843F00203E360F8BD8B0002440021D1
:1032900082F83D103344DA000244022382F85C30A5
:1032A000E36843F00203E3603146006800F052FC3B
:1032B000F8BDA26812F0400F34D1A26812F4007F6A
:1032C0004AD1A26812F0010F51D1A26812F0080F82
:1032D00062D1A26812F0100F6FD08A000A44D300A6
:1032E000034400229A65032283F85D2093F83D3061
:1032F0006BB901EB8102D300034493F83C3033B93E
:1033000001EB8102D3000344012283F83D20E368EE
:1033100043F00203E3603146286800F01BFC1023F1
:10332000A360F8BD8B005918CA000244042182F83A
:103330005D10012182F83D103344DA00024400237D
:103340009365E36843F00203E3603146006800F0F0
:1033500001FC4023A360F8BDE36843F00203E3608F
:10336000006800F0F7FB4FF40073A360F8BD8F0016
:103370007A18D300034400229A65E36843F00203FD
:10338000E360006800F0E6FB0123A360B919C80000
:10339000284480F85D30F8BD0823A360E36843F05B
:1033A0000203E360006800F0D5FB06EB8601C8006D
:1033B0002844052380F85D30F8BDA26812F0800F24
:1033C0003AD1A26812F4806F47D1A26812F0020FBE
:1033D0003FF453AFE26822F00202E26001EB8101A8
:1033E000CA001146024492F85D20012A49D0032AFE
:1033F00066D0042A6CD0052A72D0082A18BF062A83
:1034000048D1B1003144CA000244916D0131916547
:1034100003296DD9B1003144CA00024400219165ED
:10342000042182F85C10D3F8002522F0804242F09B
:103430000042C3F800252DE0E36843F00203E36097
:10344000006800F087FB06EB8601CB002B440622C8
:1034500083F85D208023A360F8BDE36843F0020396
:10346000E360006800F076FB1023A3604FF48063F4
:10347000A36006EB8601CB002B44082283F85D2075
:10348000F8BD0B460344012283F85C2093F83F30DB
:10349000022B0CD00223A36006EB8602D3002B4440
:1034A00093F85C2031462846FEF778FCE5E60B46AB
:1034B000034493F8512082F0010283F85120E9E798
:1034C00006EB8602D3000344022283F85C20E1E786
:1034D00006EB8602D3000344022283F85C20D9E77E
:1034E00006EB8602D3000344052283F85C20D1E773
:1034F00006EB8601CA000244022182F85C1092E7C2
:10350000F8B504460568284600F0BAF9012800D04D
:10351000F8BD206800F0B0F90028F9D0206800F06C
:10352000ABF910F4001F03D023684FF400125A6166
:10353000206800F0A1F910F4801F03D023684FF435
:1035400080125A61206800F097F910F0806F03D064
:1035500023684FF080625A61206800F08DF910F006
:10356000020F02D0236802225A61206800F084F919
:1035700010F0005F28D1206800F07EF910F0807F05
:1035800034D1206800F078F910F0080F32D12068AB
:1035900000F072F910F0007F33D1206800F06CF970
:1035A00010F0100F53D00123002BB1D02268936983
:1035B00023F0100393612046FFF7D2FA2268936943
:1035C00043F010039361A3E7D5F8403423F02E03B2
:1035D000C5F840342046FEF7DBFB0121206800F0EF
:1035E00053F923684FF000525A61C4E72046FFF7B1
:1035F0005FFCC6E72046FEF7BFFB236808225A613E
:10360000C5E7206800F0A1FA0746002604E0F1B201
:103610002046FFF717FE0136A3689E4212D206F03D
:103620000F0327FA03F313F0010FF4D005EB461351
:10363000D3F8003513F4004FE9D0F1B22046FFF77C
:10364000A1FCE8E723684FF000725A61A5E7002368
:10365000AAE738B590F8B832012B01D1022038BD65
:103660000446012580F8B852006800F093F8294616
:10367000206800F048F9002084F8B80238BD90F8BE
:10368000B832012B01D10220704710B50446012346
:1036900080F8B832006800F085FB002084F8B8029A
:1036A00010BD08B5006800F00FF908BD01EB8101FD
:1036B000CB00184490F85C00704701EB8101CB000F
:1036C0001844C06C704708B5006800F0B8F908BD30
:1036D00008B5006800F0A8F908BD00000023013318
:1036E0000C4A934211D80269002AF8DA036943F0C0
:1036F0000103036100230133064A934207D802699C
:1037000012F0010FF7D1002070470320704703200B
:10371000704700BF400D030084B010B5044603A8F5
:1037200080E80E00089B012B11D0E36843F04003B2
:10373000E3602046FFF7D2FF4FF48033A363069B7C
:10374000012B1CD00020BDE8104004B07047A36BD3
:1037500023F48033A363E2680D4B1340E360E36816
:1037600023F44013E3600F9B012B03D02046FFF7A7
:10377000B5FFE4E7E36843F48013E360F6E7A3688A
:1037800043F00603A360A36843F02003A360D9E7D6
:10379000BFFFBDFF836843F00103836000207047D3
:1037A000836823F0010383600020704708B5C36875
:1037B00023F0C043C360012909D069B9C36843F04D
:1037C0008043C360322006F01BF9002008BDC368A7
:1037D00043F00053C360F5E7012008BD890141F0C3
:1037E0002001016100230133054A934205D8026993
:1037F00012F0200FF7D1002070470320704700BF60
:10380000400D03001023036100230133054A934256
:1038100005D8026912F0100FF7D10020704703207D
:10382000704700BF400D030070B49DF80C4064B9B0
:1038300003339E0807E000EB023303F5805351F891
:10384000045B1D600134B442F5D3002070BC7047A6
:1038500003329208002393420CD210B400F5805436
:10386000246841F8044B01339342F7D308465DF8CE
:10387000044B7047084670474269806910407047A2
:10388000406900F00100704710B400F58064D0F882
:10389000003423F00303C0F80034D0F8003401F002
:1038A00003021343C0F80034012905D0022907D0D0
:1038B00000205DF8044B70474BF680336360F7E7F8
:1038C00041F270736360F3E730B583B004460025BE
:1038D0000195D0F840340193019B23F02E0301930E
:1038E000019B43F48073C0F84034642006F088F8EC
:1038F000019B23F48073C4F840340A2006F080F85A
:10390000284603B030BD82B000230193D0F8403484
:103910000193019B23F02E030193019B13F4805F1D
:1039200001D101290CD0019B13F4805F05D021B98E
:10393000019B23F48053C0F84034002002B070474C
:10394000019B43F48053C0F84034ECE784B038B5B1
:10395000044605A880E80E0025460023C4F8003E72
:10396000A36B23F40013A363079B032B0ED0D4F89F
:10397000003423F00403C4F8003410212046FFF77C
:103980002DFF2046FFF73EFF002213E0B4F1A04FC9
:10399000EDD0D4F8003443F00403C4F80034ECE76D
:1039A00005EB42134FF0FF31C3F808150021C3F8AF
:1039B0000C150132069B9A42F2D301212046FFF7F3
:1039C000A2FFC82006F01CF80023A3614FF0FF33CC
:1039D0006361B4F1A04F17D04FF40073636203F139
:1039E0008073A3620D4BC4F80031089B1BB9A36917
:1039F00043F01003A361A269094B1343A3610020A4
:103A0000BDE8384004B070478023636203F5C0030B
:103A1000A362044BC4F80031E7E700BF0003E000F5
:103A2000080020A3E000400082B000230193D0F8FA
:103A3000403401930198C0F3414002B0704700F553
:103A40008060806880B27047F0B59DF8184000EB48
:103A5000411505F5A0664FF0FF37B760032C63D81A
:103A6000DFE804F00254021740F29D47F76012F0BD
:103A7000800F08D1B0F1A04F58D0F76847F0600729
:103A8000F76000260CE0F76847F48077F7600026BF
:103A900006E040F29D67F76012F0800F30D10026FB
:103AA000D0F8187401F00F014FF0010E0EFA01F179
:103AB0003943C0F81814816941F00071816112F036
:103AC000800F35D100209DF81410022933D0002139
:103AD0009B0503F0FE53D20202F4F0421343A2040A
:103AE00002F440221343BDF81C20C2F30A02134320
:103AF00003430B43C5F80035032C1FD03046F0BDFF
:103B0000F76847F48077F7600026C9E740F2252779
:103B1000F76012F0800F01D10026C1E7F76847F483
:103B2000C077F7600026BBE70126B9E70026B7E7B4
:103B30004FF40040C7E74FF40031C9E7D5F800352E
:103B400043F00053C5F80035D8E700F580604069C0
:103B500080B2704710B400EB411101F5A064D1F8B8
:103B60000035C3F38143022B18BF002B2BD1D1F8B2
:103B7000003543F08043C1F80035C36A13F47F0F6A
:103B80001AD1D1F8003523F00043C1F80035D1F83F
:103B9000003543F00043C1F80035D1F8003523F477
:103BA0000043C1F8003500230133B3F57A7F36D8DE
:103BB0002268002AF8DB32E0D1F8003543F00043F8
:103BC000C1F800352BE0D1F8003543F08043C1F84F
:103BD0000035D0F8103413F47F0F1AD1D1F8003526
:103BE00023F00043C1F80035D1F8003543F000431D
:103BF000C1F80035D1F8003523F40043C1F8003591
:103C000000230133B3F57A7F09D82268002AF8DB54
:103C100005E0D1F8003543F00043C1F8003500203D
:103C20005DF8044B7047000000EB4111064AC1F8F3
:103C30001025D1F8003523F0804343F00043C1F84C
:103C400000350020704700BF00000880F0B583B049
:103C50004B78B0F1A04F07D00C792CB912B94C7940
:103C6000012C11D0012A13D00C69E4B10D892C4428
:103C7000013CB4FBF5F4A4B2B4F5807F14D92D0255
:103C80000D614FF480740FE01946FFF7CDFF75E02A
:103C900000EB4314D4F80C5525F06005C4F80C551E
:103CA00000244C71E0E70124CD781DB10D8905FB9E
:103CB00004F50D6100EB43130D69C5F31205374F91
:103CC00007EAC4442C438D7A6D0705F0C0452C43A8
:103CD000C3F8104512B1CC68C3F8144500F58066EE
:103CE000B46814F0010FD3F8004524F00054C3F871
:103CF0000045D3F800450CBF4FF0005500252C437C
:103D0000C3F80045D3F80055254C2560256825F0FB
:103D100080452560CC78C4B1214D2C6844F4004422
:103D20002C601F4C256845F0004525602468C3F8C9
:103D300000451ABBCB780BBB0B69FBB1CA79032AD0
:103D400014D8DFE802F0081E081E154D2C6824F474
:103D500000442C60E5E70333C26A92B2C3F38F03D9
:103D6000934203D9836943F020038361CC684A7886
:103D70000B8A002100912146FFF756FD002003B079
:103D8000F0BD0333326992B2C3F38F039342EDD98E
:103D9000836943F080638361E8E700BF0000F81F98
:103DA0009003002070B505460446FFF7F9FC10218A
:103DB0002846FFF713FD2846FFF724FD00220AE0FE
:103DC00004EB4211D1F8003523F0802343F0804307
:103DD000C1F8003501320F2AF2D90020034600E075
:103DE00001300F2813D804EB401606F5A061D6F871
:103DF000002522F4004242F04042C6F8002501337B
:103E0000B3F57A7FECD80A68002AF8DBE8E74FF0D0
:103E1000FF33C5F814346B612846FFF7BBFC002064
:103E200070BD0000494B5A6822F440325A605A680B
:103E300041680A435A600268536823F480735360F0
:103E400002685368016943EA0123536002685368BA
:103E500023F0407353600268536881680B435360DA
:103E60000268936823F40063936002689368C168F2
:103E70000B439360826A364B9A4249D0026893683A
:103E800023F07063936002689368816A0B439360C8
:103E90000268936823F04053936002689368C16A94
:103EA0000B4393600268936823F0020393600268F7
:103EB0009368816943EA41039360036A002B32D11E
:103EC0000268536823F4006353600268D36A23F4E2
:103ED0007003D3620168CB6AC269013A43EA0253B4
:103EE000CB620268936823F400739360026893685E
:103EF000016B43EA412393600268936823F4806373
:103F0000936002689368416943EA81239360704734
:103F10000268936823F0706393600268936823F0EB
:103F200040539360BEE70268536843F400635360F4
:103F30000268536823F46043536001684B68426A27
:103F4000013A43EA42334B60BFE700BF0023014020
:103F50000100000F20B310B50446036C43B1236C7D
:103F600013F0100F0AD00120002384F83C3010BD5C
:103F7000436480F83C30FEF71FF9F0E7226C094BF0
:103F8000134043F0020323642046FFF74BFF002059
:103F90006064236C23F0030343F001032364E3E72D
:103FA00001207047FDEEFFFF30B482B00023019383
:103FB00090F83C30012B00F0C080012380F83C30A9
:103FC0000B68092B22D90568EA689BB203EB43030F
:103FD0001E3B072404FA03F322EA0303EB600B6899
:103FE000574A93420BD00568EA688C689BB203EB92
:103FF00043031E3B04FA03F31343EB601BE0026828
:10400000D3688C6843EA0463D36014E005682A69C6
:104010009BB203EB4303072404FA03F322EA0303EE
:104020002B6105682A698C680B8803EB430304FA4B
:1040300003F313432B614B68062B24D805686A6B86
:1040400003EB8303053B1F2404FA03F322EA030373
:104050006B6305686A6B4B6803EB8303053B0C8855
:1040600004FA03F313436B630268364B9A423AD067
:104070000268344B9A423FD0002380F83C30184607
:1040800002B030BC70470C2B16D805682A6B03EBC6
:104090008303233B1F2404FA03F322EA03032B6365
:1040A00005682A6B4B6803EB8303233B0C8804FAF7
:1040B00003F313432B63D7E70568EA6A03EB830333
:1040C000413B1F2404FA03F322EA0303EB62056871
:1040D000EA6A4B6803EB8303413B0C8804FA03F361
:1040E0001343EB62C0E70B68122BC1D1164A536829
:1040F00043F480035360BBE70B68114A112B18BFD0
:104100009342B9D1104A536843F4000353600A68DC
:104110000B4B9A42B0D10D4B1B680D4AA2FB0323F7
:104120009B0C03EB83035A00019202E0019B013BCD
:104130000193019B002BF9D19EE70220A0E700BF6D
:104140001200001000200140002301400400002064
:1041500083DE1B430649CB6823F4E0631B041B0C7E
:10416000000200F4E0600343024A1A43CA60704749
:1041700000ED00E00000FA0530B4144BDB68C3F337
:104180000223C3F10704042C28BF04241D1D062D9F
:1041900013D9033B012505FA04F4013C2140994061
:1041A00005FA03F3013B13401943002807DB09011B
:1041B000C9B2074B195430BC70470023EAE700F03E
:1041C0000F000901C9B2034B1954F4E700ED00E0F8
:1041D00000E400E014ED00E0420900F01F000123BC
:1041E00003FA00F0014B43F82200704700E100E0C1
:1041F0000138B0F1807F0AD2064B5860F021064AA0
:1042000082F823100020986007221A60704701206E
:10421000704700BF10E000E000ED00E0042805D08A
:10422000054A136823F0040313607047024A1368B9
:1042300043F004031360704710E000E0002838D01A
:1042400010B50446437F1BB30223637723791BBB5E
:104250002368194A5A612268936823F0180393600F
:10426000637913BB23684FF0FF321A6122689368A9
:1042700023F0600361690B4393602268936823F025
:104280008003A1690B43936001236377002010BD75
:104290000377FDF7BFFFD7E7E268A168204600F08B
:1042A0000DF80028DCD0012010BD236822691A61B6
:1042B000DCE70120704700BFB71DC10410B41F2305
:1042C00000E0234621FA03F414F0010F03D15C1E31
:1042D000002BF6D12346102A13D0182A0DD0082A15
:1042E00013D00368596101688B6823F018031A43DF
:1042F0008A6000205DF8044B7047062BF1D901203D
:10430000F8E7072BEDD90120F4E70F2BE9D90120BD
:10431000F0E70000002844D010B5044690F835308E
:10432000002B2ED0022384F83530226811681E4BF2
:104330000B40136022681168636860690343E0689A
:10434000034320690343A0680343A0690343206A31
:104350000343606A0343A06A0343E06A0343206B9C
:1043600003430B4313606368102B0DD02268D3689E
:1043700043F01E03D3600020E064012384F835304D
:1043800010BDFDF75DFFCDE72268237F617F43EA23
:104390000123A17F43EA0143E17F43EA0163936183
:1043A000E4E70120704700BF07F0E0FF70B4066843
:1043B000746C04F04044039D45EA03431C43746459
:1043C0000368DA634368B3F5403F03D00368D960FC
:1043D00070BC704701F07F4601F47F0301F47F4514
:1043E000CAB284687CB1012C10D0022C11D0032CED
:1043F00017D0360F190D2D0B090241EA051141EABC
:10440000063141EA121103689963E1E721F07F4127
:10441000F9E7DB0CAD0AD90241EA451141EAD201C4
:10442000F1E7F60FDB0CED0A990241EA451141EA8A
:10443000C63141EAD201E6E738B310B5044690F838
:104440003930EBB1022384F839302268136823F441
:10445000403361680B4313602268536B23F00703FA
:10446000A1680B4353632268116C094B0B40E16850
:104470000B4313640020E063012384F8393010BD3E
:1044800080F83830FDF734FFDCE70120704700BFCB
:1044900000C0FFFF10B582B090F83840012C02D167
:1044A000022002B010BD0446012084F8380002202A
:1044B00084F83900049800902046FFF777FF2268BF
:1044C000136843F0010313600020EAE770B582B07F
:1044D00004460D460023019303681B6813F0010F87
:1044E0002AD12368DA6912F0200F03D15B6A13F036
:1044F000200F7FD005F07EFA064623685A6812F036
:10450000100F77D15A680192019A12F0290F4FD1FA
:10451000B5F1FF3FF1D025B105F06CFA801B854263
:10452000EBD2E36B43F02003E363032084F839000C
:10453000002384F8383066E005F05CFA064623680C
:104540005A6812F0020FCCD15A680192019A12F007
:10455000210F13D1B5F1FF3FF1D025B105F04AFA93
:10456000801B8542EBD2E36B43F02003E36303201F
:1045700084F83900002384F8383044E0019A12F0BE
:10458000200F03D0E26B42F00202E263019A12F0C4
:10459000010F03D0E26B42F00102E26321229A6034
:1045A000042384F83930002384F8383001202AE0CD
:1045B000019A12F0080F03D0E26B42F00402E263AA
:1045C000019A12F0200F03D0E26B42F00202E26384
:1045D000019A12F0010F03D0E26B42F00102E26394
:1045E00029229A60042384F83930002384F8383073
:1045F000012008E0236812229A60012384F83930F0
:10460000002084F8380002B070BD7047704770B564
:10461000044603685D681E6815F0010F16D016F495
:10462000807F13D01A6822F480721A60C36B43F043
:104630000103C363036801229A60042380F83930C0
:10464000002380F83830436903B1984715F0200FF4
:1046500018D016F4005F15D02268136823F40053B5
:104660001360236820229A60E36B43F00203E36344
:10467000042384F83930002384F8383063690BB19F
:104680002046984715F0080F18D016F4006F15D083
:104690002268136823F400631360236808229A6079
:1046A000E36B43F00403E363042384F8393000230D
:1046B00084F8383063690BB12046984715F0040F31
:1046C00002D016F4806F20D115F0020F16D016F428
:1046D000007F13D02268136823F4007313602368EB
:1046E00002229A60E36BE363012384F839300023EC
:1046F00084F8383023690BB12046984715F0100F25
:1047000002D016F4805F0CD170BD2268136823F4C8
:1047100080631360236804229A602046FFF775FFC8
:10472000D2E72268136823F48053136023681022B1
:104730009A60E36BE363012384F83930002384F843
:1047400038302046FFF762FFDEE7000090F838308F
:10475000012B59D030B4012380F83830022380F87F
:10476000393000EB0113DA698B1C1B01C35842EA94
:104770000343093A012A1ED98A1C00EB021252682F
:1047800043EA026341BB0468656A204A2A40134336
:104790006362026800EB01139C699461DB69093B69
:1047A000012B10D9012380F83930002380F83830EC
:1047B000184630BC70478A1C00EB0212526802F0A7
:1047C0007F421343DEE70268023100EB01114B68C0
:1047D00023F07F439362E5E70468E5690B4A2A40CA
:1047E0001343E361026800EB01139C691461DB6908
:1047F000093B012BD6D80268023100EB01114B684E
:1048000023F07F431362CDE702207047F0FFFC00E6
:1048100030B40B68012B18D00368194A1A404B6852
:104820008C682343CC6823430C6923434C6923439E
:104830008C692343CC6923430C6A2343496A0B43A5
:1048400013430360002030BC7047046824F4F8442C
:10485000CB690A6A13434A6A13431C434368084AF4
:104860001A404B688D682B43CD682B430D692B4351
:104870004D692B4389690B43134304604360E1E7AF
:104880000080FFFF30B4012A21D0826802F070421C
:104890000B68013B4C68013C43EA04138C68013C03
:1048A00043EA0423CC68013C43EA04330C69013C2D
:1048B00043EA04434C69013C43EA045389690139E2
:1048C00043EA016313438360002030BC7047836870
:1048D000114C1C40CB685A1E4B69013B1B0543EA37
:1048E00002331C43C26802F070420B68013B4D6802
:1048F000013D43EA05138D68013D43EA05230D6937
:10490000013D43EA05438969013943EA01631343E1
:104910008460C360D8E700BFFF0F0FFF10B483B0FF
:104920000446002001900B684A6813438A68013AE4
:1049300043EA4213CA6843EA42230193019B23617D
:1049400003B05DF8044B7047436943EA410141619C
:1049500000207047D8B138B504460D4690F82C3089
:1049600083B1022384F82C30211D2068FFF750FF0B
:10497000626829462068FFF785FF012384F82C3000
:10498000002038BD80F82D30FDF7D4FFE9E7012085
:10499000704738B590F82C30DBB2022B01D10220E1
:1049A00038BD0D460446022380F82C300068FFF71E
:1049B000B5FF2B68022B04D0012384F82C30002093
:1049C00038BD052384F82C30002038BD90F82C30F9
:1049D000DBB2022B01D10220704710B5044602233E
:1049E00080F82C300068FFF7AFFF012384F82C30EB
:1049F000002010BD03689A6912F0020F01D0002256
:104A00009A6203689A6912F0010F03D19A6942F021
:104A100001029A61704770B4039D066870686C0D5E
:104A200004F4806444F07F7444F4583444F47F7494
:104A300044F0030420EA0400C1F3090141EA024101
:104A4000194329430843706070BC704770B5044631
:104A50000D46164603689B6913F0100F17D02368A4
:104A60009A6912F0200F14D1B5F1FF3FF7D025B1AC
:104A700004F0C0FF801B8542F1D2202384F841302E
:104A8000002384F8423084F84030032070BD0020B9
:104A900070BD1022DA6123682025DD612046FFF712
:104AA000A9FF2268536823F0FF7323F48B3323F4A8
:104AB000FF7323F0010353600423636484F84150BF
:104AC000002384F8423084F84030012070BD70B576
:104AD00004460D46164623689B6913F0020F1CD14D
:104AE000324629462046FFF7B1FFC0B9B5F1FF3F76
:104AF000F1D025B104F07EFF801B8542EBD2636CC0
:104B000043F020036364202384F84130002384F8B9
:104B1000423084F84030032070BD002070BD012079
:104B200070BDF8B505460F4616461C462B689B69B6
:104B300037EA03030CBF01230023B34213D1B4F1BE
:104B4000FF3FF3D02CB104F055FF069BC01A8442FE
:104B5000ECD2202385F84130002385F8423085F8D7
:104B600040300320F8BD0020F8BD000070B582B0D1
:104B7000044616461D461E4B00934FF08073EAB262
:104B8000FFF749FF079A06992046FFF7A0FF40B1BB
:104B9000636C042B03D00323184602B070BD0123BD
:104BA000FAE7012D0DD02368320A9A62079A069916
:104BB0002046FFF78CFFB0B1636C042B11D00323A8
:104BC000EAE72368F6B29E62079B0093069B0022E9
:104BD00080212046FFF7A5FF03460028DCD00323F1
:104BE000DAE70123D8E72368F6B29E62ECE700BF5C
:104BF0000020008070B582B0044616461D461D4B4D
:104C000000930023EAB2FFF706FF079A06992046B1
:104C1000FFF75DFF40B1636C042B03D003231846FC
:104C200002B070BD0123FAE7012D0DD02368320ACE
:104C30009A62079A06992046FFF749FFB0B1636C64
:104C4000042B11D00323EAE72368F6B29E62079B88
:104C50000093069B002240212046FFF762FF034697
:104C60000028DCD00323DAE70123D8E72368F6B273
:104C70009E62ECE70020008070B505460C461646A3
:104C80002B689B6913F0200F19D132462146284624
:104C9000FFF7DCFEA8B924B104F0ACFE801B84420F
:104CA000EED26B6C43F020036B64202385F8413017
:104CB000002385F8423085F84030032070BD002085
:104CC00070BD012070BD0000002857D010B504460B
:104CD00090F84130002B41D0242384F841302268E1
:104CE000136823F0010313602268636823F0706384
:104CF00013612268936823F400439360E368012BF7
:104D000031D02268A36843F404439360E368022B24
:104D10002FD0226851681A4B0B4353602268D36826
:104D200023F40043D3602268236961690B43A169BE
:104D300043EA0123D3602268E369216A0B431360CD
:104D40002268136843F0010313600020606420238D
:104D500084F84130206384F8420010BD80F8403070
:104D6000FDF7E6FAB8E72268A36843F400439360CE
:104D7000CCE723684FF400625A60CAE7012070470D
:104D800000800002A8B110B50446242380F8413009
:104D90000268136823F001031360FDF713FB002082
:104DA000606484F84100206384F8420084F8400085
:104DB00010BD012070472DE9F04782B0BDF82C509E
:104DC00090F84140E4B2202C04D00223184602B0EF
:104DD000BDE8F0870A9C002D18BF002C00F0C980A8
:104DE00090F84040012C01D10223EFE7984691460C
:104DF0000E4604464FF0010A80F840A004F0FAFD88
:104E000007460090192352464FF400412046FFF711
:104E100088FE08B10323D9E7212384F841304023D9
:104E200084F84230002363640A9A62626585636392
:104E300001970C9B009343464A4631462046FFF7B4
:104E400095FE60B1636C042B04D0002384F84030DD
:104E50000323BBE7002384F840305346B6E7638D55
:104E60009BB2FF2B0AD9FF222285002300934FF02B
:104E7000807331462046FFF7CEFD23E0628D92B26B
:104E80002285002300934FF00073D2B231462046B2
:104E9000FFF7C1FD16E0636C042B01D0032395E7F7
:104EA000012393E7628D92B22285002300934FF095
:104EB0000073D2B231462046FFF7ADFD638D9BB241
:104EC000002B32D03A460C992046FFF700FE00280E
:104ED000E1D12268636A591C61621B789362638D19
:104EE0009BB2013B9BB26385238D013B9BB2238523
:104EF000002BE3D1638D9BB2002BDFD000970C9B7E
:104F0000002280212046FFF70CFEA0BB638D9BB2E0
:104F1000FF2BC7D9FF222285002300934FF0807317
:104F200031462046FFF777FDC8E73A460C99204600
:104F3000FFF7A2FE034630B1636C042B01D00323BC
:104F400044E7012342E722682021D16120684268BA
:104F500022F0FF7222F48B3222F4FF7222F001025F
:104F6000426084F84110002284F8422084F84020F6
:104F70002CE701232AE7032328E700002DE9F04767
:104F800082B0BDF82C5090F84140E4B2202C04D0FF
:104F90000223184602B0BDE8F0870A9C002D18BF16
:104FA000002C00F0C48090F84040012C01D1022375
:104FB000EFE7984691460E4604464FF0010A80F806
:104FC00040A004F017FD07460090192352464FF405
:104FD00000412046FFF7A5FD08B10323D9E72223AE
:104FE00084F84130402384F84230002363640A9AF5
:104FF00062626585636301970C9B009343464A4652
:1050000031462046FFF7F6FD60B1636C042B04D0F7
:10501000002384F840300323BBE7002384F84030AA
:105020005346B6E7638D9BB2FF2B0AD9FF22228538
:10503000424B00934FF0807331462046FFF7EBFC64
:105040001CE0628D92B222853C4B00934FF00073BE
:10505000D2B231462046FFF7DEFC0FE0628D92B2FD
:105060002285002300934FF00073D2B231462046D0
:10507000FFF7D1FC638D9BB2002B34D000970C9BC3
:10508000002204212046FFF74CFD002851D1636A1D
:105090005A1C62622268526A1A70228D013A92B2D8
:1050A0002285638D9BB2013B9BB26385002AE1D1CF
:1050B000638D9BB2002BDDD000970C9B8021204696
:1050C000FFF72FFD002836D1638D9BB2FF2BC5D98A
:1050D000FF222285002300934FF080733146204643
:1050E000FFF799FCC6E73A460C992046FFF7C4FD46
:1050F000034630B1636C042B01D0032349E701233D
:1051000047E722682021D1612068426822F0FF72BF
:1051100022F48B3222F4FF7222F00102426084F802
:105120004110002284F8422084F8402031E7012316
:105130002FE703232DE703232BE700BF0024008084
:1051400090F84100704790F84130DBB2202B01D03D
:105150000220704790F84030012B20D0012380F8C6
:105160004030242380F841300268136823F00103A3
:1051700013600268136823F4805313600268136895
:10518000194311600268136843F001031360202380
:1051900080F84130002380F84030184670470220E4
:1051A000704790F84130DBB2202B01D002207047CD
:1051B00090F84030012B1ED0012380F8403024238A
:1051C00080F841300268136823F00103136002681D
:1051D000136823F4706343EA0121116002681368C5
:1051E00043F001031360202380F84130002380F84E
:1051F000403018467047022070470000F0B54D68F7
:105200000468E368C3F30B431D44D2011444D4F88B
:10521000883003F47043C4F88830066894190B682A
:10522000F668C6F30B463344013343EA0543C4F83A
:105230008830CD680468E368C3F30A031D4414444E
:10524000D4F88C3003F47043C4F88C300668941999
:105250008B68F668C6F30A063344013343EA054314
:10526000C4F88C3003681344D3F8944024F0070446
:10527000C3F89440036813440C69C3F8944091F850
:1052800031E091F832708E6905681544D5F89C308C
:105290000024C5F89C400568154491F8303043EA75
:1052A0000E2343EA074343EA0663C5F89C300368CC
:1052B0001344D3F8985025F0FF05C3F898500368BD
:1052C00013444D69C3F8985003681344D3F8A060A1
:1052D0002C4D3540C3F8A05003681344CD690E6AC5
:1052E0003543C3F8A05003681344D3F8AC50C3F857
:1052F000AC40036813444C6AC3F8AC400B696BB113
:10530000012B39D0022B18BF042B37D0032B37D0F9
:10531000072B01D0012602E0022600E004260468E3
:105320001444D4F8B03003F0E023C4F8B03004687B
:1053300014448D6A05FB06F54B680F68DB1B03FB05
:1053400006F3033343EA0543C4F8B030036813445B
:10535000D3F8B4500C4C2C40C3F8B4400368134449
:10536000C96AC3F8B41003681A44D2F8843043F011
:105370000103C2F88430F0BD0326D0E70226CEE751
:105380000226CCE7F8F8FFFF00F8FFFF002877D0EF
:1053900038B5044690F8A130002B6CD0022384F875
:1053A000A1302268936923F07043936121688A6970
:1053B0006368A0680343E068034320690343134321
:1053C0008B6121688A682F4B1A408A606569206862
:1053D0008268A16941EA05410A4382602168CA687E
:1053E0001A40CA60E5692068C268216A41EA05413D
:1053F0000A43C26021680A691A400A61656A206826
:105400000269A16A41EA05410A43026121684A69C9
:1054100013404B61E06A21684B69226B42EA00420B
:1054200013434B6194F8350094F836301B0421681F
:10543000CA6A02F07F42CA622168CA6A43EA00234C
:1054400094F8340003431343CB622268536B43F058
:10545000040353632268536B43F0020353632268CF
:10546000936943F0010393610020C4F8A400012371
:1054700084F8A13038BD80F8A030FCF7CDFF8DE76F
:105480000120704700F800F070477047704710B572
:10549000044603689A6B12F0040F03D09A6B12F063
:1054A000040F1BD123689A6B12F0020F03D09A6B82
:1054B00012F0020F27D123689A6B12F0010F03D06C
:1054C0009A6B12F0010F34D123689A6B12F0080F17
:1054D00003D09A6B12F0080F3BD110BD5A6B22F02B
:1054E00004025A6303680422DA63D0F8A43043F05C
:1054F0000103C0F8A43080F8A120002380F8A03078
:10550000FFF7C2FFCEE75A6B22F002025A6323680C
:105510000222DA63D4F8A4301343C4F8A43004237D
:1055200084F8A130002384F8A0302046FFF7ACFFB8
:10553000C1E75A6B22F001025A6322680123D36348
:1055400084F8A130002384F8A0302046FFF79DFFA7
:10555000BAE75A6B22F008025A6323680822DA631A
:10556000012384F8A130002384F8A0302046FFF7FF
:105570008DFFB2E790F8A030012B01D102207047D7
:105580002DE9F04196460F4606464FF0010880F897
:10559000A080022380F8A130342404FB02043834B4
:1055A0000D460FCD0FC40FCD0FC40FCD0FC42B6808
:1055B0002360724639463046FFF720FE3368C3F851
:1055C000248086F8A180002086F8A000BDE8F08144
:1055D00090F8A030012B1DD030B4012480F8A040F9
:1055E000022380F8A1300368D2011344D3F890500D
:1055F00005F07F45C3F8905003681A44C2F8901034
:1056000003685C6280F8A140002380F8A03018464F
:1056100030BC70470220704790F8A030012B17D0A3
:10562000012280F8A020022380F8A130036803EB58
:10563000C111D1F8843043F00203C1F8843003680B
:105640005A6280F8A120002380F8A03018467047E5
:105650000220704738B590F8A030012B01D102200C
:1056600038BD0446012580F8A050022380F8A130FF
:10567000342303FB02F303F138002344D9642118D7
:105680002046FFF7BBFD23685D6284F8A15000202F
:1056900084F8A00038BD90F8A10070472DE9F041D2
:1056A00005460F4616469846069C2B689B683B426B
:1056B00014BF01230023B34213D0B4F1FF3FF4D051
:1056C0002CB104F097F9A0EB08008442EDD204233A
:1056D00085F841306B6C43F001036B640120BDE839
:1056E000F0810020BDE8F0818164704730B583B05F
:1056F000044604F07FF9002C54D0054694F840305D
:10570000DBB2012B50D0012384F8403094F84130B3
:10571000002B3CD021680B6823F4F853A268013AAF
:1057200043EA02230B60A36C00932B460022202146
:105730002046FFF7B3FF024618BB206803681B49E9
:1057400019406568E36843EA0563E5692B43256A08
:105750002B430B43036020684168154B0B402569C0
:10576000616941EA0541A56929430B43436021680A
:105770000B6843F001030B6000236364012384F88A
:105780004130002384F84030104603B030BD84F827
:1057900040302046FCF7A2FE41F288312046FFF758
:1057A000A3FFB7E70122EFE70222EDE72FFFFF009B
:1057B000FEF8E0FF38B504460268D36823F0A00382
:1057C000D36004F017F905462368DB6813F0200F57
:1057D00007D104F00FF9401BB0F57A7FF4D903200C
:1057E00038BD002038BD38B50368DA6812F0400FC4
:1057F00001D0002038BD04464FF0FF32DA6004F0DB
:10580000F9F805462368DB6813F0400F07D104F070
:10581000F1F8401BB0F57A7FF4D9032038BD0020A1
:1058200038BD000000284AD038B50446437F002B1D
:105830003AD0022363772368CA225A62236853222C
:105840005A622046FFF7CFFF0246002830D1216878
:1058500088681C4B03408B602068816863682569F9
:105860002B4365692B430B4383602368E16819610F
:1058700021680B69A06843EA00430B612168CB688B
:1058800023F08003CB602168CB6C23F00803CB644A
:105890002168CB6CA0690343CB642368FF21596264
:1058A00001236377104638BD0377FCF76DFEC0E730
:1058B0002368FF225A62042363770122F2E7012260
:1058C00010467047BFFF8FFF002302E001330A3804
:1058D000C0B20928FAD81B01DBB218437047000098
:1058E00070B5037F012B63D0012303770223437735
:1058F0003AB94B7813F0100F03D003F0EF030A33DB
:105900004B700E460446002A30D1C878FFF7DCFF02
:1059100005047078FFF7D8FF45EA0025B078FFF757
:10592000D3FF0543307845EA40352368CA225A62DE
:10593000236853225A622046FFF755FF064600BBF4
:1059400022681D4B2B4053602268D36823F08003EC
:10595000D36023689B6813F0200F1BD02368FF22BD
:105960005A62012363770023237722E0C8784D78B9
:105970002D0245EA004588780543087845EA403518
:10598000D3E72368FF225A62042363770023237737
:1059900001260EE02046FFF70DFF0028DED0236829
:1059A000FF225A620423637700232377012600E055
:1059B0000226304670BD00BF3FFFFF00F8B5037FF1
:1059C000012B75D00E46044601230377022343774B
:1059D000002A44D103689B6813F0400F01D10023D3
:1059E0000B733078FFF770FF05047078FFF76CFFDA
:1059F00045EA0025B078FFF767FF0543307B45EAAD
:105A000000452368CA225A62236853225A622046FC
:105A1000FFF7E9FE0746002833D12268264B2B40CA
:105A200013602268936823F48023936021688B6855
:105A300032697069024313438B602268D36823F094
:105A40008003D36023689B6813F0200F22D0236863
:105A5000FF225A62012363770023237729E003683A
:105A60009B6813F0400F01D100230B7330787578D9
:105A70002D0245EA0045B0780543307B45EA0045F4
:105A8000BFE72368FF225A6204236377002323774A
:105A900001270EE02046FFF78DFE0028D7D02368AF
:105AA000FF225A620423637700232377012700E053
:105AB00002273846F8BD00BF7F7F7F00F8B5037F1F
:105AC000012B00F0A9800D46044601230377022331
:105AD0004377002A4DD103689B6813F0400F01D132
