:020000040800F2
:1000000000000520C5F50008211E0008231E000879
:10001000251E0008271E0008291E000800000000F9
:1000200000000000000000000000000031AF0008E8
:100030002B1E000800000000D1AF00082D1E000894
:1000400015F6000815F6000815F6000815F6000864
:1000500015F6000815F6000815F6000815F6000854
:1000600015F6000815F6000815F6000815F6000844
:1000700015F6000815F6000815F6000815F6000834
:1000800015F6000815F6000815F6000815F6000824
:1000900015F6000815F6000815F6000815F6000814
:1000A00015F6000815F6000815F6000815F6000804
:1000B00015F6000815F6000815F6000815F60008F4
:1000C00015F6000815F6000815F6000815F60008E4
:1000D00015F6000815F6000815F6000815F60008D4
:1000E00015F6000815F6000815F6000815F60008C4
:1000F00015F6000815F6000815F6000815F60008B4
:1001000015F6000815F6000815F6000815F60008A3
:1001100015F6000815F60008351E000815F600084B
:1001200015F6000815F6000815F6000815F6000883
:10013000111E0008451E000815F6000815F60008F7
:1001400015F6000815F6000815F60008551E0008FB
:1001500015F6000815F60008011E000815F600083F
:1001600015F6000815F6000815F6000815F6000843
:1001700015F6000815F6000815F600080000000046
:1001800015F6000815F6000815F6000815F6000823
:1001900015F6000815F6000815F6000815F6000813
:1001A000651E000815F60008751E000815F6000803
:1001B00015F6000815F6000815F6000815F60008F3
:0801C00015F6000815F6000811
:1001D00010B5054C237833B9044B13B10448AFF381
:1001E00000800123237010BDC40000200000000027
:1001F000D005010808B5034B1BB103490348AFF311
:10020000008008BD00000000C8000020D0050108E3
:1002100001F0FF01102A2BDB10F0070F08D010F8B7
:10022000013B013A8B422DD010F0070F42B3F6D1BB
:10023000F0B441EA012141EA014122F007047FF0D4
:1002400000070023F0E80256083C85EA010586EA2B
:10025000010685FA47F5A3FA87F586FA47F6A5FA67
:1002600087F68EB9EED1F0BC01F0FF0102F0070273
:1002700032B110F8013B013A83EA010313B1F8D11E
:100280000020704701387047002D06BF35460338FF
:10029000073815F0010F07D1013015F4807F02BF38
:1002A000013015F4C03F0130F0BC0138704700BF89
:1002B00053B94AB9002908BF00281CBF4FF0FF31CD
:1002C0004FF0FF3000F072B9ADF1080C6DE904CECB
:1002D00000F006F8DDF804E0DDE9022304B0704721
:1002E0002DE9F047089E04468846002B4BD18A42F0
:1002F000154667D9B2FA82F24AB1C2F1200701FA73
:1003000002F320FA07F7954047EA030894404FEAC2
:10031000154E230CB8FBFEF71FFA85FC0EFB178861
:1003200043EA084307FB0CF1994209D9EB1807F19E
:10033000FF3080F01B81994240F21881023F2B442C
:100340005B1AA4B2B3FBFEF00EFB103344EA034485
:1003500000FB0CFCA44509D92C1900F1FF3380F0F7
:100360000781A44540F2048102382C4440EA07404A
:10037000A4EB0C0400271EB1D4400023C6E90043BF
:100380003946BDE8F0878B4209D9002E00F0EB809A
:100390000027C6E9000138463946BDE8F087B3FAC0
:1003A00083F7002F47D18B4202D3824200F2FA80BA
:1003B000841A61EB030301209846002EE0D0C6E9C1
:1003C0000048DDE702B9FFDEB2FA82F2002A40F00F
:1003D0008F80491B4FEA154E1FFA85F80127B1FBA4
:1003E000FEFC230C0EFB1C1143EA014308FB0CF13D
:1003F000994207D9EB180CF1FF3002D2994200F272
:10040000CD808446591AA3B2B1FBFEF00EFB101446
:1004100043EA044408FB00F8A04507D92C1900F171
:10042000FF3302D2A04500F2B6801846A4EB0804C0
:1004300040EA0C409FE7C7F1200CBB4022FA0CFEBB
:100440004EEA030E01FA07F420FA0CF521FA0CF338
:100450004FEA1E482543B3FBF8F92C0C08FB19336F
:100460001FFA8EFA44EA034309FB0AF49C4202FA9B
:1004700007F200FA07F10BD91EEB030309F1FF3075
:1004800080F087809C4240F28480A9F10209734485
:100490001B1BADB2B3FBF8F008FB103345EA034475
:1004A00000FB0AFAA24508D91EEB040400F1FF3351
:1004B0006BD2A24569D90238744440EA0940A0FBD6
:1004C0000289A4EB0A044C45C2464B4654D351D092
:1004D000002E69D0B1EB0A0564EB030404FA0CFCAE
:1004E000FD40FC404CEA0505C6E90054002747E7FB
:1004F000C2F1200320FA03F7954001FA02F021FA35
:1005000003F34FEA154E3843010CB3FBFEF71FFA15
:1005100085F80EFB173341EA034107FB08F38B42D2
:1005200004FA02F407D9691807F1FF3C2FD28B4275
:100530002DD9023F2944CB1A81B2B3FBFEF00EFB4A
:10054000103341EA034100FB08F38B4207D96918D5
:1005500000F1FF3C17D28B4215D902382944C91A41
:1005600040EA07473BE73746304609E70746E7E6F4
:100570001846FBE64145ABD2B8EB020A69EB0E0226
:1005800001381346A4E76046E9E7184695E7674651
:10059000D1E781467CE702382C4447E7ACF1020CF6
:1005A0002B442FE7384608E73746E9E6704700BF97
:1005B000054B064A1A6000225A609A60DA601A6196
:1005C0005A619A61704700BF548A0020002C014094
:1005D0002DE9F04F91B09A4B1A6B42F010021A635A
:1005E0001A6B02F010020092009A1A6B42F040025D
:1005F0001A631A6B02F040020192019A1A6B42F0E0
:1006000002021A631A6B02F002020292029A1A6B39
:1006100042F008021A631A6B02F008020392039A6E
:100620001A6B42F004021A631A6B02F0040204927D
:10063000049A1A6B42F001021A631A6B02F001026B
:100640000592059A1A6B42F400721A631A6B02F44F
:1006500000720692069A1A6B42F480721A631A6B41
:1006600002F480720792079A1A6B42F480621A634E
:100670001A6B02F480620892089A1A6B42F0200208
:100680001A631A6B02F020020992099A1A6B42F05F
:1006900080021A631B6B03F080030A930A9B0122FA
:1006A0002021684808F0AFFB00220C21664808F0C2
:1006B000AAFB01220821654808F0A5FB01224FF49E
:1006C0008051614808F09FFB00224FF400516048C0
:1006D00008F099FB0022C8215E4808F094FB4FF017
:1006E000080ACDF82CA000240C940D940BA95A48AC
:1006F00008F0F4F943F623430B934FF00208CDF8CA
:1007000030800D9403270E970A260F960BA95348A5
:1007100008F0E4F94FF480530B930C940D940BA95B
:100720004F4808F0DBF940230B93DFF840B1CDF8D8
:1007300030B00D940BA9434808F0D0F920230B9357
:1007400001250C950D940E940BA93E4808F0C6F9AE
:1007500041F20C030B930C950D940E940BA93A489F
:1007600008F0BCF94FF40059CDF82C900C940D947E
:100770000BA93C4808F0B2F9CDF82CA00C950D94CB
:100780000E940BA9314808F0A9F94FF0100ACDF8E2
:100790002CA00C940D940BA92A4808F09FF948F25C
:1007A00004030B930C940D940BA9294808F096F9B7
:1007B000CDF82C900C950D940E940BA9244808F0BC
:1007C0008DF9CDF82C90CDF830B00D940BA91E48C2
:1007D00008F084F9CDF82CA0CDF830800D940E9758
:1007E0000F960BA91A4808F079F9C8230B930C95BA
:1007F0000D940E940BA9174808F070F905230B937C
:10080000CDF830800D940E970F960BA9154808F07F
:1008100065F904230B930C940D940BA90D4808F073
:100820005DF928230B93CDF830800D940E970F9629
:100830000BA90D4808F052F911B0BDE8F08F00BFC8
:1008400000380240000C0240002002400028024014
:10085000001C024000180240001002400004024048
:100860000024024000080240000002400000121074
:1008700008B50EF08FFA4FF0404100200EF0D2F88C
:10088000144901200EF0CEF80EF0B6F900200EF05B
:1008900009F94FF0FF300EF049F94FF0FF300EF03C
:1008A00029F94FF0FF3101200EF00AF901200EF076
:1008B000F9F84FF0FF300EF039F94FF0FF300EF03D
:1008C00019F9FF2100200EF0F3F8FF2101200EF0AE
:1008D000EFF808BD00F807C008B500F0B5FF01F05B
:1008E00015F94FF47A700BF0A5FB0E480DF0C6FF1A
:1008F0000D480DF0C3FFFA200BF09CFB0B4B1B784F
:10090000022BF5D101220A490A480AF001F80146F2
:1009100018B909480DF0B2FFFEE708480DF0AEFF28
:10092000FEE700BF2C060108640D01081C0300202F
:100930004C060108E0000020580601086C0601087A
:10094000044B1B68DA6912F0800FF9D0C0B29862CC
:1009500000207047988C002008B500200EF0A2F807
:100960004FF0FF200EF0BAF8822396223621C020E5
:100970000EF0FAF801200EF095F808BD10B50EF053
:1009800039F884B20EF042F881B220460EF0A4FB92
:1009900008B9002010BD4FF0FF30FBE708B5026832
:1009A000034B9A4200D008BD08F0BCFCFBE700BF37
:1009B00000100040FEE7000000B585B01648174B58
:1009C00003604FF4803343600023836003618361DD
:1009D0000362C362124A8262C3600122C26103637E
:1009E000426103F09BF968B904230093012301934A
:1009F000002302936946084803F0BAF938B905B0F4
:100A00005DF804FB40F2F7110648FFF7D3FF40F210
:100A100001210448FFF7CEFF008C00200022014096
:100A20000100000F2006010808B50948094B0360C2
:100A3000002303714371436183610123036203F067
:100A4000E3FA00B908BD40F212210348FFF7B2FFF4
:100A5000308A0020003002402006010808B50C480A
:100A60000C4B0360002343608360C36003614361F8
:100A70008361036243628362C362036303F030FBFA
:100A800000B908BD40F229210348FFF793FF00BFDA
:100A9000488C0020000005502006010808B50F48CA
:100AA0000F4B0360002343608360C3608362C362B3
:100AB0000363436303F0A6FB28B90121074803F051
:100AC0002BFD28B908BD4FF40F710648FFF772FFE0
:100AD00040F241210348FFF76DFF00BFDC8D00208D
:100AE00000B002402006010800B589B01648174B37
:100AF00003600023436083600421C160102202610F
:100B0000402242614FF4C0728261C3614FF40062BF
:100B100002624FF4805242628362022301930722F1
:100B2000029203910492032205920693079369446B
:100B300003F0F6FD10B909B05DF804FB40F2245152
:100B40000348FFF737FF00BF9C8E0020400100A044
:100B50002006010808B51548154B0360154B436086
:100B6000002383600122C260036143618361C3612A
:100B7000036203F08FFF50B900210C4804F0D9F94B
:100B800050B90021094804F002FA50B908BD40F2FA
:100B900055210948FFF70EFF4FF417710648FFF77C
:100BA00009FF40F263210448FFF704FFE4890020B5
:100BB00000540040FFEAC0002006010808B51548AF
:100BC000154B0360154B4360002383600122C26014
:100BD000036143618361C361036203F05BFF50B94A
:100BE00000210C4804F0A5F950B90021094804F08F
:100BF000CEF950B908BD40F277210948FFF7DAFE77
:100C000040F27E210648FFF7D5FE40F285210448D8
:100C1000FFF7D0FE24880020005C0040FFEAC000FF
:100C20002006010800B58FB029482A4B0360002335
:100C300043608360C36003612822426109228261AC
:100C40003522C2610B22026240F21522426240F25A
:100C50001B12826240F23522C26240F21D12026310
:100C600080F8343080F8353080F8363004F086FA79
:100C700020BB002201924FF4F071029103924FF4D5
:100C8000887304930592FF20069007924FF4C0608A
:100C90000890072009904FF040400A900B910C9368
:100CA0008DF834208DF835208DF8362001A90848BC
:100CB00004F058FB38B90FB05DF804FB40F2A221F4
:100CC0000548FFF777FE40F2B6210348FFF772FEB2
:100CD000588B0020006801402006010808B50B4829
:100CE0000B4B0360FF234360012282600023C3603B
:100CF000026143618361C361036204F0EFFB00B9E9
:100D000008BD40F2CB210348FFF754FE108F0020AE
:100D1000001000A02006010800B593B03C483D4BF0
:100D20000360002343607F228260FF22C260036170
:100D30004361836104F06EFC00284BD100238DF8E1
:100D400030308DF831308DF832301093119301220C
:100D50000CA92F4804F02AFD002840D101228DF86B
:100D60002C208DF82D208DF82E2000238DF82F308B
:100D70000BA9274804F0ACFC002835D100238DF8DE
:100D800000308DF801308DF8023001930493059303
:100D900006930793089301228DF824204FF4807363
:100DA0000A9369461A4804F081FD10BB01228DF8B0
:100DB00024204FF400730A936946154804F076FD29
:100DC000E0B902220021124804F020FED8B913B085
:100DD0005DF804FB40F2EB210F48FFF7EBFD40F21A
:100DE000F7210D48FFF7E6FD40F201310A48FFF711
:100DF000E1FD40F213310848FFF7DCFD4FF4477185
:100E00000548FFF7D7FD40F223310348FFF7D2FD35
:100E1000088D0020002800402006010808B526485B
:100E2000264B0360002303634360C0224263836355
:100E3000C3638360036143618361214AC261C3600C
:100E400043628362C36208220264012242648364B3
:100E5000C364036543658365C265036604F026FECB
:100E600000BB1848184B0360002303630322426051
:100E7000C02242638363C363012282600361836192
:100E8000C36043628362C362082101644264836475
:100E9000C364036543658365C265036604F006FEAB
:100EA00028B908BD40F246310848FFF783FD40F2FB
:100EB00061310648FFF77EFD60890020045C014037
:100EC00000EE02009C870020245C014020060108FF
:100ED00008B50C484FF04023036000234360836053
:100EE000C360036143618361C361036243628362E0
:100EF00005F05EFF00B908BD40F285310248FFF7FA
:100F000059FD00BF148900202006010808B51148CA
:100F1000114B03604FF482734360002383604FF4EE
:100F20004072C260036143614FF400728261C36129
:100F30000362436283620722C2620363082343633E
:100F400005F06EFF00B908BD40F29F310348FFF77E
:100F500031FD00BF708800200038004020060108E5
:100F600000B59BB03748384B036000234360836073
:100F7000C36003614361836106F042F9002842D1F6
:100F80001AA94FF4805341F8103D2E4806F038FA64
:100F900000283DD12B4806F04CF900283DD1002314
:100FA00013931493159313A9264806F007FB002802
:100FB00038D160230C9300220D920E920F92109262
:100FC000119212920CA91F4806F070FB00282ED136
:100FD0000023019302930393049305934FF400526B
:100FE0000692079308934FF0007209920A930B93AD
:100FF00001A9144806F00EFBF0B9124801F0F0FA0E
:101000001BB05DF804FB40F2B6311048FFF7D2FC8C
:101010004FF46F710D48FFF7CDFC40F2C1310B4822
:10102000FFF7C8FC40F2C9310848FFF7C3FC40F2A3
:10103000D5310648FFF7BEFC40F2E5310348FFF723
:10104000B9FC00BF288D00200000014020060108E7
:1010500000B58FB025484FF0804303600023436004
:101060008360C3600361836106F0CAF828BB0EA9E0
:101070004FF4805341F8103D1C4806F0C1F908BBFD
:101080001A4806F0D6F810BB00230793099307A966
:10109000164806F093FAF8B96023009300220192F3
:1010A000029204926946114806F000FBC8B90F4845
:1010B00001F096FA0FB05DF804FB4FF47F710C4815
:1010C000FFF778FC40F202410948FFF773FC40F259
:1010D00007410748FFF76EFC40F20E410448FFF756
:1010E00069FC40F217410248FFF764FC1C8E0020A7
:1010F0002006010800B58FB02548264B0360002369
:1011000043608360C3600361836106F079F828BBA4
:101110000EA94FF4805341F8103D1D4806F070F9B8
:1011200008BB1B4806F085F810BB00230793099302
:1011300007A9174806F042FAF8B960230093002285
:101140000192029204926946114806F0AFFAC8B9BA
:101150000F4801F045FA0FB05DF804FB40F22E4154
:101160000D48FFF727FC40F234410B48FFF722FC03
:1011700040F239410848FFF71DFC4FF488610648EA
:10118000FFF718FC40F249410348FFF713FC00BF8A
:10119000188B0020000400402006010800B58FB025
:1011A0002548264B0360002343608360C3600361CE
:1011B000836106F025F830BB0EA94FF4805341F847
:1011C000103D1D4806F01CF910BB1B4806F031F815
:1011D00018BB00230793099307A9174806F0EEF9F7
:1011E00000BB6023009300230193029304930C221D
:1011F0006946114806F05AFAC8B90F4801F0F0F9EB
:101200000FB05DF804FB4FF48C610D48FFF7D2FB83
:1012100040F266410A48FFF7CDFB40F26B410848B7
:10122000FFF7C8FB40F272410548FFF7C3FB40F2ED
:101230007B410348FFF7BEFBD88A0020000C00402A
:101240002006010800B589B01848194B0360002337
:1012500043608360C36003614361836105F0D0FF35
:10126000A0B908A94FF4805341F8103D0F4806F08B
:10127000C7F880B9002301930293039301A90B4897
:1012800006F09CF960B909B05DF804FB40F2AB418F
:101290000848FFF78FFB40F2B1410648FFF78AFB91
:1012A00040F2B9410348FFF785FB00BFD488002016
:1012B000000401402006010800B589B01348144B12
:1012C0000360002343608360C3600361836105F0B2
:1012D000B0FF80B96023019300220292039205922D
:1012E00001A90A4806F0E2F950B9084801F078F976
:1012F00009B05DF804FB40F2CC410648FFF75AFB09
:1013000040F2D5410348FFF755FB00BF5C8E00203B
:10131000001800402006010808B50C480C4B03607B
:101320004FF4E133436000238360C36003610C2208
:1013300042618361C3610362436206F0BAFC00B993
:1013400008BD40F2EC410348FFF734FB988C0020C5
:10135000001001402006010808B50C480C4B036042
:101360004FF4E133436000238360C36003610C22C8
:1013700042618361C3610362436206F09AFC00B973
:1013800008BD40F201510348FFF714FB688D0020AF
:10139000001401402006010800B585B00F48104B2D
:1013A0000360002343608360C360836105F028FF0E
:1013B00050B900230193039301A9084806F0FEF8F1
:1013C00038B905B05DF804FB40F28F410548FFF7DE
:1013D000F1FA40F296410348FFF7ECFAD08E002074
:1013E000001400402006010800B5B5B0474B1A6C48
:1013F00042F080521A641B6C03F080530093009BF0
:10140000434B1A6842F440421A601B6803F440439D
:101410000193019B092328934FF4803329930123DF
:101420002D9302232E934FF480022F921922309293
:101430004FF4C872319232930823339328A806F0F0
:101440006BFC00284ED107F023FF00284FD10F235B
:10145000239302232493002325934FF4A053269330
:101460004FF480532793062123A806F093FE00280B
:1014700042D1284B029364230393022306930493DF
:101480000593C023079304230993089301230A9328
:101490000B930C934FF400330D934FF400730E93A2
:1014A00000231293139318931B931D934FF0006224
:1014B0002192229302A806F063FF10BB06F01CFFE6
:1014C000154BA3FB0030800902F078FD042002F0E8
:1014D0008BFD00220F214FF0FF3002F031FD35B0BF
:1014E0005DF804FB4FF4D0710C48FFF763FA40F24B
:1014F000A7110A48FFF75EFA40F2B5110748FFF757
:1015000059FA4FF4E9710548FFF754FA00380240E0
:10151000007000406848B101D34D621020060108F8
:1015200000B587B007F0F2FEFFF75EFFFFF750F857
:10153000FFF742FAFFF778FAFFF790FAFFF7AEFAF3
:10154000FFF7D2FAFFF706FBFFF738FBFFF76AFB5E
:10155000FFF7C4FBFFF7E0FBFFF760FCFFF728F89D
:10156000FFF7B6FCFFF7D2FCFFF7FAFCFFF770FDC0
:10157000FFF7C0FDFFF712FEFFF764FEFFF79CFECA
:10158000FFF7CAFEFFF7E8FEFFF706FF0E480DF073
:1015900007F90E480DF072F90D480EF0B7F9FFF794
:1015A00067F9FFF7D9F9FFF7E9F901AC094D0FCD5C
:1015B0000FC42B682360002101A80AF0C1FF064B6D
:1015C00018600AF0A5FFFEE7988C00208C06010841
:1015D000B8060108E80501082088002008B5134670
:1015E0000A460146024805F045F800B1012008BD51
:1015F000548A002008B513460A460146024805F001
:10160000C1F800B1012008BD548A002008B5034884
:1016100005F08AFB043818BF012008BD548A002059
:1016200008B50146014805F01DFB08BD548A00209D
:1016300008B500F0FDF808BD00B583B001238DF8B2
:10164000073000F039F910B900238DF807309DF804
:10165000070003B05DF804FB10B5FFF7EDFF0128AC
:1016600002D00224204610BD074805F0E2FA0446E5
:101670000028F7D14FF40061034805F005FB00286E
:10168000F0D00124EEE700BF548A002008B5074BD4
:1016900001221A70FFF7BAFF20B9044A137803F049
:1016A000FE031370014B187808BD00BF0000002036
:1016B00010B582B00446124B01221A700AF02DFFB9
:1016C00018B90F4B187802B010BDFFF7C5FF88B1ED
:1016D0000B4B1B78DBB2012BF3D00A4A6B4692E826
:1016E000030083E80300002118460AF0CDFF064BF3
:1016F0001860E6E72046FFF7C9FF014B1870E7E7DF
:1017000000000020FC0501081003002008B5FFF7C9
:10171000BDFF08BD10B584B0084611461A46FFF754
:101720005DFF10B1012004B010BD47F23052104BE4
:10173000196801A80AF0E4FF019B102B01D00120D9
:10174000F1E7029B012B01D00120ECE70AF0EEFE4D
:1017500047F2305404440AF0E9FEA04205D2FFF7F4
:1017600055FF0028F7D10020DDE70120DBE700BFAF
:101770001003002010B584B0084611461A46FFF742
:1017800039FF10B1012004B010BD47F23052104BA8
:10179000196801A80AF0B4FF019B102B01D00120A9
:1017A000F1E7029B022B01D00120ECE70AF0BEFE1C
:1017B00047F2305404440AF0B9FEA04205D2FFF7C4
:1017C00025FF0028F7D10020DDE70120DBE700BF7F
:1017D00010030020154B1B7813F0010F21D110B519
:1017E00088B0144603291ED8DFE801F002050C1367
:1017F000002008B010BD6846FFF712FF069B23606B
:101800000020F6E76846FFF70BFF079B23800020C8
:10181000EFE76846FFF704FF079B5B0A23600020A1
:10182000E7E7032070470420E3E700BF0000002043
:1018300008B54FF0FF320121024B18680AF02CFF67
:1018400008BD00BF1003002070B5114C214611489F
:1018500009F0AEF9104B1870104D2946104809F0E8
:10186000A7F9104B187021460F480DF0C7FF294605
:101870000E480DF0C3FF0E4E00222946304609F0F7
:1018800001F800222146304608F0FCFF70BD00BF81
:10189000648F0020D40601085C8F0020608F002038
:1018A0000C07010840980020E8060108FC06010822
:1018B000049600200020704708B54FF400510448FA
:1018C00007F09AFA08B9002008BD0120FCE700BF24
:1018D000000802400020704708B5014603480CF09C
:1018E00017FB08B9012008BD0020FCE72CC9002027
:1018F00010B58EB01446032924D8DFE801F00205A4
:101900000E1800200EB010BD01AA014611480CF0BF
:1019100012FBC8B9029B2360F4E701AA01460D48F7
:101920000CF009FB90B9BDF80C302360EAE701AA7E
:10193000014608480CF0FFFA50B9BDF80C305B0ABC
:101940002360DFE70420DDE70120DBE70120D9E7A2
:101950000120D7E72CC9002010B590B004460093B1
:101960000B46014610480CF008FB10B9002010B0DF
:1019700010BD03AA21460C480CF0DDFA9DF8193081
:10198000282B05D03A2B03D0042B01D00120EEE701
:1019900006480DF033FF06480DF030FF0A200DF029
:1019A00045FF0320E3E700BF2CC900202007010802
:1019B0002807010810B590B0044600930B46014675
:1019C00017480CF024FB10B9002010B010BD03AA7A
:1019D000214613480CF0AFFA9DF81930272B13D08D
:1019E0000ED9282B01D03A2B0CD10E480DF006FF52
:1019F0000D480DF003FF0A200DF018FF0320E4E767
:101A0000042BF2D00120E0E706480DF0F7FE07486E
:101A10000DF0F4FE0A200DF009FF0220D5E700BF0B
:101A20002CC90020200701082807010840070108E9
:101A3000704770477047000008B5024B18680AF0FD
:101A4000E9FD08BD1403002003460D4A126862B187
:101A50000B4A10680B4A12681268A2F50052034440
:101A6000934206D8064A13607047054A064911603A
:101A7000EEE7064B0C221A604FF0FF30704700BFB4
:101A80001803002008ED00E028D1002044D00020F9
:101A900070B51646002405E04D1C0878FEF750FF8F
:101AA00001342946B442F7DB304670BD4FF0FF30B9
:101AB00070474FF400534B6000207047012070477F
:101AC0000020704770B50D461646002404E0AFF3C1
:101AD0000080287001340135B442F8DB304670BD17
:101AE00004290CD0052902D0022904D07047064BE6
:101AF00003221A707047044B02221A707047024B7F
:101B000001221A70F2E700BF1C03002010B5074C39
:101B10000122074920460AF0A3FF064920460AF0A1
:101B2000DFFF20460BF074F810BD00BF2CC9002069
:101B3000E11A00080C0000200368B3F1A04F00D0A8
:101B4000704710B588B04FF4E05303930223049319
:101B500000240594032306930A23079303A910483E
:101B600006F0BCFF0F4B5A6B42F080025A635A6B6F
:101B700002F080020192019A5A6C42F480425A6447
:101B80005B6C03F480430293029B224605214320B1
:101B900002F0D6F9432002F005FA08B010BD00BFEC
:101BA000000002400038024008B5D0F8BC020BF03B
:101BB0003CF808BD08B5D0F8BC020BF0E0F908BD50
:101BC00008B5D0F8BC020BF0F5F908BD08B5D0F89F
:101BD000BC020BF019FA08BD08B5D0F8BC020BF036
:101BE0002DF808BD08B5D0F8BC020BF02BF808BDE5
:101BF00090F8C033012B01D00020704710B5044687
:101C00001048C0F8BC42C4F8C4034FF0A0430360BE
:101C1000082383600323C3600023036102228261DF
:101C2000C36100F01DFF40B9064801F02BFC0146DE
:101C300020460AF0F7FF002010BDEE210248FEF713
:101C4000B9FEF1E700CD00206007010808B5D0F823
:101C5000C40301F0DDFB18B1022803D0022008BD47
:101C60000020FCE70120FAE708B5D0F8C40301F032
:101C7000E5FB18B1022803D0022008BD0020FCE7D4
:101C80000120FAE708B5D0F8C40301F000FC18B150
:101C9000022803D0012008BD0020FCE70220FAE75B
:101CA00008B5D0F8C40301F0DBFB18B1022803D05B
:101CB000022008BD0020FCE70120FAE708B5D0F8B3
:101CC000C40301F0D9FB08BD10B584B0D0F8C4033B
:101CD000BDF8204002949DF81C4001949DF81840E6
:101CE000009400F05BFE20B1022804D0022004B072
:101CF00010BD0020FBE70120F9E708B5D0F8C403C8
:101D000000F09CFE18B1022803D0022008BD00207C
:101D1000FCE70120FAE710B584B0D0F8C4039DF8C1
:101D200024400394BDF820400294079C01949DF840
:101D30001840009400F0D6FE20B1022804D0022002
:101D400004B010BD0020FBE70120F9E708B5D0F88A
:101D5000C40301F08AFB08BD08B590F8C033012B1D
:101D600004D0C82007F0F0FA002008BD084600F0B3
:101D700033F8F6E710B4D0F8C43301EB8104E00087
:101D80000446184490F83B0048B901EB8101C800B3
:101D9000034483F8512000205DF8044B704723442E
:101DA00083F85020F7E7D0F8C43301EB8100C2007C
:101DB00010461A4492F83B2032B901EB8101CA0067
:101DC000134493F851007047034493F85000704750
:101DD00008B507F0B9FA08BD08B528B100222021DE
:101DE000024807F010F808BD0122F8E7000C024095
:101DF00008B502480CF042FDFEE700BF700701087D
:101E000008B5024B186F07F053F908BDBC840020D9
:101E100008B5024BD86E07F04BF908BD408500208D
:101E20007047FEE7FEE7FEE7FEE7704708B50AF0F9
:101E3000B7FC08BD08B5024805F08EF808BD00BF24
:101E4000C0CF002008B5024800F024FD08BD00BF47
:101E500014B1002008B5024801F036FA08BD00BFF1
:101E600000CD002008B5024803F009FA08BD00BF04
:101E7000588B002008B5024802F0AFFA08BD00BF39
:101E8000DC8D00202C4B1B6803B17047F0B587B088
:101E9000294B01221A60294B9A6B42F001029A6386
:101EA0009B6B03F001030093009B4FF68373019338
:101EB0000227029700260396032504950C24059417
:101EC00001A91F4806F00AFE48F233130193029756
:101ED00003960495059401A91A4806F0FFFD4CF2FB
:101EE00003730193029703960495059401A916487C
:101EF00006F0F4FD4FF63F03019302970396049515
:101F0000059401A9114806F0E9FD282301930297E1
:101F100003960495059401A90D4806F0DFFD0823FA
:101F20000193029703960495059401A9094806F0C8
:101F3000D5FD07B0F0BD00BF2003002000380240EF
:101F40000010024000180240000C02400014024041
:101F5000001C02400008024000B583B0214B1A6CFF
:101F600042F080521A641A6C02F080520092009A79
:101F70005A6C42F480425A645B6C03F480430193D0
:101F8000019B032001F0CAFF002211466FF00B00F5
:101F900001F0D6FF002211466FF00A0001F0D0FFD9
:101FA000002211466FF0090001F0CAFF002211461D
:101FB0006FF0040001F0C4FF002211466FF003002F
:101FC00001F0BEFF00220F216FF0010001F0B8FF09
:101FD00000220F214FF0FF3001F0B2FF03B05DF897
:101FE00004FB00BF003802400268134B9A4200D045
:101FF000704730B587B003F58B335A6C42F480627A
:102000005A645B6C03F480630093009B4FF4F863A5
:102010000193032502950024039401A9074806F0C3
:102020005DFD012301930295039401A9044806F084
:1020300055FD07B030BD00BF002201400014024032
:10204000000002400268094B9A4200D0704782B0FB
:1020500003F500631A6B42F480521A631B6B03F49E
:1020600080530193019B02B0704700BF00300240D3
:102070000268244B9A4200D0704770B586B0224B5C
:102080005A6B42F001025A635B6B03F00103009349
:10209000009B60230193022602960024039404947B
:1020A0000D25059501A9194806F018FD082301938F
:1020B000029603940494059501A9154806F00EFDB7
:1020C0004FF400730193029603940494059501A9BB
:1020D000104806F003FD4FF4BC43019302960394AD
:1020E0000494059501A90C4806F0F8FC50230193CF
:1020F000029603940494059501A9084806F0EEFCA5
:1021000006B070BD000005500038024000100240CB
:10211000000C024000180240001C02400000024077
:1021200002680E4B9A4200D0704700B583B0A3F509
:10213000F0431A6B42F400021A631B6B03F40003B2
:102140000193019B002205215A2001F0F9FE5A203B
:1021500001F028FF03B05DF804FB00BF00B00240AF
:1021600000B589B003681E4A934205D01D4A9342C8
:102170001CD009B05DF804FB4FF4407303931223A5
:10218000049301230593002306930423079303A9D3
:10219000154806F0A3FC154B1A6C42F400121A64A1
:1021A0001B6C03F400130193019BE2E74FF4C0732F
:1021B000039312230493012305930323069304231B
:1021C000079303A90A4806F089FC084B1A6C42F4ED
:1021D00000021A641B6C03F400030293029BC8E71D
:1021E00000540040005C00400004024000380240FF
:1021F000001C024008B503680F4A934203D00F4AFF
:1022000093420CD008BD02F5F232136C23F4001394
:1022100013644FF440710A4806F050FDF2E702F5EE
:10222000EE32136C23F4000313644FF4C0710548BD
:1022300006F044FDE6E700BF00540040005C0040AB
:1022400000040240001C024002682A4B9A4200D05F
:10225000704770B586B003F550435A6C42F0806207
:102260005A645B6C03F080630093009B102301931E
:10227000022502950024039404940E26059601A9D4
:102280001D4806F02BFC4EF6FF7301930295039454
:102290000494059601A9194806F020FCF723019340
:1022A000029503940494059601A9154806F016FCBE
:1022B0004FF48053019302950394049409230593EA
:1022C00001A9104806F00AFC4FF446430193029519
:1022D00003940494059601A90B4806F0FFFB2246DF
:1022E0000521582001F02CFE582001F05BFE06B0BD
:1022F00070BD00BF00680140001002400024024091
:102300000028024000180240002002400268254BCD
:102310009A4200D070472DE9F04387B0224B9A6B68
:1023200042F002029A639B6B03F002030093009B4E
:102330004FF00409CDF8049002260296002503957B
:1023400003240494092705970DEB0901174806F0AB
:10235000C5FB402301930296039504940A23059339
:10236000DFF850800DEB0901404606F0B7FBCDF8D1
:10237000049002960395049405970DEB09014046DD
:1023800006F0ACFB4FF4605301930296039504945E
:1023900005970DEB0901064806F0A0FB07B0BDE864
:1023A000F08300BF001000A000380240001002407F
:1023B000000C0240000402400268054B9A4200D023
:1023C0007047044A136F43F400431367F8E700BFF4
:1023D00000280040003802400268164B9A4200D0A4
:1023E0007047F0B587B003F586335A6C42F400624B
:1023F0005A645B6C03F400630093009B4FF4F85342
:1024000001930227029700260396032504950C24C6
:10241000059401A9084806F061FB04230193029783
:102420000396049505940DEB0301044806F056FB52
:1024300007B0F0BD002C014000080240000C024033
:102440000368B3F1402F00D0704700B587B003F5A3
:10245000FC331A6C42F480321A641B6C03F4803330
:102460000093009B80230193022302930023039394
:1024700004930823059301A9024806F02FFB07B037
:102480005DF804FB000C02400268154B9A4200D034
:10249000704770B586B003F500331A6C42F4804281
:1024A0001A641B6C03F480430093009B0225019582
:1024B00002950024039404940526059601A9094871
:1024C00006F00CFB4FF440430193029503940494EF
:1024D000059601A9044806F001FB06B070BD00BFD7
:1024E00000380040002002400004024086B003682B
:1024F0002A4A934219D0B3F1804F22D0284A9342FE
:102500002BD0284A934233D0274A93423BD0274AC4
:10251000934214D1264B5A6C42F002025A645B6C0F
:1025200003F002030593059B09E0214B5A6C42F02E
:1025300001025A645B6C03F001030093009B06B038
:10254000704703F50E331A6C42F001021A641B6CDB
:1025500003F001030193019BF1E7154B1A6C42F064
:1025600002021A641B6C03F002030293029BE6E76B
:102570000F4B1A6C42F008021A641B6C03F008033C
:102580000393039BDBE70A4B1A6C42F020021A64A8
:102590001B6C03F020030493049BD0E70000014070
:1025A00000040040000C0040001400400004014002
:1025B000003802400268094B9A4200D0704782B04E
:1025C00003F508331A6C42F040021A641B6C03F0E6
:1025D00040030193019B02B0704700BF0018004008
:1025E00000B587B003682C4A93420ED0B3F1804FF8
:1025F0001AD02A4A934226D0294A934230D0294AF7
:1026000093423AD007B05DF804FB4FF48073019316
:10261000022302930023039304930123059301A94A
:10262000214806F05BFAEDE74FF4004301930223E3
:1026300002930023039304930123059301A91A48ED
:1026400006F04CFADEE710230193022302930022E6
:1026500003920492059301A9144806F03FFAD1E7CA
:102660000123019302230293002203920492059313
:1026700001A90F4806F032FAC4E740230193022370
:1026800002930023039304930923059301A90948A6
:1026900006F024FAB6E700BF000001400004004045
:1026A000000C0040001800400000024000040240FE
:1026B00000200240001C024070B588B00368224A26
:1026C000934204D0214A934224D008B070BD204BDD
:1026D0005A6C42F010025A645B6C03F010030193D1
:1026E000019B8023039302260496002405940694FC
:1026F0000725079503A9174806F0F0F94FF4007372
:102700000393049605940694079503A9124806F0CE
:10271000E5F9DAE70E4B5A6C42F020025A645B6C22
:1027200003F020030293029BC0230393022304932C
:1027300000230593032306930823079303A907485F
:1027400006F0CCF9C1E700BF0010014000140140C1
:10275000003802400004024000000240000802402D
:1027600008B5FFF78FFB08BD10B588B004460268B6
:10277000224B9A4205D02268214B9A421FD008B0C2
:1027800010BD204B1B684BB91F4A516C41F400012E
:102790005164526C02F400020192019A0133194A09
:1027A0001360F023039302230493002305930693FD
:1027B0000A23079303A9154806F090F9DBE7114BAC
:1027C0001B684BB9104A516C41F400015164526CC2
:1027D00002F400020292029A01330A4A13604FF493
:1027E00080630393022304930023059306930A2333
:1027F000079303A9064806F071F9C0E7045C01409D
:10280000245C0140240300200038024000200240E4
:102810000018024000B589B000220146362001F0C0
:102820008FFB362001F0BEFB154B1A6C42F01002F4
:102830001A641B6C03F010030193019B02A903A807
:1028400005F080FD05F05EFD43000E48A0FB03236C
:102850009B0C013B0C480D4A026040F2E732C2601B
:10286000436000230361836004F0CAFC18B10120B7
:1028700009B05DF804FB044804F05EFBF8E700BF14
:102880000038024083DE1B43C0CF00200010004010
:102890007047704710B50446036841F214029A5815
:1028A00012F0400F11D141F214029B5813F0010FA6
:1028B00019D1226841F214034FF48031D1502268BB
:1028C000D35813F4004F1BD110BDFFF7B5F82268A1
:1028D00041F214034021D150012384F844300023F5
:1028E00084F84530E5E7FFF7D3FF2168012341F283
:1028F00014028B5084F84430002384F84530D8E724
:102900002046FFF7C6FF226841F214034FF400414E
:10291000D150012384F84430002384F84530D3E7B4
:10292000F8B50668346A04F00F07C4F34343C4F3F0
:102930000A14022B2ED16CB307EB8702D300034499
:10294000596C39B305462246304600F05FFEBA00A6
:102950003A44D3002B445A6C22445A64DA6C224421
:10296000DA6406EB4713D3F810150B4A0A408AB114
:10297000D3F8002522F0804242F00042C3F800253F
:10298000BB00D919CA002A4492F8503083F00103E1
:1029900082F85030F8BD00BF0000F81FF0B585B0D8
:1029A0009DF828509DF82C60BDF8307090F8B84222
:1029B000012C41D0012480F8B8424FEA810C8C44AC
:1029C0004FEACC0404444FF0000C84F83DC084F876
:1029D0003830A4F8407084F8391084F83F6002F071
:1029E0007F0C84F83AC012F0800F1BD101EB810CF0
:1029F0004FEACC0404444FF0000C84F83BC004467A
:102A000001EB810C4FEACC00204480F83C50029747
:102A100001960095206800F0F5FE002384F8B83296
:102A200005B0F0BD01EB810C4FEACC0404444FF03B
:102A3000010C84F83BC0E2E70220F1E790F8B832DD
:102A4000012B0BD010B50446012380F8B832006882
:102A500000F060FF002084F8B80210BD022070472B
:102A600000283DD0F0B58BB0064690F8B93293B34C
:102A7000032386F8B932306800F070FD344654F80C
:102A800010CB6D460FCC0FC50FCC0FC594E80300DB
:102A900085E80300371D97E80E00604600F01AFD38
:102AA0000121306800F060FD344654F810CB6D46CB
:102AB0000FCC0FC50FCC0FC594E8030085E80300C9
:102AC00097E80E00604600F01FFE012386F8B93239
:102AD00000200BB0F0BD80F8B832FFF72DF8C7E743
:102AE00001207047F8B59DF81870BDF820608D0082
:102AF0000D44EC00044484F83B2084F83F306FB967
:102B000001EB8105EC000444032584F84250032BBB
:102B100000F29580DFE803F00A8C2E5D01EB810561
:102B2000EC000444022584F84250F0E7012F08BF6E
:102B3000002A40F0848036B901EB8102D3000344BF
:102B4000012283F8512001EB8102D300034493F862
:102B500051303BB901EB8102D3000344002283F8DA
:102B600042206CE001EB8102D3000344022283F88F
:102B7000422064E0B2B901EB8102D300034493F830
:102B800051303BB901EB8102D3000344002283F8AA
:102B9000422054E001EB8102D3000344022283F877
:102BA00042204CE001EB8102D300034493F8503003
:102BB0003BB901EB8102D3000344002283F8422099
:102BC0003DE001EB8102D3000344022283F842205E
:102BD00035E0B2B901EB8102D300034493F85130E0
:102BE0003BB901EB8102D3000344002283F8422069
:102BF00025E001EB8102D3000344022283F8422046
:102C00001DE001EB8102D300034493F850303BB93F
:102C100001EB8102D3000344002283F842200EE03E
:102C200001EB8102D3000344022283F8422006E034
:102C300001EB8102D3000344002283F842208A0082
:102C40005418E3000344079C5C649E64002483F8EA
:102C50005C40DC6483F8391083F85D401144CB009C
:102C600003F13801027C0144006800F0D3FEF8BD96
:102C700030B583B005460468D4F840340193D4F8E5
:102C800040340093009B23F02E030093019B13F02C
:102C9000020F07D0019B13F0010F28D1009B43F0D6
:102CA00002030093019B13F0080F13D0009B43F025
:102CB00008030093019B13F0040F34D0AB69022B7F
:102CC0001CD0EB68032B29D02846FEF785FF284649
:102CD000FEF770FF019B13F0200F03D0009B43F021
:102CE00020030093009BC4F8403403B030BDA369B7
:102CF00023F00053A361FEF75DFFCFE7019B03F4D0
:102D0000C023B3F5802F04D00121286800F09AFC7D
:102D1000DAE70221286800F095FCD5E74EF660223C
:102D2000C4F80424D0E72846FEF75CFFD4F840340A
:102D300023F02E03C4F840342A68936943F000530B
:102D40009361C7E7F8B506460D46076807EB4117DC
:102D500007F5A064A36813F0040F3CD00423A3601C
:102D6000E36843F00203E360A36813F4007F68D1D3
:102D7000A36813F0010F00F08D8033694BB1AA00F6
:102D80002A44D30033449A6C2169C1F31201521AC8
:102D9000DA64AA002A44D3003344012283F85D2078
:102DA00000219965A26093F83F20022A14BF0023F6
:102DB00001238A4208BF0123002B4ED1032A57D09A
:102DC000AB005919CA00324492F8503083F0010325
:102DD00082F85030F8BDA36813F0200F02D02023F2
:102DE000A360C1E7A36813F0080F17D1A36813F419
:102DF000806FB9D0E36843F00203E360006800F03D
:102E000089FD1023A36005EB8502D300334408221B
:102E100083F85D204FF48063A360A5E7E36843F087
:102E20000203E36001EB8102D3000344052283F82F
:102E30005D201023A3600823A360006800F06AFDF2
:102E400092E7E36843F00203E3602946306800F04C
:102E500061FD4FF40073A360BCE7E36843F0020335
:102E6000E3602946306800F055FD1023A360A7E712
:102E7000D7F8003543F00053C7F8003505EB85025D
:102E8000D3003344012283F85C2029463046FEF704
:102E90009DFE95E7A36813F0020F62D0E36823F06C
:102EA0000203E36005EB8502D300334493F85D3001
:102EB000012B20D0052B32D0082B18BF062B3ED17A
:102EC000AA002A44D30033449A6D01329A65032A3A
:102ED0002DD9AA002A44D300334400229A65042243
:102EE00083F85C20D7F8003523F0804343F000439B
:102EF000C7F8003506E005EB8502D3003344012214
:102F000083F85C200223A36005EB8502D3003344E1
:102F100093F85C2029463046FEF758FE5AE705EB49
:102F20008502D3003344052283F85C20EAE705EBF1
:102F30008502D3003344022283F85C20D2E7032BBE
:102F4000E0D105EB8502D3003344022283F85C20F4
:102F5000D7F8003523F0804343F00043C7F800352D
:102F6000D0E7A36813F0800F21D1A36813F0100FEE
:102F70003FF430AF05EB8502D3001A46334493F893
:102F80003F30032B2BD0022B14BF00220122002B39
:102F900014BF134601233BB105EB8502D300334434
:102FA00000229A6533694BB31023A36012E7E368EC
:102FB00043F00203E360AB005919CA003244916D3B
:102FC000013191652B44DA003244062382F85D30EA
:102FD0002946306800F09EFC8023A360FAE605EBEA
:102FE0008502D300334400229A65E36843F002036C
:102FF000E3602946306800F08DFCD5E705EB8502DB
:10300000D3003344032283F85D20E36843F00203D6
:10301000E3602946306800F07DFCC5E7F8B5036839
:1030200003EB411303F5A064A26812F0040F24D14E
:103030000E460546A26812F0200F25D02023A3607B
:1030400001EB8102D3001A46034493F83D30012B73
:1030500019D18B000244002182F83D103344DA007C
:103060000244022382F85C30E36843F00203E36029
:103070003146006800F04EFC05E00423A360E368DD
:1030800043F00203E360F8BDA26812F0400F34D1B0
:10309000A26812F4007F4AD1A26812F0010F51D148
:1030A000A26812F0080F62D1A26812F0100F6FD060
:1030B0008A000A44D300034400229A65032283F85D
:1030C0005D2093F83D306BB901EB8102D3000344DE
:1030D00093F83C3033B901EB8102D3000344012261
:1030E00083F83D20E36843F00203E360314628683B
:1030F00000F010FC1023A360C5E78B005918CA002C
:103100000244042182F85D10012182F83D1033440D
:10311000DA00024400239365E36843F00203E360AE
:103120003146006800F0F6FB4023A360ABE7E3689C
:1031300043F00203E360006800F0ECFB4FF400731F
:10314000A360A0E78F007A18D300034400229A6599
:10315000E36843F00203E360006800F0DBFB012357
:10316000A360B919C800284480F85D308BE70823B4
:10317000A360E36843F00203E360006800F0CAFB69
:1031800006EB8601C8002844052380F85D307AE705
:10319000A26812F0800F36D1A26812F4806F43D17A
:1031A000A26812F0020F3FF46EAFE26822F0020252
:1031B000E26001EB8101CA001146024492F85D20F1
:1031C000012A45D0032A62D0042A68D0052A6ED08D
:1031D000082A18BF062A44D1282101FB06018A6D5E
:1031E00001328A65032A68D90A46002191650421C3
:1031F00082F85C10D3F8002522F0804242F00042B1
:10320000C3F800252DE0E36843F00203E3600068A3
:1032100000F080FB06EB8601CB002B44062283F8EE
:103220005D208023A3602EE7E36843F00203E360A0
:10323000006800F06FFB1023A3604FF48063A3606D
:1032400006EB8601CB002B44082283F85D201AE7A9
:103250000B460344012283F85C2093F83F30022B95
:103260000CD00223A36006EB8602D3002B4493F814
:103270005C2031462846FEF7A9FC04E70B460344D0
:1032800093F8512082F0010283F85120E9E706EB20
:103290008602D3000344022283F85C20E1E706EBB8
:1032A0008602D3000344022283F85C20D9E7282356
:1032B00003FB060383F85C20D3E7282202FB060207
:1032C000022182F85C1095E7F8B5044605682846A7
:1032D00000F0B4F9012800D0F8BD206800F0AAF988
:1032E0000028F9D0206800F0A5F910F4001F03D0E1
:1032F00023684FF400125A61206800F09BF910F423
:10330000801F03D023684FF480125A61206800F0B8
:1033100091F910F0806F03D023684FF080625A61FA
:10332000206800F087F910F0020F02D02368022213
:103330005A61206800F07EF910F0005F25D1206806
:1033400000F078F910F0807F31D1206800F072F938
:1033500010F0080F2FD1206800F06CF910F0007FFA
:1033600030D1206800F066F910F0100FB4D0226858
:10337000936923F0100393612046FFF7D1FA226886
:10338000936943F010039361A6E7D5F8403423F026
:103390002E03C5F840342046FEF712FC01212068B8
:1033A00000F050F923684FF000525A61C7E72046F9
:1033B000FFF75EFCC9E72046FEF7F6FB236808220C
:1033C0005A61C8E7206800F0A0FA0746002604E02A
:1033D000F1B22046FFF722FE0136A368B34212D9AC
:1033E00006F00F0327FA03F313F0010FF4D005EBF7
:1033F0004613D3F8003513F4004FE9D0F1B220465C
:10340000FFF7A0FCE8E723684FF000725A61A8E7D5
:1034100038B590F8B832012B0ED00446012580F85B
:10342000B852006800F094F82946206800F049F985
:10343000002084F8B80238BD0220FCE790F8B832CA
:10344000012B0BD010B50446012380F8B832006878
:1034500000F08CFB002084F8B80210BD02207047F9
:1034600008B5006800F00EF908BD01EB8101CB0042
:10347000184490F85C00704701EB8101CB001844C0
:10348000C06C704708B5006800F0B7F908BD08B512
:10349000006800F0A7F908BD002301330C4A9342ED
:1034A00011D80269002AF8DA036943F001030361C5
:1034B00000230133064A934207D8026912F0010F34
:1034C000F7D100207047032070470320704700BFEA
:1034D000400D030084B010B5044603A880E80E0038
:1034E000089B012B1ED1A36B23F48033A363E268F6
:1034F000164B1340E360E36823F44013E3600F9B33
:10350000012B0AD02046FFF7C7FF069B012B14D0E2
:103510000020BDE8104004B07047E36843F4801316
:10352000E360EFE7E36843F04003E3602046FFF722
:10353000B3FF4FF48033A363E7E7A36843F00603C8
:10354000A360A36843F02003A360E1E7BFFFBDFFD2
:10355000836843F00103836000207047836823F091
:10356000010383600020704708B5C36823F0C0439F
:10357000C360012909D069B9C36843F08043C360BF
:10358000322005F0E1FE002008BDC36843F000537F
:10359000C360F5E70120F7E7890141F020010161EF
:1035A00000230133054A934205D8026912F0200F27
:1035B000F7D1002070470320704700BF400D030083
:1035C0001023036100230133054A934205D80269A1
:1035D00012F0100FF7D1002070470320704700BF92
:1035E000400D030070B49DF80C4064B903339D088E
:1035F00007E000EB023303F5805351F8046B1E60C3
:103600000134AC42F5D3002070BC704703329208FD
:10361000002393420CD210B400F58054246841F882
:10362000044B01339342F7D308465DF8044B7047CF
:10363000084670474269806910407047406900F051
:103640000100704710B400F58064D0F8003423F016
:103650000303C0F80034D0F8003401F00302134330
:10366000C0F80034012905D0022907D000205DF8F8
:10367000044B70474BF680336360F7E741F2707399
:103680006360F3E730B583B0044600250195D0F8B8
:1036900040340193019B23F02E030193019B43F4DB
:1036A0008073C0F84034642005F04EFE019B23F483
:1036B0008073C4F840340A2005F046FE284603B063
:1036C00030BD82B000230193D0F840340193019BB8
:1036D00023F02E030193019B13F4805F01D1012994
:1036E0000CD0019B13F4805F05D021B9019B23F41A
:1036F0008053C0F84034002002B07047019B43F46F
:103700008053C0F84034ECE784B038B5044605A8CF
:1037100080E80E0025460023C4F8003EA36B23F486
:103720000013A363079B032B0ED0D4F8003423F0BF
:103730000403C4F8003410212046FFF72DFF204673
:10374000FFF73EFF002213E0B4F1A04FEDD0D4F814
:10375000003443F00403C4F80034ECE705EB4213F3
:103760004FF0FF31C3F808150021C3F80C150132E2
:10377000069B9342F2D801212046FFF7A2FFC82002
:1037800005F0E2FD0023A3614FF0FF336361B4F164
:10379000A04F17D04FF40073636203F18073A362EC
:1037A0000D4BC4F80031089B1BB9A36943F010030B
:1037B000A361A269094B1343A3610020BDE838400F
:1037C00004B070478023636203F5C003A362044B17
:1037D000C4F80031E7E700BF0003E000080020A3C1
:1037E000E000400082B000230193D0F84034019300
:1037F0000198C0F3414002B0704700F580608068D6
:1038000080B27047F0B506469DF8184000EB4115B0
:1038100005F5A0604FF0FF378760032C64D8DFE820
:1038200004F00255021740F29D47C76012F0800F66
:1038300008D1B6F1A04F59D0C76847F06007C760FC
:1038400000200CE0C76847F48077C760002006E0DE
:1038500040F29D67C76012F0800F31D1002006F55D
:10386000806ED6F8187401F00F014FF0010C0CFABD
:1038700001F13943C6F81814B16941F00071B16122
:1038800012F0800F34D100269DF81410022932D096
:1038900000219B0503F0FE53D20202F4F0421343D1
:1038A000A20402F440221343BDF81C20C2F30A0212
:1038B000134333430B43C5F80035032C1ED0F0BD32
:1038C000C76847F48077C7600020C8E740F2252723
:1038D000C76012F0800F01D10020C0E7C76847F42D
:1038E000C077C7600020BAE70120B8E70020B6E73C
:1038F0004FF40046C8E74FF40031CAE7D5F8003569
:1039000043F00053C5F80035D9E700F58060406901
:1039100080B2704710B400EB411101F5A062D1F8FC
:103920000035C3F38143022B14BF00240124002B74
:1039300014BF234601235BB3D1F8003543F0804325
:10394000C1F80035C36A13F47F0F1AD1D1F80035DE
:1039500023F00043C1F80035D1F8003543F00043AF
:10396000C1F80035D1F8003523F40043C1F8003523
:1039700000230133B3F57A7F36D811680029F8DBCC
:1039800032E0D1F8003543F00043C1F800352BE0B8
:10399000D1F8003543F08043C1F80035D0F8103439
:1039A00013F47F0F1AD1D1F8003523F00043C1F88A
:1039B0000035D1F8003543F00043C1F80035D1F8A7
:1039C000003523F40043C1F8003500230133B3F57B
:1039D0007A7F09D811680029F8DB05E0D1F80035B5
:1039E00043F00043C1F8003500205DF8044B7047F8
:1039F00000EB4111064AC1F81025D1F8003523F03B
:103A0000804343F00043C1F800350020704700BFF9
:103A10000000088070B582B04C78B0F1A04F07D09C
:103A20000B792BB912B94B79012B11D0012A13D084
:103A30000B69E3B10D892B44013BB3FBF5F39BB25A
:103A4000B3F5807F14D92D020D614FF480730FE020
:103A50002146FFF7CDFF75E000EB4413D3F80C557A
:103A600025F06005C3F80C5500234B71E0E70123F6
:103A7000CD781DB10D8905FB03F50D610D69C5F309
:103A80001205384E06EAC3432B438D7A6D0705F0C5
:103A9000C04500EB44142B43C4F8103512B1CB6879
:103AA000C4F8143500F58066B36813F0010FD4F83C
:103AB000003523F00053C4F80035D4F800350CBFAE
:103AC0004FF0005500252B43C4F80035D4F80055BD
:103AD000254B1D601D6825F080451D60CB78C3B166
:103AE000214D2B6843F400432B601F4B1D6845F0AC
:103AF00000451D601B68C4F800351ABBCB780BBBB2
:103B00000B69FBB1CA79032A14D8DFE802F0081E5A
:103B1000081E154D2B6823F400432B60E5E70333A3
:103B2000C26A92B2C3F38F039A4203D2836943F00D
:103B300020038361CC684A780B8A002100912146DA
:103B4000FFF750FD002002B070BD0333326992B21E
:103B5000C3F38F039A42EDD2836943F0806383619C
:103B6000E8E700BF0000F81F2803002070B50546F5
:103B70000446FFF7F3FC10212846FFF70DFD284609
:103B8000FFF71EFD00220AE004EB4211D1F80035D8
:103B900023F0802343F08043C1F8003501320F2A1F
:103BA000F2D90020034600E001300F2813D804EBBF
:103BB000401606F5A061D6F8002522F4004242F036
:103BC0004042C6F800250133B3F57A7FECD80A6885
:103BD000002AF8DBE8E74FF0FF33C5F814346B61D7
:103BE0002846FFF7B5FC002070BD0000494B5A681D
:103BF00022F440325A605A6841680A435A600268A7
:103C0000536823F48073536002685368016943EA80
:103C1000012353600268536823F0407353600268C5
:103C2000536881680B4353600268936823F4006310
:103C3000936002689368C1680B439360826A364B55
:103C40009A4249D00268936823F0706393600268D7
:103C50009368816A0B4393600268936823F0405332
:103C6000936002689368C16A0B439360026893682B
:103C700023F00203936002689368816943EA410379
:103C80009360036A002B32D10268536823F4006307
:103C900053600268D36A23F47003D3620168CB6A6D
:103CA000C269013A43EA0253CB620268936823F483
:103CB0000073936002689368016B43EA4123936049
:103CC0000268936823F48063936002689368416993
:103CD00043EA8123936070470268936823F070631E
:103CE00093600268936823F040539360BEE70268D4
:103CF000536843F4006353600268536823F46043DD
:103D0000536001684B68426A013A43EA42334B60B0
:103D1000BFE700BF002301400100000F20B310B532
:103D20000446036C43B1236C13F0100F0AD001203A
:103D3000002384F83C3010BD436480F83C30FEF72B
:103D400053F9F0E7226C094B134043F0020323645C
:103D50002046FFF74BFF00206064236C23F0030331
:103D600043F001032364E3E701207047FDEEFFFF0A
:103D700030B482B00023019390F83C30012B00F066
:103D8000C080012380F83C300B68092B22D90568DC
:103D9000EA689BB203EB43031E3B072404FA03F3D8
:103DA00022EA0303EB600B68574A93420BD0056885
:103DB000EA688C689BB203EB43031E3B04FA03F3EF
:103DC0001343EB601BE00268D3688C6843EA04632A
:103DD000D36014E005682A699BB203EB4303072410
:103DE00004FA03F322EA03032B6105682A698C684D
:103DF0000B8803EB430304FA03F313432B614B6873
:103E0000062B24D805686A6B03EB8303053B1F244C
:103E100004FA03F322EA03036B6305686A6B4B68D9
:103E200003EB8303053B0C8804FA03F313436B6332
:103E30000268364B9A423AD00268344B9A423FD0DD
:103E4000002380F83C30184602B030BC70470C2B81
:103E500016D805682A6B03EB8303233B1F2404FA5F
:103E600003F322EA03032B6305682A6B4B6803EB19
:103E70008303233B0C8804FA03F313432B63D7E734
:103E80000568EA6A03EB8303413B1F2404FA03F34A
:103E900022EA0303EB620568EA6A4B6803EB8303DB
:103EA000413B0C8804FA03F31343EB62C0E70B6851
:103EB000122BC1D1164A536843F480035360BBE709
:103EC0000B68114A112B18BF9342B9D1104A53689D
:103ED00043F4000353600A680B4B9A42B0D10D4B78
:103EE0001B680D4AA2FB03239B0C03EB83035A00C0
:103EF000019202E0019B013B0193019B002BF9D150
:103F00009EE70220A0E700BF120000100020014041
:103F1000002301400400002083DE1B430649CB68D8
:103F200023F4E0631B041B0C000200F4E060034375
:103F3000024A1A43CA60704700ED00E00000FA052B
:103F400030B4154BDB68C3F30223C3F10704042C20
:103F500028BF04241D1D062D14D9033B4FF0FF3547
:103F600005FA04F421EA0401994005FA03F322EA70
:103F700003031943002807DB0901C9B2074B195491
:103F800030BC70470023E9E700F00F000901C9B217
:103F9000034B1954F4E700BF00ED00E000E400E03B
:103FA00014ED00E000F01F02400901239340024A93
:103FB00042F82030704700BF00E100E00138B0F166
:103FC000807F0AD2064B5860064AF02182F82310FF
:103FD0000020986007221A6070470120704700BFD8
:103FE00010E000E000ED00E0042805D0054A136869
:103FF00023F0040313607047024A136843F004037C
:104000001360704710E000E0002838D010B5044677
:10401000437F1BB30223637723791BBB2368194AB1
:104020005A612268936823F018039360637913BB85
:1040300023684FF0FF321A612268936823F060030F
:1040400061690B4393602268936823F08003A16940
:104050000B43936001236377002010BD0377FDF7C6
:10406000F1FFD7E7E268A168204600F00DF80028CC
:10407000DCD00120F1E7236822691A61DCE7012026
:10408000704700BFB71DC10410B41F2300E02346D2
:1040900021FA03F414F0010F03D15C1E002BF6D1BA
:1040A0002346102A13D0182A0DD0082A13D00368EB
:1040B000596101688B6823F018031A438A60002055
:1040C0005DF8044B7047062BF1D90120F8E7072B68
:1040D000EDD90120F4E70F2BE9D90120F0E700002A
:1040E000002844D010B5044690F83530002B2ED06F
:1040F000022384F83530226811681E4B0B40136090
:1041000022681168636860690343E06803432069BB
:104110000343A0680343A0690343206A0343606A22
:104120000343A06A0343E06A0343206B03430B434A
:1041300013606368102B0DD02268D36843F01E0310
:10414000D3600020E064012384F8353010BDFDF712
:104150008FFFCDE7237F627F43EA0223A27F43EAFA
:104160000243E17F226843EA01639361E4E70120AF
:10417000704700BF07F0E0FF70B40668746C04F08D
:104180004044039D45EA03431C4374640368DA63B7
:104190004368B3F5403F03D00368D96070BC7047F3
:1041A00001F07F4601F47F0301F47F45CAB28468C1
:1041B00094B1012C0ED0022C11D0032C17D0360F45
:1041C0001B0D2D0B190241EA051141EA063141EAA6
:1041D000121101E021F07F4103689963DEE7DB0CF7
:1041E000AD0AD90241EA451141EAD201F4E7F60FDE
:1041F000DB0CED0A990241EA451141EAC63141EA78
:10420000D201E9E738B310B5044690F83930EBB184
:10421000022384F839302268136823F4403361683C
:104220000B4313602268536B23F00703A1680B4311
:1042300053632268116C094B0B40E1680B43136414
:104240000020E063012384F8393010BD80F8383055
:10425000FDF766FFDCE70120704700BF00C0FFFFED
:1042600010B582B090F83840012C13D004460120DC
:1042700084F83800022084F8390004980090204621
:10428000FFF77AFF2268136843F0010313600020F0
:1042900002B010BD0220FBE770B582B004460D46A7
:1042A0000023019303681B6813F0010F2AD12368D0
:1042B000DA6912F0200F03D15B6A13F0200F7FD070
:1042C00005F03CF8064623685A6812F0100F77D1C3
:1042D0005A680192019A12F0290F4FD1B5F1FF3FB0
:1042E000F1D025B105F02AF8801BA842EBD9E36B89
:1042F00043F02003E363032084F83900002384F8AB
:10430000383066E005F01AF8064623685A6812F05D
:10431000020FCCD15A680192019A12F0210F13D1E9
:10432000B5F1FF3FF1D025B105F008F8801BA84298
:10433000EBD9E36B43F02003E363032084F83900F7
:10434000002384F8383044E0019A12F0200F03D0A3
:10435000E26B42F00202E263019A12F0010F03D015
:10436000E26B42F00102E26321229A60042384F8A6
:104370003930002384F8383001202AE0019A12F005
:10438000080F03D0E26B42F00402E263019A12F0DC
:10439000200F03D0E26B42F00202E263019A12F0B6
:1043A000010F03D0E26B42F00102E26329229A601E
:1043B000042384F83930002384F83830012008E0E1
:1043C000236812229A60012384F83930002084F88F
:1043D000380002B070BD7047704770B5044603687E
:1043E0005D681E6815F0010F16D016F4807F13D09B
:1043F0001A6822F480721A60C36B43F00103C3632E
:10440000036801229A60042380F83930002380F881
:104410003830436903B1984715F0200F18D016F4CF
:10442000005F15D02268136823F4005313602368DB
:1044300020229A60E36B43F00203E363042384F8D1
:104440003930002384F8383063690BB1204698472F
:1044500015F0080F18D016F4006F15D022681368F5
:1044600023F400631360236808229A60E36B43F02F
:104470000403E363042384F83930002384F83830DC
:1044800063690BB12046984715F0040F02D016F46B
:10449000806F20D115F0020F16D016F4007F13D0D4
:1044A0002268136823F400731360236802229A6061
:1044B000E36BE363012384F83930002384F8383058
:1044C00023690BB12046984715F0100F02D016F45F
:1044D000805F0CD170BD2268136823F48063136081
:1044E000236804229A602046FFF775FFD2E722680E
:1044F000136823F480531360236810229A60E36BDF
:10450000E363012384F83930002384F838302046EF
:10451000FFF762FFDEE7000090F83830012B59D03A
:1045200030B4012380F83830022380F8393000EBB2
:104530000113DA698B1C1B01C35842EA0343093A91
:10454000012A1ED98A1C00EB0212526843EA026358
:1045500041BB0468656A204A2A40134363620268CB
:1045600000EB01139C699461DB69093B012B10D9B5
:10457000012380F83930002380F83830184630BCE9
:1045800070478A1C00EB0212526802F07F4213430C
:10459000DEE7023100EB01114B68026823F07F4334
:1045A0009362E5E70468E5690B4A2A401343E36137
:1045B000026800EB01139C691461DB69093B012B64
:1045C000D6D8023100EB01114B68026823F07F431B
:1045D0001362CDE702207047F0FFFC0030B40B6897
:1045E000012B18D00368194A1A404B688C68234382
:1045F000CC6823430C6923434C6923438C692343D0
:10460000CC6923430C6A2343496A0B431343036079
:10461000002030BC7047046824F4F844CB690A6A6F
:104620001A434B6A1A4322434368084C1C404B68A8
:104630008D682B43CD682B430D692B434D692B436C
:1046400089690B43234302604360E1E70080FFFF79
:1046500030B4012A21D0826802F070420B68013B1D
:104660004C68013C43EA04138C68013C43EA042390
:10467000CC68013C43EA04330C69013C43EA04433F
:104680004C69013C43EA04538969013943EA0163F7
:1046900013438360002030BC70478368114C1C407A
:1046A000CA68551E4B695A1E120542EA053222435A
:1046B000C46804F070440B68013B4D68013D43EA57
:1046C00005138D68013D43EA05230D69013D43EA69
:1046D00005438969013943EA016323438260C3606A
:1046E000D8E700BFFF0F0FFF10B483B004460020CF
:1046F00001900B684A6813438A68013A43EA4213FF
:10470000CA6843EA42230193019B236103B05DF829
:10471000044B7047436943EA4101416100207047FF
:10472000D8B138B504460D4690F82C3083B1022339
:1047300084F82C30211D2068FFF750FF626829465D
:104740002068FFF785FF012384F82C30002038BD56
:1047500080F82D30FEF704F8E9E70120704738B5FE
:1047600090F82C30DBB2022B14D00D460446022305
:1047700080F82C300068FFF7B7FF2B68022B04D0BD
:10478000012384F82C30002038BD052384F82C3018
:104790000020F9E70220F7E790F82C30DBB2022B7B
:1047A0000CD010B50446022380F82C300068FFF7C7
:1047B000B1FF012384F82C30002010BD0220704787
:1047C00003689A6912F0020F01D000229A6203680E
:1047D0009A6912F0010F03D19A6942F001029A61BD
:1047E000704770B4039E05686868740D04F48064B3
:1047F00044F07F7444F4583444F47F7444F0030468
:1048000020EA0400C1F3090141EA0241194331439E
:104810000143696070BC704770B504460D4616468A
:1048200003689B6913F0100F17D023689A6912F080
:10483000200F14D1B5F1FF3FF7D025B104F07EFD74
:10484000801BA842F1D9202384F84130002384F84A
:10485000423084F8403003201EE000201CE010228B
:10486000DA6123682025DD612046FFF7A9FF226871
:10487000536823F0FF7323F48B3323F4FF7323F087
:10488000010353600423636484F84150002384F8D7
:10489000423084F84030012070BD70B504460D46AA
:1048A000164623689B6913F0020F1CD13246294635
:1048B0002046FFF7B1FFC0B9B5F1FF3FF1D025B1F8
:1048C00004F03CFD801BA842EBD9636C43F020034D
:1048D0006364202384F84130002384F8423084F854
:1048E0004030032000E0002070BD0120FCE7F8B557
:1048F00005460F4616461C462B689B6937EA03039C
:104900000CBF01230023B34213D1B4F1FF3FF3D016
:104910002CB104F013FD069BC01AA042ECD9202351
:1049200085F84130002385F8423085F84030032077
:1049300000E00020F8BD000070B582B004461646C5
:104940001D461E4B00934FF08073EAB2FFF749FFFC
:10495000079A06992046FFF7A0FF30B1636C042B3D
:1049600027D10123184602B070BD012D0FD1236855
:10497000F6B29E62079B0093069B00228021204690
:10498000FFF7B5FF03460028ECD00323EAE72368CE
:10499000320A9A62079A06992046FFF77EFF20B1F5
:1049A000636C042B07D10123DCE72368F6B29E6217
:1049B000E0E70323D6E70323D4E700BF002000800D
:1049C00070B582B0044616461D461D4B0093002369
:1049D000EAB2FFF706FF079A06992046FFF75DFF48
:1049E00030B1636C042B27D10123184602B070BD8F
:1049F000012D0FD12368F6B29E62079B0093069BA0
:104A0000002240212046FFF772FF03460028ECD029
:104A10000323EAE72368320A9A62079A0699204636
:104A2000FFF73BFF20B1636C042B07D10123DCE7C8
:104A30002368F6B29E62E0E70323D6E70323D4E7B8
:104A40000020008070B505460C4616462B689B6911
:104A500013F0200F19D1324621462846FFF7DCFE1D
:104A6000A8B924B104F06AFC801BA042EED96B6C9B
:104A700043F020036B64202385F84130002385F840
:104A8000423085F84030032070BD0020FCE7012053
:104A9000FAE70000002857D010B5044690F84130DE
:104AA000002B41D0242384F841302268136823F07E
:104AB000010313606368226823F070631361226846
:104AC000936823F400439360E368012B31D0A3681B
:104AD000226843F404439360E368022B2FD02268DA
:104AE00051681A4B0B4353602268D36823F4004388
:104AF000D360236962691343A169226843EA0123F1
:104B0000D360E369216A22680B431360226813684B
:104B100043F00103136000206064202384F84130D7
:104B2000206384F8420010BD80F84030FDF718FB88
:104B3000B8E7A368226843F400439360CCE7236896
:104B40004FF400625A60CAE70120704700800002FB
:104B5000A8B110B50446242380F8413002681368D8
:104B600023F001031360FDF745FB0020606484F827
:104B70004100206384F8420084F8400010BD012009
:104B800070472DE9F04782B0BDF82C7090F8415085
:104B9000EDB2202D40F0CE80B7FA87F56D090A9C62
:104BA000002C08BF0125002D40F0C98090F840403E
:104BB000012C00F0C680984691460D4604464FF001
:104BC000010A80F840A004F0B9FB064600901923C2
:104BD00052464FF400412046FFF789FE002840F07E
:104BE000B280212384F84130402384F842300023EE
:104BF00063640A9A62626785636301960C9B009303
:104C000043464A4629462046FFF796FE60B1636C4C
:104C1000042B04D1002384F8403053468BE000235A
:104C200084F84030032386E0638D9BB2FF2B0AD9C2
:104C3000FF222285002300934FF0807329462046EF
:104C4000FFF7CFFD21E0628D92B222850023009311
:104C50004FF00073D2B229462046FFF7C2FD14E0A0
:104C6000636C042B71D1012365E0628D92B22285C1
:104C7000002300934FF00073D2B229462046FFF77D
:104C8000B0FD638D9BB2002B32D032460C9920468A
:104C9000FFF703FE0028E3D1636A5A1C62622268B0
:104CA0001B789362638D013B9BB26385238D013B2F
:104CB0009BB22385002BE4D1638D9BB2002BE0D007
:104CC00000960C9B002280212046FFF710FE002852
:104CD0003DD1638D9BB2FF2BC7D9FF2222850023D4
:104CE00000934FF0807329462046FFF77AFDC8E70E
:104CF00032460C992046FFF7A5FE034620B1636CAF
:104D0000042B26D1012316E022682021D1612068DE
:104D1000426822F0FF7222F48B3222F4FF7222F0FA
:104D20000102426084F84110002284F8422084F895
:104D3000402000E00223184602B0BDE8F0870123BE
:104D4000F9E70223F7E70323F5E70323F3E7032358
:104D5000F1E70323EFE700002DE9F04782B0BDF84B
:104D60002C7090F84150EDB2202D40F0CB80B7FA76
:104D700087F56D090A9C002C08BF0125002D40F025
:104D8000C68090F84040012C00F0C38098469146C0
:104D90000D4604464FF0010A80F840A004F0CEFA18
:104DA00006460090192352464FF400412046FFF773
:104DB0009EFD002840F0AF80222384F8413040233C
:104DC00084F84230002363640A9A626267856363F1
:104DD00001960C9B009343464A4629462046FFF71E
:104DE000EFFD60B1636C042B04D1002384F84030E4
:104DF000534688E0002384F84030032383E0638D2A
:104E00009BB2FF2B0AD9FF222285474B00934FF01C
:104E1000807329462046FFF7E4FC1CE0628D92B2C5
:104E20002285414B00934FF00073D2B229462046B1
:104E3000FFF7D7FC0FE0628D92B22285002300932A
:104E40004FF00073D2B229462046FFF7CAFC638DAB
:104E50009BB2002B34D000960C9B002204212046EC
:104E6000FFF745FD002858D123685A6A636A591C28
:104E700061621A70238D013B9BB22385628D013ADA
:104E800092B26285002BE2D1638D9BB2002BDED003
:104E900000960C9B002280212046FFF728FD002869
:104EA0003DD1638D9BB2FF2BC5D9FF222285002304
:104EB00000934FF0807329462046FFF792FCC6E727
:104EC00032460C992046FFF7BDFD034620B1636CC6
:104ED000042B26D1012316E022682021D16120680D
:104EE000426822F0FF7222F48B3222F4FF7222F029
:104EF0000102426084F84110002284F8422084F8C4
:104F0000402000E00223184602B0BDE8F0870123EC
:104F1000F9E70223F7E70323F5E70323F3E7032386
:104F2000F1E70323EFE700BF0024008090F8410081
:104F3000704790F84130DBB2202B24D190F84030FC
:104F4000012B22D0012380F84030242380F8413007
:104F50000268136823F0010313600268136823F4E6
:104F60008053136002681368194311600268136864
:104F700043F001031360202380F84130002380F8C0
:104F8000403018467047022070470220704790F862
:104F90004130DBB2202B22D190F84030012B20D0C1
:104FA000012380F84030242380F8413002681368E0
:104FB00023F0010313600268136823F4706343EA6B
:104FC000012111600268136843F00103136020237C
:104FD00080F84130002380F84030184670470220A6
:104FE0007047022070470000F0B44D680468E36821
:104FF000C3F30B431D44D2011444D4F8883003F4A6
:105000007043C4F888300B680468E668C6F30B4642
:1050100033440133144443EA0543C4F88830CD686F
:105020000468E368C3F30A031D441444D4F88C30C5
:1050300003F47043C4F88C308B680468E668C6F3E8
:105040000A0633440133144443EA0543C4F88C3060
:1050500003681344D3F8944024F00704C3F8944041
:10506000036813440C69C3F8944091F831C091F877
:1050700032708E6905681544D5F89C300024C5F857
:105080009C4091F8303043EA0C2343EA074305681B
:10509000154443EA0663C5F89C3003681344D3F80B
:1050A000985025F0FF05C3F89850036813444D69E4
:1050B000C3F8985003681344D3F8A0602D4D3540D1
:1050C000C3F8A050CD690E6A036813443543C3F892
:1050D000A05003681344D3F8AC50C3F8AC40036845
:1050E00013444C6AC3F8AC400B696BB1012B3AD046
:1050F000022B18BF042B38D0032B38D0072B01D03C
:10510000012302E0022300E0042304681444D4F8DD
:10511000B05005F0E025C4F8B0508C6A03FB04F5EC
:105120004C680E68A41B03FB04F3033304681444A7
:1051300043EA0543C4F8B03003681344D3F8B450CD
:105140000D4C2C40C3F8B44003681344C96AC3F83B
:10515000B41003681A44D2F8843043F00103C2F853
:105160008430F0BC70470323CFE70223CDE702234E
:10517000CBE700BFF8F8FFFF00F8FFFF002877D06B
:1051800038B5044690F8A130002B6CD0022384F887
:10519000A1302268936923F07043936121688A6982
:1051A0006368A0680343E068034320690343134333
:1051B0008B6121688A682F4B1A408A606569206874
:1051C0008268A16941EA05410A4382602168CA6890
:1051D0001A40CA60E5692068C268216A41EA05414F
:1051E0000A43C26021680A691A400A61656A206838
:1051F0000269A16A41EA05410A43026121684A69DC
:1052000013404B61E06A21684B69226B42EA00421D
:1052100013434B6194F8350094F836301B04216831
:10522000CA6A02F07F42CA622168CA6A43EA00235E
:1052300094F8340003431343CB622268536B43F06A
:10524000040353632268536B43F0020353632268E1
:10525000936943F0010393610020C4F8A400012383
:1052600084F8A13038BD80F8A030FCF7EDFF8DE761
:105270000120704700F800F070477047704710B584
:10528000044603689A6B12F0040F03D09A6B12F075
:10529000040F1BD123689A6B12F0020F03D09A6B94
:1052A00012F0020F27D123689A6B12F0010F03D07E
:1052B0009A6B12F0010F34D123689A6B12F0080F29
:1052C00003D09A6B12F0080F3BD110BD5A6B22F03D
:1052D00004025A6303680422DA63D0F8A43043F06E
:1052E0000103C0F8A43080F8A120002380F8A0308A
:1052F000FFF7C2FFCEE75A6B22F002025A6323681F
:105300000222DA63D4F8A4301343C4F8A43004238F
:1053100084F8A130002384F8A0302046FFF7ACFFCA
:10532000C1E75A6B22F001025A6322680123D3635A
:1053300084F8A130002384F8A0302046FFF79DFFB9
:10534000BAE75A6B22F008025A6323680822DA632C
:10535000012384F8A130002384F8A0302046FFF711
:105360008DFFB2E790F8A030012B27D02DE9F04156
:1053700094460F4606464FF0010880F8A0800223AD
:1053800080F8A130342404FB020438340D460FCDDC
:105390000FC40FCD0FC40FCD0FC42B68236062461E
:1053A00039463046FFF720FE3368C3F8248086F87C
:1053B000A180002086F8A000BDE8F081022070479F
:1053C00090F8A030012B1DD030B4012480F8A0400B
:1053D000022380F8A1300368D2011344D3F890501F
:1053E00005F07F45C3F8905003681A44C2F8901046
:1053F00003685C6280F8A140002380F8A030184662
:1054000030BC70470220704790F8A030012B17D0B5
:10541000012280F8A020022380F8A130036803EB6A
:10542000C111D1F8843043F00203C1F8843003681D
:105430005A6280F8A120002380F8A03018467047F7
:105440000220704738B590F8A030012B19D00446DF
:10545000012580F8A050022380F8A130342303FBFB
:1054600002F303F138002344D96421182046FFF7E2
:10547000BBFD23685D6284F8A150002084F8A00081
:1054800038BD0220FCE790F8A10070472DE9F041FB
:1054900005460F4616469846069C2B689B683B427D
:1054A00014BF01230023B34212D0B4F1FF3FF4D064
:1054B0002CB103F043FFA0EB0800A042EDD9042378
:1054C00085F841306B6C43F001036B64012000E010
:1054D0000020BDE8F08181647047000030B583B0E2
:1054E000044603F02BFF002C54D0054694F84030BE
:1054F000DBB2012B50D0012384F8403094F84130C6
:10550000002B3CD021680B6823F4F853A268013AC1
:1055100043EA02230B60A36C00932B460022202158
:105520002046FFF7B3FF024618BB206803681B49FB
:1055300019406568E36843EA0563E5692B43256A1A
:105540002B430B43036020684168154B0B402569D2
:10555000616941EA0541A56929430B43436021681C
:105560000B6843F001030B6000236364012384F89C
:105570004130002384F84030104603B030BD84F839
:1055800040302046FCF7C2FE41F288312046FFF74A
:10559000A2FFB7E70122EFE70222EDE72FFFFF00AE
:1055A000FEF8E0FF38B504460268D36823F0A00394
:1055B000D36003F0C3FE05462368DB6813F0200FB9
:1055C00007D103F0BBFE401BB0F57A7FF4D903206E
:1055D00000E0002038BD38B50368DA6812F0400FEB
:1055E00001D0002038BD04464FF0FF32DA6003F0EE
:1055F000A5FE05462368DB6813F0400F07D103F0D2
:105600009DFE401BB0F57A7FF4D90320EAE7002025
:10561000E8E7000000284AD038B50446437F002B55
:105620003AD0022363772368CA225A62236853223E
:105630005A622046FFF7CFFF0246002830D121688A
:1056400088681C4B03408B6020688168636825690B
:105650002B4365692B430B4383602368E168196121
:1056600021680B69A06843EA00430B612168CB689D
:1056700023F08003CB602168CB6C23F00803CB645C
:105680002168CB6CA0690343CB642368FF21596276
:1056900001236377104638BD0377FCF78DFEC0E722
:1056A0002368FF225A62042363770122F2E7012272
:1056B00010467047BFFF8FFF002302E001330A3816
:1056C000C0B20928FAD81B01DBB2184370470000AA
:1056D00070B5037F012B64D0012303770223437746
:1056E0003AB94B7813F0100F03D003F0EF030A33ED
:1056F0004B700E460446002A30D1C878FFF7DCFF15
:1057000005047078FFF7D8FF45EA0025B078FFF769
:10571000D3FF0543307845EA40352368CA225A62F0
:10572000236853225A622046FFF755FF064600BB06
:1057300022681D4B2B4053602268D36823F08003FE
:10574000D36023689B6813F0200F1CD02368FF22CE
:105750005A62012363770023237712E0C8784D78DB
:105760002D0245EA004588780543087845EA40352A
:10577000D3E72368FF225A62042363770023237749
:105780000126304670BD2046FFF70CFF0028DDD013
:105790002368FF225A6204236377002323770126BC
:1057A000EFE70226EDE700BF3FFFFF00F8B5037FFC
:1057B000012B76D00D46044601230377022343775D
:1057C000002A44D103689B6813F0400F01D10023E5
:1057D0000B732878FFF770FF06046878FFF76CFFFB
:1057E00046EA0026A878FFF767FF0643287B46EACB
:1057F00000462368CA225A62236853225A6220460E
:10580000FFF7E9FE0746002833D12268264B3340D4
:1058100013602268936823F48023936021688B6867
:105820002A696869024313438B602268D36823F0B6
:105830008003D36023689B6813F0200F23D0236874
:10584000FF225A62012363770023237719E003685C
:105850009B6813F0400F01D100230B7328786E78FA
:10586000360246EA0046A8780643287B46EA004608
:10587000BFE72368FF225A6204236377002323775C
:1058800001273846F8BD2046FFF78CFE0028D6D009
:105890002368FF225A6204236377002323770127BA
:1058A000EFE70227EDE700BF7F7F7F00F8B5037FBA
:1058B000012B00F0A9800D46044601230377022343
:1058C0004377002A4DD103689B6813F0400F01D144
:1058D00000230B732E6A2878FFF7EEFE0704687822
:1058E000FFF7EAFE47EA0027A878FFF7E5FE07433F
:1058F000287B47EA004795F82400FFF7DDFE47EADA
:1059000000600643AB691E436F68EB691F43236861
:10591000CA225A62236853225A62AB6AB3F5807F67
:1059200039D02268936823F40073936022689368E7
:1059300023F40053936003F001FD05462368DA6801
:1059400012F0020F50D103F0F9FC401BB0F57A7F42
:10595000F4D92368FF225A6203206077002323775B
:1059600051E003689B6813F0400F01D100230B73D3
:105970002A6A29786B781B0243EA0143A9780B4312
:10598000297B43EA014395F8241043EA016313435A
:10599000AE691E43B8E72268936823F4807393606E
:1059A0002268936823F48053936003F0C7FC054694
:1059B0002368DA6812F0010F0DD103F0BFFC401B21
:1059C000B0F57A7FF4D92368FF225A62032060770A
:1059D0000023237717E0DE6123685F642268936801
:1059E00043F48073936007E01E6223689F6422681B
:1059F000936843F4007393602368FF225A62012383
:105A0000637700202077F8BD0220FCE770B4047FA4
:105A1000012C27D001240477022343770568AE6860
:105A2000A3F60B0333401943CA236B620368532563
:105A30005D620568EB6C23F00603EB640568EB6CB4
:105A40001A43EA64036899600268936843F4006348
:105A500093600368FF225A62447700230377184655
:105A600070BC70470220FBE70E4B1B680E4AA2FB7E
:105A700003231B0B9B0001680A6822F480320A6032
:105A80005A1E3BB103681968134611F4803FF7D1E1
:105A900000207047D0F8803043F04003C0F88030D9
:105AA00003207047040000201BECCB95002800F079
:105AB000EB8070B5044690F87D30002B00F0B98083
:105AC000022384F87D302046FFF7CEFFE368012BE8
:105AD00000F0B680022B00F0B1800022A368022BF8
