:020000040800F2
:1000000000000520CD7301087175000873750008A4
:100010007575000877750008797500080000000004
:1000200000000000000000000000000011140108A2
:100030007B75000800000000B11401087D75000800
:100040001D7401081D7401081D7401081D74010848
:100050001D7401081D7401081D7401081D74010838
:100060001D7401081D7401081D7401081D74010828
:100070001D7401081D7401081D7401081D74010818
:100080001D7401081D7401081D7401081D74010808
:100090001D7401081D7401081D7401081D740108F8
:1000A0001D7401081D7401081D7401081D740108E8
:1000B0001D7401081D7401081D7401081D740108D8
:1000C0001D7401081D7401081D7401081D740108C8
:1000D0001D7401081D7401081D7401081D740108B8
:1000E0001D7401081D7401081D7401081D740108A8
:1000F0001D7401081D7401081D7401081D74010898
:100100001D7401081D7401081D7401081D74010887
:100110001D7401081D740108857500081D7401080F
:100120001D7401081D7401081D7401081D74010867
:1001300061750008957500081D7401081D7401089B
:100140001D7401081D7401081D74010899750008CB
:100150001D7401081D740108517500081D74010803
:100160001D7401081D7401081D7401081D74010827
:100170001D7401081D7401081D74010800000000B1
:100180001D7401081D7401081D7401081D74010807
:100190001D7401081D7401081D7401081D740108F7
:1001A000A97500081D740108B97500081D740108BF
:1001B0001D7401081D7401081D7401081D740108D7
:0801C0001D7401081D74010803
:1001D00010B5054C237833B9044B13B10448AFF381
:1001E00000800123237010BD0C01002000000000DE
:1001F000D08701080C4B43B10C480D4910B5AFF343
:1002000000800C48036823B910BD0A48036833B95D
:100210007047094B002BF7D0BDE810401847064B3C
:10022000002BF5D0184700BF00000000D087010860
:10023000100100200C01002000000000034613F80C
:10024000012B002AFBD1181A01387047000000006A
:1002500001F0FF01102A2BDB10F0070F08D010F877
:10026000013B013A8B422DD010F0070F42B3F6D17B
:10027000F0B441EA012141EA014122F007047FF094
:1002800000070023F0E80256083C85EA010586EAEB
:10029000010685FA47F5A3FA87F586FA47F6A5FA27
:1002A00087F68EB9EED1F0BC01F0FF0102F0070233
:1002B00032B110F8013B013A83EA010313B1F8D1DE
:1002C0000020704701387047002D06BF35460338BF
:1002D000073815F0010F07D1013015F4807F02BFF8
:1002E000013015F4C03F0130F0BC0138704700BF49
:1002F00081F0004102E000BF83F0004330B54FEAD7
:1003000041044FEA430594EA050F08BF90EA020F43
:100310001FBF54EA000C55EA020C7FEA645C7FEAD6
:10032000655C00F0E2804FEA5454D4EB5555B8BFF9
:100330006D420CDD2C4480EA020281EA030382EA6A
:10034000000083EA010180EA020281EA0303362DFC
:1003500088BF30BD11F0004F4FEA01314FF4801CCF
:100360004CEA113102D0404261EB410113F0004FE1
:100370004FEA03334CEA133302D0524263EB430398
:1003800094EA050F00F0A780A4F10104D5F1200E36
:100390000DDB02FA0EFC22FA05F2801841F1000191
:1003A00003FA0EF2801843FA05F359410EE0A5F165
:1003B00020050EF1200E012A03FA0EFC28BF4CF096
:1003C000020C43FA05F3C01851EBE37101F000454C
:1003D00007D54FF0000EDCF1000C7EEB00006EEB59
:1003E0000101B1F5801F1BD3B1F5001F0CD34908E3
:1003F0005FEA30004FEA3C0C04F101044FEA44523A
:1004000012F5800F80F09A80BCF1004F08BF5FEAC0
:10041000500C50F1000041EB045141EA050130BDA0
:100420005FEA4C0C404141EB010111F4801FA4F143
:100430000104E9D191F0000F04BF01460020B1FA98
:1004400081F308BF2033A3F10B03B3F120020CDAD0
:100450000C3208DD02F1140CC2F10C0201FA0CF0AE
:1004600021FA02F10CE002F11402D8BFC2F1200C13
:1004700001FA02F120FA0CFCDCBF41EA0C019040C9
:10048000E41AA2BF01EB0451294330BD6FEA040412
:100490001F3C1CDA0C340EDC04F11404C4F12002FD
:1004A00020FA04F001FA02F340EA030021FA04F30F
:1004B00045EA030130BDC4F10C04C4F1200220FA66
:1004C00002F001FA04F340EA0300294630BD21FAA4
:1004D00004F0294630BD94F0000F83F4801306BF6A
:1004E00081F480110134013D4EE77FEA645C18BF5E
:1004F0007FEA655C29D094EA050F08BF90EA020FF5
:1005000005D054EA000C04BF1946104630BD91EAEC
:10051000030F1EBF0021002030BD5FEA545C05D1EF
:100520004000494128BF41F0004130BD14F580042E
:100530003CBF01F5801130BD01F0004545F0FE41A2
:1005400041F470014FF0000030BD7FEA645C1ABFD7
:10055000194610467FEA655C1CBF0B46024650EA0E
:10056000013406BF52EA033591EA030F41F400213A
:1005700030BD00BF90F0000F04BF0021704730B5C0
:100580004FF4806404F132044FF000054FF0000195
:1005900050E700BF90F0000F04BF0021704730B556
:1005A0004FF4806404F1320410F0004548BF40422B
:1005B0004FF000013EE700BF42004FEAE2014FEA80
:1005C00031014FEA02701FBF12F07F4393F07F4F5B
:1005D00081F06051704792F0000F14BF93F07F4F8D
:1005E000704730B54FF4607401F0004521F00041D0
:1005F00020E700BF50EA010208BF704730B54FF056
:1006000000050AE050EA010208BF704730B511F05A
:10061000004502D5404261EB41014FF4806404F192
:1006200032045FEA915C3FF4DCAE4FF003025FEA14
:10063000DC0C18BF03325FEADC0C18BF033202EB9C
:10064000DC02C2F1200300FA03FC20FA02F001FAF6
:1006500003FE40EA0E0021FA02F11444C1E600BF95
:1006600070B54FF0FF0C4CF4E06C1CEA11541DBF48
:100670001CEA135594EA0C0F95EA0C0F00F0DEF813
:100680002C4481EA030621EA4C5123EA4C5350EAF8
:10069000013518BF52EA033541F4801143F4801349
:1006A00038D0A0FB02CE4FF00005E1FB02E506F0DA
:1006B0000042E0FB03E54FF00006E1FB03569CF02F
:1006C000000F18BF4EF0010EA4F1FF04B6F5007F35
:1006D00064F5407404D25FEA4E0E6D4146EB0606A7
:1006E00042EAC62141EA55514FEAC52040EA5E5030
:1006F0004FEACE2EB4F1FD0C88BFBCF5E06F1ED8DA
:10070000BEF1004F08BF5FEA500E50F1000041EB10
:10071000045170BD06F0004646EA010140EA0200BD
:1007200081EA0301B4EB5C04C2BFD4EB0C0541EADF
:10073000045170BD41F480114FF0000E013C00F3F4
:10074000AB8014F1360FDEBF002001F0004170BD18
:10075000C4F10004203C35DA0C341BDC04F1140431
:10076000C4F1200500FA05F320FA04F001FA05F2BD
:1007700040EA020001F0004221F0004110EBD3708A
:1007800021FA04F642EB06015EEA430E08BF20EAB6
:10079000D37070BDC4F10C04C4F1200500FA04F359
:1007A00020FA05F001FA04F240EA020001F00041EB
:1007B00010EBD37041F100015EEA430E08BF20EA5E
:1007C000D37070BDC4F1200500FA05F24EEA020EA6
:1007D00020FA04F301FA05F243EA020321FA04F0D5
:1007E00001F0004121FA04F220EA020000EBD3708C
:1007F0005EEA430E08BF20EAD37070BD94F0000F8C
:100800000FD101F00046400041EB010111F4801FBF
:1008100008BF013CF7D041EA060195F0000F18BF70
:10082000704703F00046520043EB030313F4801FAC
:1008300008BF013DF7D043EA0603704794EA0C0F66
:100840000CEA135518BF95EA0C0F0CD050EA41067C
:1008500018BF52EA4306D1D181EA030101F00041F9
:100860004FF0000070BD50EA410606BF1046194621
:1008700052EA430619D094EA0C0F02D150EA01362D
:1008800013D195EA0C0F05D152EA03361CBF10466E
:1008900019460AD181EA030101F0004141F0FE410D
:1008A00041F470014FF0000070BD41F0FE4141F491
:1008B000780170BD70B54FF0FF0C4CF4E06C1CEA91
:1008C00011541DBF1CEA135594EA0C0F95EA0C0F46
:1008D00000F0A7F8A4EB050481EA030E52EA033501
:1008E0004FEA013100F088804FEA03334FF0805522
:1008F00045EA131343EA12634FEA022245EA11154F
:1009000045EA10654FEA00260EF000419D4208BFFF
:10091000964244F1FD0404F5407402D25B084FEAAC
:100920003202B61A65EB03055B084FEA32024FF458
:1009300080104FF4002CB6EB020E75EB030E22BFB5
:10094000B61A754640EA0C005B084FEA3202B6EB75
:10095000020E75EB030E22BFB61A754640EA5C0024
:100960005B084FEA3202B6EB020E75EB030E22BFB4
:10097000B61A754640EA9C005B084FEA3202B6EBB5
:10098000020E75EB030E22BFB61A754640EADC0074
:1009900055EA060E18D04FEA051545EA16754FEAD6
:1009A00006164FEAC30343EA52734FEAC2025FEAF4
:1009B0001C1CC0D111F4801F0BD141EA00014FF083
:1009C00000004FF0004CB6E711F4801F04BF014354
:1009D0000020B4F1FD0C88BFBCF5E06F3FF6AFAE70
:1009E000B5EB030C04BFB6EB020C5FEA500C50F100
:1009F000000041EB045170BD0EF0004E4EEA113183
:100A000014EB5C04C2BFD4EB0C0541EA045170BD89
:100A100041F480114FF0000E013C90E645EA060ECD
:100A20008DE60CEA135594EA0C0F08BF95EA0C0FFB
:100A30003FF43BAF94EA0C0F0AD150EA01347FF443
:100A400034AF95EA0C0F7FF425AF104619462CE71A
:100A500095EA0C0F06D152EA03353FF4FDAE10467D
:100A6000194622E750EA410618BF52EA43067FF4CE
:100A7000C5AE50EA41047FF40DAF52EA43057FF45E
:100A8000EBAE12E74FF0FF3C06E000BF4FF0010C69
:100A900002E000BF4FF0010C4DF804CD4FEA410CCD
:100AA0007FEA6C5C4FEA430C18BF7FEA6C5C1BD09A
:100AB00001B050EA410C0CBF52EA430C91EA030F1B
:100AC00002BF90EA020F0020704710F1000F91EA78
:100AD000030F58BF994208BF90422CBFD8176FEA46
:100AE000E37040F0010070474FEA410C7FEA6C5C14
:100AF00002D150EA013C07D14FEA430C7FEA6C5C1B
:100B0000D6D152EA033CD3D05DF8040B704700BF46
:100B10008446104662468C461946634600E000BF94
:100B200001B5FFF7B7FF002848BF10F1000F01BD66
:100B30004DF808EDFFF7F4FF0CBF012000205DF831
:100B400008FB00BF4DF808EDFFF7EAFF34BF0120B6
:100B500000205DF808FB00BF4DF808EDFFF7E0FF4F
:100B600094BF012000205DF808FB00BF4DF808EDA0
:100B7000FFF7CEFF94BF012000205DF808FB00BF07
:100B80004DF808EDFFF7C4FF34BF012000205DF8E9
:100B900008FB00BF4FEA410212F5001215D211D531
:100BA0006FF47873B3EB625212D94FEAC12343F06A
:100BB000004343EA505311F0004F23FA02F018BFEC
:100BC000404270474FF00000704750EA013005D1B5
:100BD00011F0004008BF6FF0004070474FF0000078
:100BE000704700BF4A0011D212F5001211D20DD584
:100BF0006FF47873B3EB62520ED44FEAC12343F023
:100C0000004343EA505323FA02F070474FF00000CC
:100C1000704750EA013002D14FF0FF3070474FF07B
:100C20000000704753B94AB9002908BF00281CBF0B
:100C30004FF0FF314FF0FF3000F07AB9ADF1080C02
:100C40006DE904CE00F006F8DDF804E0DDE90223EA
:100C500004B070472DE9F0478C460D460446089EC7
:100C6000002B51D18A4217466DD9B2FA82FEBEF1ED
:100C7000000F0BD0CEF1200C01FA0EF520FA0CFC7F
:100C800002FA0EF74CEA050C00FA0EF44FEA174A86
:100C9000250CBCFBFAF81FFA87F90AFB18CC45EAC9
:100CA0000C4508FB09F3AB420AD9ED1908F1FF32F4
:100CB00080F02381AB4240F22081A8F102083D443C
:100CC000ED1AA4B2B5FBFAF00AFB105544EA05444C
:100CD00000FB09F9A14509D9E41900F1FF3380F0BF
:100CE0000A81A14540F2078102383C44A4EB090483
:100CF00040EA08400021002E61D024FA0EF40023BF
:100D000034607360BDE8F0878B4207D9002E54D061
:100D1000002186E821000846BDE8F087B3FA83F198
:100D2000002940F08E80AB4202D3824200F2FA806A
:100D3000841A65EB03050120AC46002E3FD086E8FF
:100D40001010BDE8F08712B90127B7FBF2F7B7FA28
:100D500087FEBEF1000F34D1EB1B3A0C1FFA87FC63
:100D60000121B3FBF2F8250C02FB183345EA0345D9
:100D70000CFB08F3AB4207D9ED1908F1FF3002D2A2
:100D8000AB4200F2D1808046ED1AA3B2B5FBF2F07F
:100D900002FB105543EA05440CFB00FCA44507D9AF
:100DA000E41900F1FF3302D2A44500F2B8801846DE
:100DB000A4EB0C0440EA08409DE731463046BDE80C
:100DC000F087CEF1200405FA0EF307FA0EF720FAA9
:100DD00004F83A0C25FA04F448EA0308B4FBF2F1EB
:100DE0004FEA184502FB11441FFA87FC45EA044507
:100DF00001FB0CF3AB4200FA0EF409D9ED1901F135
:100E0000FF3080F08A80AB4240F2878002393D4457
:100E1000EB1A1FFA88F5B3FBF2F002FB103345EA38
:100E2000034500FB0CF3AB4207D9ED1900F1FF3885
:100E30006FD2AB426DD902383D44EB1A40EA014112
:100E40008FE7C1F1200722FA07F88B4005FA01F479
:100E500048EA030320FA07FE4FEA134CFD404EEA2E
:100E6000040EB5FBFCF94FEA1E440CFB19551FFAA2
:100E700083F844EA054509FB08F4AC4202FA01F2A2
:100E800000FA01FA08D9ED1809F1FF3043D2AC425B
:100E900041D9A9F102091D442D1B1FFA8EFEB5FB95
:100EA000FCF00CFB10554EEA054400FB08F8A04589
:100EB00007D9E41800F1FF3529D2A04527D9023817
:100EC0001C4440EA0940A4EB0804A0FB02894C45FD
:100ED000C6464D4615D312D056B1BAEB0E0364EB9D
:100EE000050404FA07F7CB401F43CC403760746019
:100EF0000021BDE8F0871846F8E69046E0E6C245D6
:100F0000EAD2B8EB020E69EB03050138E4E72846A4
:100F1000D7E7404691E78146BEE7014678E70238C9
:100F20003C4445E7084608E7A8F102083D442BE7A2
:100F3000704700BF054B064A1A6000225A609A604B
:100F4000DA601A615A619A61704700BF5CE600205E
:100F5000002C01402DE9F04F91B09A4B1A6B42F0F2
:100F600010021A631A6B02F010020092009A1A6BB8
:100F700042F040021A631A6B02F040020192019A99
:100F80001A6B42F002021A631A6B02F0020202921A
:100F9000029A1A6B42F008021A631A6B02F00802F6
:100FA0000392039A1A6B42F004021A631A6B02F05E
:100FB00004020492049A1A6B42F001021A631A6B3B
:100FC00002F001020592059A1A6B42F400721A634C
:100FD0001A6B02F400720692069A1A6B42F480723F
:100FE0001A631A6B02F480720792079A1A6B42F422
:100FF00080621A631A6B02F480620892089A1A6B74
:1010000042F020021A631A6B02F020020992099A38
:101010001A6B42F080021A631B6B03F080030A9381
:101020000A9B0122202168480DF099FC00220C2126
:1010300066480DF094FC0122082165480DF08FFCF4
:1010400001224FF4805161480DF089FC00224FF4D9
:10105000005160480DF083FC0022C8215E480DF06D
:101060007EFC4FF0080ACDF82CA000240C940D94BF
:101070000BA95A480DF0DEFA43F623430B934FF0C9
:101080000208CDF830800D9403270E970A260F969C
:101090000BA953480DF0CEFA4FF480530B930C94E8
:1010A0000D940BA94F480DF0C5FA40230B93DFF8C0
:1010B00040B1CDF830B00D940BA943480DF0BAFA09
:1010C00020230B9301250C950D940E940BA93E48FB
:1010D0000DF0B0FA41F20C030B930C950D940E94A5
:1010E0000BA93A480DF0A6FA4FF40059CDF82C9010
:1010F0000C940D940BA93C480DF09CFACDF82CA053
:101100000C950D940E940BA931480DF093FA4FF005
:10111000100ACDF82CA00C940D940BA92A480DF0C0
:1011200089FA48F204030B930C940D940BA92948F7
:101130000DF080FACDF82C900C950D940E940BA91F
:1011400024480DF077FACDF82C90CDF830B00D94FE
:101150000BA91E480DF06EFACDF82CA0CDF830800A
:101160000D940E970F960BA91A480DF063FAC82339
:101170000B930C950D940E940BA917480DF05AFA89
:1011800005230B93CDF830800D940E970F960BA985
:1011900015480DF04FFA04230B930C940D940BA9F2
:1011A0000D480DF047FA28230B93CDF830800D94AD
:1011B0000E970F960BA90D480DF03CFA11B0BDE843
:1011C000F08F00BF00380240000C024000200240B7
:1011D00000280240001C024000180240001002409B
:1011E00000040240002402400008024000000240C7
:1011F0000000121008B505F0D7FE06F02FF84FF4E6
:101200007A7011F087F90B4813F0A8FD0A4813F023
:10121000A5FDFA2011F07EF9084B1B78022BF5D1C1
:10122000074813F09BFD074805F0B2F9064813F094
:1012300095FDFEE72C880108D4C50108945E0020C6
:101240004C8801086088010864880108044B1B6809
:10125000DA6912F0800FF9D0C0B2986200207047AE
:10126000A0E8002008B50268034B9A4200D008BDF0
:101270000DF04EFEFBE700BF00100040FEE700004F
:1012800000B585B01648174B03604FF480334360B8
:1012900000238360036183610362C362124A826236
:1012A000C3600122C2610363426108F0C7F868B9F4
:1012B0000423009301230193002302936946084805
:1012C00008F0E6F838B905B05DF804FB40F2AB1160
:1012D0000648FFF7D3FF40F2B5110448FFF7CEFFF1
:1012E00008E80020002201400100000F20880108CA
:1012F00008B50948094B036000230371437143613A
:1013000083610123036208F00FFA00B908BD4FF4AE
:10131000E3710348FFF7B2FF38E6002000300240D7
:101320002088010808B50C480C4B0360002343607B
:101330008360C360036143618361036243628362CC
:10134000C362036308F05CFA00B908BD40F2DD1126
:101350000348FFF793FF00BF50E80020000005504E
:101360002088010808B50F480F4B03600023436035
:101370008360C3608362C3620363436308F0D2FA8D
:1013800028B90121074808F057FC28B908BD4FF4D7
:10139000F8710648FFF772FF40F2F5110348FFF7B6
:1013A0006DFF00BFE0E9002000B002402088010886
:1013B00000B589B01648174B036000234360836073
:1013C0000421C16010220261402242614FF4C072C8
:1013D0008261C3614FF4006202624FF48052426244
:1013E0008362022301930722029203910492032253
:1013F000059206930793694408F022FD10B909B0DD
:101400005DF804FB4FF49B610348FFF737FF00BF13
:10141000A0EA0020400100A02088010808B5154876
:10142000154B0360154B4360002383600122C260AB
:10143000036143618361C361036208F0BBFE50B97D
:1014400000210C4809F005F950B90021094809F0BC
:101450002EF950B908BD40F209210948FFF70EFFE7
:101460004FF404710648FFF709FF40F217210448C2
:10147000FFF704FFECE5002000540040FFEAC00045
:101480002088010808B51548154B0360154B4360CB
:10149000002383600122C260036143618361C361F1
:1014A000036208F087FE50B900210C4809F0D1F81A
:1014B00050B90021094809F0FAF850B908BD40F2C6
:1014C0002B210948FFF7DAFE40F232210648FFF7E8
:1014D000D5FE40F239210448FFF7D0FE2CE400206D
:1014E000005C0040FFEAC0002088010800B58FB012
:1014F00029482A4B0360002343608360C360036173
:1015000028224261092282613522C2610B220262D5
:1015100040F21522426240F21B12826240F23522F2
:10152000C26240F21D12026380F8343080F8353018
:1015300080F8363009F0B2F920BB002201924FF456
:10154000F071029103924FF4887304930592FF2087
:10155000069007924FF4C0600890072009904FF062
:1015600040400A900B910C938DF834208DF8352073
:101570008DF8362001A9084809F084FA38B90FB06F
:101580005DF804FB40F256210548FFF777FE40F274
:101590006A210348FFF772FE60E7002000680140FF
:1015A0002088010808B50B480B4B0360FF234360FC
:1015B000012282600023C360026143618361C361D1
:1015C000036209F01BFB00B908BD40F27F2103480C
:1015D000FFF754FE14EB0020001000A02088010843
:1015E00000B593B03C483D4B0360002343607F222D
:1015F0008260FF22C26003614361836109F09AFB4C
:1016000000284BD100238DF830308DF831308DF823
:1016100032301093119301220CA92F4809F056FC87
:10162000002840D101228DF82C208DF82D208DF836
:101630002E2000238DF82F300BA9274809F0D8FB66
:10164000002835D100238DF800308DF801308DF859
:1016500002300193049305930693079308930122A4
:101660008DF824204FF480730A9369461A4809F0D4
:10167000ADFC10BB01228DF824204FF400730A93B7
:101680006946154809F0A2FCE0B90222002112487F
:1016900009F04CFDD8B913B05DF804FB40F29F216E
:1016A0000F48FFF7EBFD40F2AB210D48FFF7E6FDD9
:1016B00040F2B5210A48FFF7E1FD40F2C721084892
:1016C000FFF7DCFD4FF434710548FFF7D7FD40F21A
:1016D000D7210348FFF7D2FD10E900200028004081
:1016E0002088010808B52648264B036000230363C1
:1016F0004360C02242638363C363836003614361C9
:101700008361214AC261C36043628362C36208226B
:101710000264012242648364C36403654365836594
:10172000C265036609F06CFD00BB1848184B0360E6
:101730000023036303224260C02242638363C363C6
:101740000122826003618361C36043628362C3627A
:101750000821016442648364C3640365436583654F
:10176000C265036609F04CFD28B908BD40F2FA21B4
:101770000848FFF783FD40F215310648FFF77EFD6C
:1017800068E50020045C014000EE0200A4E30020B4
:10179000245C01402088010808B50C484FF0402324
:1017A0000360002343608360C3600361436183611E
:1017B000C3610362436283620AF0F4FF00B908BDAB
:1017C00040F239310248FFF759FD00BF1CE5002007
:1017D0002088010808B51148114B03604FF482734B
:1017E0004360002383604FF44072C2600361436131
:1017F0004FF400728261C361036243628362072215
:10180000C2620363082343630BF004F800B908BD08
:1018100040F253310348FFF731FD00BF78E4002068
:10182000003800402088010800B59BB03748384B8D
:101830000360002343608360C3600361436183618D
:101840000BF0D8F9002842D11AA94FF4805341F87F
:10185000103D2E480BF0CEFA00283DD12B480BF05E
:10186000E2F900283DD1002313931493159313A993
:1018700026480BF09DFB002838D160230C930022F2
:101880000D920E920F921092119212920CA91F4873
:101890000BF006FC00282ED1002301930293039342
:1018A000049305934FF400520692079308934FF068
:1018B000007209920A930B9301A914480BF0A4FB40
:1018C000F0B9124806F02EFA1BB05DF804FB40F2A6
:1018D0006A311048FFF7D2FC4FF45C710D48FFF7F6
:1018E000CDFC40F275310B48FFF7C8FC40F27D316A
:1018F0000848FFF7C3FC40F289310648FFF7BEFCF9
:1019000040F299310348FFF7B9FC00BF30E90020ED
:10191000000001402088010800B58FB025484FF035
:1019200080430360002343608360C360036183617D
:101930000BF060F928BB0EA94FF4805341F8103D1D
:101940001C480BF057FA08BB1A480BF06CF910BB97
:1019500000230793099307A916480BF029FBF8B950
:10196000602300930022019202920492694611487A
:101970000BF096FBC8B90F4806F0D4F90FB05DF82C
:1019800004FB4FF46C710C48FFF778FC40F2B63161
:101990000948FFF773FC40F2BB310748FFF76EFCC4
:1019A00040F2C2310448FFF769FC40F2CB310248F3
:1019B000FFF764FC20EA00202088010800B58FB002
:1019C0002548264B0360002343608360C3600361A6
:1019D00083610BF00FF928BB0EA94FF4805341F837
:1019E000103D1D480BF006FA08BB1B480BF01BF915
:1019F00010BB00230793099307A917480BF0D8FAE7
:101A0000F8B9602300930022019202920492694681
:101A100011480BF045FBC8B90F4806F083F90FB029
:101A20005DF804FB40F2E2310D48FFF727FC4FF46C
:101A30007A710B48FFF722FC40F2ED310848FFF7BE
:101A40001DFC4FF47D710648FFF718FC40F2FD3194
:101A50000348FFF713FC00BF20E70020000400400C
:101A60002088010800B58FB02548264B036000236D
:101A700043608360C360036183610BF0BBF830BBDC
:101A80000EA94FF4805341F8103D1D480BF0B2F9F8
:101A900010BB1B480BF0C7F818BB00230793099332
:101AA00007A917480BF084FA00BB602300930023BA
:101AB0000193029304930C22694611480BF0F0FA4B
:101AC000C8B90F4806F02EF90FB05DF804FB40F2DC
:101AD00014410D48FFF7D2FB40F21A410A48FFF7C4
:101AE000CDFB40F21F410848FFF7C8FB40F22641FA
:101AF0000548FFF7C3FB40F22F410348FFF7BEFB49
:101B0000E0E60020000C00402088010800B589B004
:101B10001848194B0360002343608360C36003616E
:101B2000436183610BF066F8A0B908A94FF48053B4
:101B300041F8103D0F480BF05DF980B90023019387
:101B40000293039301A90B480BF032FA60B909B074
:101B50005DF804FB40F25F410848FFF78FFB40F25D
:101B600065410648FFF78AFB40F26D410348FFF7E5
:101B700085FB00BFDCE40020000401402088010850
:101B800000B589B01348144B0360002343608360A1
:101B9000C360036183610BF046F880B96023019351
:101BA000002202920392059201A90A480BF078FAEA
:101BB00050B9084806F0B6F809B05DF804FB4FF4D8
:101BC00090610648FFF75AFB40F289410348FFF74E
:101BD00055FB00BF60EA0020001800402088010883
:101BE00008B50C480C4B03604FF4E133436000230D
:101BF0008360C36003610C2242618361C36103623D
:101C000043620BF050FD00B908BD4FF494610348E6
:101C1000FFF734FBA0E800200010014020880108F5
:101C200008B50C480C4B03604FF4E13343600023CC
:101C30008360C36003610C2242618361C3610362FC
:101C400043620BF030FD00B908BD40F2B5410348D6
:101C5000FFF714FB70E90020001401402088010800
:101C600000B585B00F48104B0360002343608360CC
:101C7000C36083610AF0BEFF50B900230193039350
:101C800001A908480BF094F938B905B05DF804FBD8
:101C900040F243410548FFF7F1FA40F24A41034858
:101CA000FFF7ECFAD4EA0020001400402088010875
:101CB00000B5B5B0474B1A6C42F080521A641B6CE9
:101CC00003F080530093009B434B1A6842F4404258
:101CD0001A601B6803F440430193019B0923289376
:101CE0004FF48033299301232D9302232E934FF435
:101CF00080022F92192230924FF4C872319232939F
:101D00000823339328A80BF001FD00284ED10DF0D5
:101D1000B5F800284FD10F232393022324930023E7
:101D200025934FF4A05326934FF480532793062115
:101D300023A80BF029FF002842D1284B02936423EB
:101D400003930223069304930593C023079304236C
:101D50000993089301230A930B930C934FF40033D8
:101D60000D934FF400730E93002312931393189363
:101D70001B931D934FF000622192229302A80BF057
:101D8000F9FF10BB0BF0B2FF154BA3FB003080092D
:101D900007F0A4FC042007F0B7FC00220F214FF04D
:101DA000FF3007F05DFC35B05DF804FB4FF4AA711D
:101DB0000C48FFF763FA40F25B110A48FFF75EFA3E
:101DC00040F269110748FFF759FA4FF4C37105480B
:101DD000FFF754FA00380240007000406848B10133
:101DE000D34D62102088010800B587B00DF084F84B
:101DF000FFF75EFFFFF7AEF8FFF742FAFFF778FA5A
:101E0000FFF790FAFFF7AEFAFFF7D2FAFFF706FBFB
:101E1000FFF738FBFFF76AFBFFF7C4FBFFF7E0FBB8
:101E2000FFF760FCFFF786F8FFF7B6FCFFF7D2FC80
:101E3000FFF7FAFCFFF770FDFFF7C0FDFFF712FE9A
:101E4000FFF764FEFFF79CFEFFF7CAFEFFF7E8FE10
:101E5000FFF706FF124812F013FF124812F07EFF40
:101E6000114815F07BFC04F0FFFC04F05DFF04F06A
:101E70002FFDB0F1FF3F0ED001AC0C4D0FCD0FC4C4
:101E80002B682360002101A810F0CAFD084B1860E0
:101E900010F0AEFDFEE7074812F060FFECE700BF70
:101EA000A0E8002078880108A4880108E8870108D4
:101EB00028E40020B4880108B0B110B40446002022
:101EC00003E0002321F810300130D4F8C427D4F8FF
:101ED000C83703FB02F2D4F8BC3703FB02F383429A
:101EE000EFDC5DF8044B7047704708B500F0D4FC98
:101EF00008BD18B108B500F01BFD08BD70470023F0
:101F000000E001334A1E9A4209DDC25CFF2AF8D183
:101F1000C218527802F0E002E02AF2D101E04FF05C
:101F2000FF3318467047F8B507460E461546044677
:101F300002E0DC1C03302D1A29462046FFF7DFFFA4
:101F40002318002813DB215C32789142F1D15978B3
:101F500072789142EDD19A78B1784A4012F0FC0F34
:101F6000E7D111F0020F00D0013BD81B01E04FF088
:101F7000FF30F8BD20B10346D0F8D027032A08D09F
:101F800000230B604B608B60CB600B614B618B61FE
:101F9000704710B4D0F8B8270A60D0F8BC274A6060
:101FA000D0F8C0278A601022CA60D0F8BC4790F8E9
:101FB000D427D0F8D007013802EB42020244074888
:101FC00030F9122002FB04F20A61D3F8D0274A61EB
:101FD00093F8D4378B615DF8044B70471C8A010875
:101FE00090B138B504460D46114600F0F1F9B0F154
:101FF000FF3F0CD0D4F8D037032B0BD12946204615
:10200000FFF7B8FF002038BD6FF0040070476FF095
:102010000500F8E76FF00500F5E7002800F05981AA
:102020002DE9F04784B004469A4617460D460968E4
:1020300000F0CEF9061EC0F24F81296831442960B4
:10204000204600F0C3FAB0F10008C0F294802B687B
:1020500043442B6006EB08023B689B1A3B60D4F8B4
:10206000B83713B1D4F8B03753B3D4F8B037FBB99D
:102070000123C4F8B03728687142A1EB08013A681F
:102080000144FFF750FFC4F8B40700287ADB831936
:102090004344D4F8C02703FB02F3DB00D4F8C41791
:1020A000D4F8C82702FB01F293FBF2F3C4F8B83767
:1020B000D4F8B467204600F07DF93044C4F8CC076A
:1020C0000C9B002B6CD03B68C4F8CC37D4F8D827D5
:1020D000002A5ED1002B5CDDC4F8DC372E68334467
:1020E0002B60D4F8CC273B689B1A3B6000230393FA
:1020F000D4F8DC274FEAC2099846D4F8C4374345E0
:1021000040F3E5800027D4F8BC37BB4240F3A680FB
:1021100004AA52F8045D0197CDF800804B46314681
:10212000204603F045FCC5EBC002039D2A4407EBA3
:10213000480303F5FC7354F823309B1A0644A9EBBB
:1021400002094B45D4BF0022012252EAD07275D158
:102150000197CDF8008003AA3146204601F0D6FC55
:10216000002874DB0644C5EBC005039A1544A9EBAF
:1021700005090137C7E751462046FFF79DFE6FF07E
:10218000060061E051462046FFF796FE6FF0020020
:102190005AE051462046FFF78FFE6FF0050053E0EE
:1021A000D4F8CC173B68994224DCD4F8DC37D4F857
:1021B000D827934225DB04F11C06991A3144304696
:1021C00015F075F9D4F8D807D4F8CC27296830442D
:1021D00015F062F9D4F8D827D4F8CC170A44C4F81B
:1021E000DC272B680B442B60D4F8CC273B689B1A68
:1021F0003B607BE751462046FFF75EFE4FF0FF3025
:1022000022E004F11C000A462968184415F044F93C
:10221000D4F8CC27D4F8DC371344C4F8DC372B6867
:1022200013442B60D4F8CC273B689B1A3B60514683
:102230002046FFF741FE6FF0010005E051462046C1
:10224000FFF73AFE6FF0070004B0BDE8F087514693
:102250002046FFF731FE6FF00800F5E741462046C3
:1022600000F0D2FE00280DDB0025D4F8BC17A942EF
:1022700016DD2A464146204602F09EFC002808DB77
:102280000135F2E751462046FFF716FE6FF00900D0
:10229000DAE751462046FFF70FFE6FF00A00D3E75A
:1022A000D4F8C83708FB03F303FB01F10AEB410143
:1022B000204603F0CDFE002802DB08F101081CE7F0
:1022C00051462046FFF7F8FD6FF00B00BCE70020F9
:1022D000BAE76FF0040070476FF00500B4E70260E2
:1022E000002343608360C1607047034601F01F0113
:1022F0004268C1F11F0022FA00F040088A405A608B
:102300009A68511A9960002900DB7047F0B44F4277
:10231000DE68032E03DC00225A60324628E01C6887
:1023200004F1010CC3F800C0227812065A60A51C03
:102330001D60647842EA04425A600CF102041C6099
:102340009CF801C042EA0C225A60AC1C1C606C78FC
:1023500022435A6020229A60043EDE6015E01A682B
:10236000551C1D6012785D682A4312025A6022468D
:10237000541E002AF3D1C6F10302D4005A68A240C9
:102380005A60F6009E600022DA605A6801F120046B
:1023900022FA04F420439C682144996002FA07F76A
:1023A0005F60F0BC70470368591A8068C0EBC100D9
:1023B000801A704730B103683BB15869003018BFCC
:1023C000012070474FF0FF3070474FF0FF307047EB
:1023D000002800F0DA80F0B404460368002B00F017
:1023E000D7800A78FF2A40F0D6804A7802F0E000D1
:1023F000E02840F0D380D20812F0030F00F0BB8039
:1024000082F0010202F0010018704D78C5F3410519
:10241000C5F104055D604A7882F0010202F0010214
:102420009A608F783F09DF608A78C2F381021A616F
:102430008E78C6F340065E618E7806F001069E61D6
:10244000CE78B6091E7791F803C0CCF3011CC3F80F
:1024500020C091F803C0CCF3C00CC3F824C091F89D
:1024600003C0CCF3800CC3F828C091F803C00CF073
:10247000030CC3F82CC0032A00F09380042D00F055
:1024800093800F2F00F09380DE2505FB00F04A2596
:1024900005FB0202474802445A63012E01D0002284
:1024A0001A62032E69D00222C4F8BC271A78186970
:1024B00002EB42020244404850F82220C4F8C027F0
:1024C0001A78002A5BD10225C4F8C4571A785868D4
:1024D000013802EB42020244384830F9122092FBE4
:1024E000F5F2C4F8C8275A68C4F8D0271A7884F8D7
:1024F000D427DD68002D34D018785A68013AC2EB31
:10250000021200EB4000C0EB001002442A442C48A9
:1025100030F912004FF47A7202FB00F2C4F8B827C7
:1025200018781A69DD68C2EB021246003044C0EB2D
:10253000001002442A44234830F91220187F03284F
:1025400018BF0136204830F91600121A043A98686C
:1025500000B10220121A5869002818BF0132C4F8CD
:10256000CC279A686AB108794A7942EA00221A634C
:102570000620F0BC7047022046E7012294E70125BF
:10258000A2E700221A630420F3E74FF0FF30704700
:102590004FF0FF30EDE74FF0FF30EAE74FF0FF304C
:1025A000E7E74FF0FF30E4E74FF0FF30E1E74FF0AF
:1025B000FF30DEE7308A0108F88901081C8A01082B
:1025C000E8880108D88C0108CC8C01082DE9F04777
:1025D00084B0002800F04E818046D0F80090B9F118
:1025E000000F00F04A814768002F00F049810A4639
:1025F00099F800308BBB99F81C30032B15D04FF0A5
:10260000200A51466846FFF76AFE09216846FFF72F
:102610006CFE386099F81C30032B09D00321684602
:10262000FFF763FE7860002511E04FF0110AE8E73C
:102630000521F4E701216846FFF757FE04EB850307
:10264000023347F823000134032CF3DD0135D8F8B9
:10265000BC37AB4219DD0024F6E799F81C30032B98
:1026600015D04FF0110A51466846FFF738FE082191
:102670006846FFF73AFE386099F81C30032B09D002
:1026800002216846FFF731FE78600025E5E04FF053
:10269000090AE8E70121F4E7092153E0022B00F0E1
:1026A0009A8004EBC402D30005EBC5010A01134470
:1026B0003B440722DA65E2002244D300EA002A44C0
:1026C00011010B443B44DA6DC2F114021A6699F809
:1026D0000030002B00F0BB800020E3002344DE002C
:1026E000EB002B441A0116443E44706601216846F3
:1026F000FFF7FBFDB06601216846FFF7F6FDF066C7
:102700000134D8F8BC37A34240F3A6800C216846B8
:10271000FFF7EBFDE3002344DE00EB002B441A013E
:1027200016443E44B06209216846FFF7DEFDF062C0
:1027300008216846FFF7D9FD306399F80030002B77
:10274000AAD104216846FFF7D0FDE3002344DE0050
:10275000EB002B441A0116443E4470630121684685
:10276000FFF7C3FDB06300284CD002216846FFF795
:10277000BCFDE3002344DE00EB002B441A011644A9
:102780003E44F06301216846FFF7AFFD3064052148
:102790006846FFF7AAFD706405216846FFF7A5FDAE
:1027A000B0640023F36403216846FFF79EFD3065A3
:1027B00003216846FFF799FD706503216846FFF71E
:1027C00094FDB065F36B002B7FF468AF0022F262DA
:1027D000B26272636FE704EBC402D30005EBC5017C
:1027E0000A0113443B441B6C002B7FF45AAF04EBEB
:1027F000C402D30005EBC5010A0113443B4408227F
:10280000DA6558E7E3002344DE00EB002B441A01AD
:1028100016443E440023F363336405216846FFF702
:1028200064FD706405216846FFF75FFDB064052113
:102830006846FFF75AFDF06404216846FFF755FD2E
:10284000F06503216846FFF750FD30663FE7012140
:102850006846FFF74AFD40E70135D8F8C437AB4278
:1028600001DD00244DE73B68C8F8D837504604B076
:10287000BDE8F0874FF0FF3AF8E74FF0FF3AF5E791
:102880004FF0FF3AF2E7002302E00022C254013386
:102890008B42FADB704700002DE9F0471C4C1D48C5
:1028A0002060DFF880A0C4F804A0DFF87C90C4F8B2
:1028B0000890DFF87880C4F80C80174F2761174E16
:1028C0006661174DA5613821FFF7DDFF4FF4A47154
:1028D0005046FFF7D8FF4FF48E714846FFF7D3FFFD
:1028E00041F210214046FFF7CEFF4FF452713846B7
:1028F000FFF7C9FF4FF4D9513046FFF7C4FF42F24A
:1029000004212846FFF7BFFF2046BDE8F08700BF3F
:10291000D83100207004002028010020B8160020C3
:10292000C8390020E85C0020CC5B0020A80400200F
:10293000704700002DE9F04F85B00191029203939A
:102940000E9B052B00F32A81C3F1060C002306E041
:1029500050F8232042FA0CF240F8232001331F2BB9
:10296000F6DD0368C26FC46B076C99189B1A1A4690
:102970008C4B83FB02525500E619E41B23468A4A1E
:1029800082FB03435A018B190360891B874C0B465A
:1029900084FB03135B00C363AB180364AA1A1346DA
:1029A00084FB03235B00C3674368826F846B476CBF
:1029B00099189B1A1A467E4B83FB02525500E61962
:1029C000E41B23467B4A82FB0343DA008B194360F6
:1029D000891B794C0B4684FB03135B008363AB18A4
:1029E0004364AA1A134684FB03235B00836783684E
:1029F000426F446B876C99189B1A1A466F4B83FB86
:102A000002525500E619E41B23466D4A82FB03433C
:102A1000DA008B198360891B6A4C0B4684FB031315
:102A20005B004363AB188364AA1A134684FB032339
:102A30005B004367C368026F046BC76C99189B1AED
:102A40001A46614B83FB02525500E619E41B2346EC
:102A50005E4A82FB03439A008B19C360891B5C4C5E
:102A60000B4684FB03135B000363AB18C364AA1A11
:102A7000134684FB03235B0003670369C26EC46AC9
:102A8000076D99189B1A1A46524B83FB0252550048
:102A9000E619E41B2346504A82FB03439A008B1934
:102AA0000361891B4D4C0B4684FB03135B00C3621F
:102AB000AB180365AA1A134684FB03235B00C366A5
:102AC0004369826E846A476D99189B1A1A46444B73
:102AD00083FB02525500E619E41B2346414A82FB60
:102AE00003435A008B194361891B3F4C0B4684FBFF
:102AF00003139B008362AB184365AA1A134684FB39
:102B000003239B0083668369426E446A876D99182C
:102B10009B1A1A46354B83FB02525500E619E41BFB
:102B20002346334A82FB03435A008B198361891B76
:102B3000304C0B4684FB03139B004362AB18836548
:102B4000AA1A134684FB03239B004366C369026EE3
:102B5000046AC76D99189B1A1A46274B83FB0252C9
:102B60005500E619E41B2346244A82FB03435A001E
:102B70008B19C361891B224C0B4684FB03131B0179
:102B80000362AB18C365AA1A134684FB03231B0117
:102B90000366DFF870904FF0040AB9E04FF0000CC4
:102BA000DFE600BF51C21340FB22855172464F4001
:102BB000BD45B340CF200B6D103CE1426D2DFA4175
:102BC0009057D941449F91482134F943968DFC5E3A
:102BD000630ECB52C41BCC46971AD84A2E40E264EF
:102BE000F09C9D4AB31D7D7CA924E2431137AE4F72
:102BF00026CF6F6BC1923C6EA71E6056EBF64C5F02
:102C0000044E9E51488E01080468C169C568066972
:102C10006318D9F80020641A214682FB014149005B
:102C200005EB060ED9F80440AD1B2A4684FB025280
:102C3000D60003EB0E05D9F80870A3EB0E031A4675
:102C400087FB023252008C19891B0B4687FB03134A
:102C50005B004168D0F818B0D0F808E0D0F81480D4
:102C600001EB0B07A1EB0B0B5946D9F80C6086FB67
:102C700001B149000EEB080BAEEB080EF046D9F897
:102C8000106086FB08E84FEA480607EB0B08D9F806
:102C900014E0A7EB0B0B5F468EFB07B7BF0001EB01
:102CA000060B09F11809891B0E468EFB0616B600A5
:102CB00005EB080EA5EB0808D249454681FB0585C2
:102CC0006D0002EB0708D21B174681FB07277F0028
:102CD000C0F800E0456008EB07028260C76004EBC3
:102CE0000B05A4EB0B04224681FB024254009F1902
:102CF0009B1B1A4681FB02325200BB181D44056122
:102D0000A11841611C448461C26120300AF1FF3A7C
:102D1000BAF1000F3FF778AF029A039BD11A01F086
:102D2000070101F580629200002B00F03881002439
:102D30002244019D05EB020850F8803CC8F8203081
:102D4000AB50029B9D00039B002B00F02B814FF4A6
:102D500088531D44019F7B1950F87C6C1E627E5184
:102D600050F81C6C50F80C5C354450F83C6C2E4408
:102D7000C3F82061C3F8006150F85C6C50F84C7CDB
:102D80003E44C3F82062C3F8006250F82C7C3D44F6
:102D9000C3F82053C3F8005350F80C6C50F8145C7F
:102DA000354450F86C6CC3F82064C3F8006450F8E4
:102DB0002C6C2E44C3F82065C3F8006550F84C6CA9
:102DC00050F8547C3E44C3F82066C3F8006650F8BF
:102DD000347C3D44C3F82057C3F8005750F8146CB6
:102DE00050F8045C354450F8746CC3F82068C3F89C
:102DF000006850F8346C2E44C3F82069C3F80069A9
:102E000050F8546C50F8447C3E44C3F8206AC3F830
:102E1000006A50F8247C3D44C3F8205BC3F8005B93
:102E200050F8046C50F8645CC3F8205CC3F8005C94
:102E300050F8245C3544C3F8205DC3F8005D50F8B9
:102E4000445CC3F8205EC3F8005EC3F8206FC3F88B
:102E5000006F103104EB8104019E311950F87C5C45
:102E60000D623746355150F8084C50F81C5C04EBA5
:102E7000050E50F83C6C7644C1F82061C1F8006141
:102E800050F8485C50F85C6C3544C1F82052C1F8E9
:102E9000005250F8284C7444C1F82043C1F8004354
:102EA00050F8684CC1F82044C1F8004450F8184C60
:102EB00050F8085C04EB050E50F8286C7644C1F815
:102EC0002065C1F8006550F8585C50F8486C3544EE
:102ED000C1F82056C1F8005650F8384C7444C1F877
:102EE0002047C1F8004750F8784CC1F82048C1F895
:102EF000004850F8104C50F8185C04EB050E50F8E0
:102F0000386C7644C1F82069C1F8006950F8505C0B
:102F100050F8586C3544C1F8205AC1F8005A50F89E
:102F2000304C7444C1F8204BC1F8004B50F8704C41
:102F3000C1F8204CC1F8004C50F8204C50F8105CFF
:102F40002C4450F8306C2644C1F8206DC1F8006D57
:102F500050F8605C50F8506C3544C1F8205EC1F800
:102F6000005E50F8400C0444C1F8204FC1F8004FF7
:102F7000BCF1000F42D0BC58E517CCF11F0044FA59
:102F800000F6AE4203D001248440013C6C4004FAB8
:102F90000CF4C8F82040019DAC5010240BE04FF415
:102FA0008854C5E60023D4E602FA0CF21A621A60CD
:102FB00003F5807301341F2C0ADC1A68D51742FA16
:102FC00000F6AE42F0D001228240013A6A40EBE7BF
:102FD0000F2206E003FA0CF30B620B6001F580711F
:102FE000013A002A0ADB0B68DC1743FA00F5A54218
:102FF000F0D001238340013B6340EBE705B0BDE81F
:10300000F08F00BF9A79825A002800F02D812DE9B7
:10301000F04F8BB00746D0F80080B8F1000F00F0F9
:103020002681D0F804A0BAF1000F00F02381D0F877
:1030300008B0BBF1000F00F02081C568002D00F042
:103040001F81D0F81090B9F1000F00F01C810E46DE
:1030500009F5467307930024099408942DE0E100D4
:103060000B19180204EB4402D30004F59062069297
:10307000079A13440293C4EB441C4FEA4C03C6EB7B
:10308000461E4FEA8E0C63445B4401932144CB00FF
:1030900006EBC60C4FEA0C110B4428335344009343
:1030A0004346069A05EB82024946284400F0B0F9EF
:1030B00004F2824345F823000134D7F8BC37A34219
:1030C000CDDCD8F820304BB141F20823EB58002B6F
:1030D0002FDD41F20C23EB58002B2CDDD8F82030EB
:1030E0005A0865D013F0010F55D0D9F83033002BB2
:1030F00045D1D8F83420D9F84433013332F91310CC
:1031000052E0013305F5905212689A4215DD55F8E8
:103110002320B2F1404F02DC5C4A45F8232055F8E9
:103120002320B2F1804FECDB6FF0404245F82320C2
:10313000E7E70023E6E70023E4E7002300E00133AC
:1031400041F20422AA589A42C8DD03F5107255F8DC
:103150002220B2F1404F04DC03F510724B4945F8D0
:10316000221003F5107255F82220B2F1804FE6DBF1
:1031700003F510726FF0404145F82210DFE7D8F8F0
:103180003430D9F84023153203EB4203B3F906106B
:1031900001EB410108E041F20423E95805F59053A1
:1031A0001B689942B8BF194608AA284602F099FC44
:1031B000D8F8202012F0010F1CD005F590531968A3
:1031C00098F80030002B35D1C6EB461083003E3313
:1031D00008A8039006EBC60630018244DAF888009E
:1031E000029052100192079A00925B444246284690
:1031F00002F0A0FCD8F82000C8B1089BB3FA83F312
:10320000013B41F20822AB50099BB3FA83F3013B27
:1032100041F20C22AB5041F20422AB5805F590511B
:1032200008688342B8BF03460B60AB5000200BB068
:10323000BDE8F08FC6EB461083003E3308A804902B
:1032400006EBC60630018244DAF88800039052107B
:1032500002920BF1F8020192079A00925B444246F7
:10326000284602F0C9FDC5E74FF0FF3070474FF028
:10327000FF30DCE74FF0FF30D9E74FF0FF30D6E703
:103280004FF0FF30D3E74FF0FF30D0E7010000C030
:103290002DE9F04F87B0054603F00300544E06EBCE
:1032A0008016544C54F8200001904FEAA309CC46F4
:1032B000B9F11F0FA8BF4FF01F0C0CF1030787F3E4
:1032C00005070020029074683C410394B4683C41B7
:1032D0000494F3683B41059311E00F2F1FDC56F86F
:1032E0002750B9F1000F16DB45FA0CF52843002BE7
:1032F00079DB0B1D0D602546013A76D019462C1D51
:103300002B6823F00047032FE7DC06AD05EB8707AA
:1033100057F8105CEAE7CCF10007BD40E6E73F2F25
:103320000CDC103F344D55F82770019D87FB05E5F7
:10333000ACF10307002F4ADB3D41D7E77D04B5F12F
:10334000006F3EDA7D054FF00408B5F1005F02DA48
:10335000AD0008F10208B5F1804F02DA6D0008F106
:103360000108264FBD422FDCDFF89CE0AA46DEF8BC
:103370000070BB468BFB0A7ADEF804705744AA46FD
:1033800087FB0ABADEF808705744AA4687FB0ABAD8
:10339000DEF80C705744AB4687FB0B5BDEF8105031
:1033A000AB44174D55F828703D468BFB0575EF0073
:1033B000019D87FB05E5134F57F82870ACEB070715
:1033C000B8E74FF00008C0E7DFF840E0CEE77F4203
:1033D0006FF0004E4EFA07FEAE4501DBBD4085E7BB
:1033E0006FF0004582E76D4283E707B0BDE8F08FDC
:1033F000E08F0108D08E0108208F01089979825A48
:10340000008F0108E08E0108BC8E0108A88E01081B
:103410002DE9F04F8DB004900C4605929A46DDF8E8
:1034200058B0DBF81430022B1BD00D261623039363
:1034300000230993DBF8403001335B000193DBF894
:103440000830DAF82020520800D0023B0233029301
:103450004FF000084546069607944446DDF8149060
:1034600017E0DBF81830039333B19AF800302BB92A
:10347000032608230393DBE7039ED9E703260623ED
:103480000393D5E748EA0308D9F800303C46AB423D
:1034900025DD039B9C4222DADAF83430671C33F9CD
:1034A000176033F91430F61A029BC3F1D201179B4F
:1034B0001A5DDBF83C300BB1584B1B5D1344049A8A
:1034C00002EB8500019A02FB031332460146FFF727
:1034D000DFFE354403460028D4D00994D2E7069E87
:1034E000079C0023189A1360099A18994A61CB60C7
:1034F0008B604B600B610B2E07DC09960A960B96CE
:10350000CDF818A0DDF810A051E0B8FA88F808F15D
:10351000FF307EE048EA030809F10109B9F1020F22
:1035200025DC029BC3F1D20309F10A025BF82220D9
:1035300003EBC20306EB460217990A444A44D27DC4
:1035400007FB09F16818019C04FB02333A46039C0F
:1035500004EB81010AEB8000FFF79AFE0346002886
:10356000D8D00CAA02EB890242F80C6CD2E7039C7B
:103570000AEB850607EB47031D44002310E003EB2D
:1035800043018A00B11854F82300B050DA1954F8F6
:1035900022204A6003EB470254F822208A6001335C
:1035A000BB42ECDB059B1B68049EAB4216DD0C2E78
:1035B00014DC069B5B6B721C049206F1150203EB94
:1035C0004202B2F9067006F1140203EB4203B3F9AA
:1035D0000630FF1A4FF0000903949FE7059B1D601A
:1035E000DBF81830C3B10223189A1360099A189BAC
:1035F0005A600A9999600B9B1898C3608A42B8BFB9
:103600000A469342B8BF13460361B8FA88F808F136
:10361000FF300DB0BDE8F08F0123E5E7E090010831
:103620002DE9F04F85B003930E9D002940F3A4814E
:103630008646002BC0F2A881D04B53F82240D048D8
:1036400000EB44030193CF4B53F832A003EBC203CA
:1036500093F804B00F9B5B4213F007032FD02E7832
:10366000C3F1200206FA02F20135039EA6EB030C19
:10367000BBF1000F32D0BBF1010F31D0ABF1020032
:10368000C0B2012800F2A680019E0020029000290D
:1036900040F36B81BCF10F0F40F39F80284610F878
:1036A000024BC3F11807BC4022436C78C3F11005EC
:1036B000AC4022431033ACF1100C05461CE1002253
:1036C000D3E700224EF82320581C4EF82020023366
:1036D0008B42F6DB002005B0BDE8F08F0023F7E752
:1036E00030F8144004F00F040026019F00296BDD20
:1036F000BCF10F0F11DDA84618F8020BC3F1180931
:1037000000FA09F002436878C3F11005A8400243AB
:103710001033ACF1100C45462DE00CEB03000028F3
:1037200040F33581BCF1000F06DD2E78C3F1180897
:1037300006FA08F632430135BCF1080F06DD2E7893
:10374000C3F1100306FA03F31A430135461E4FF086
:10375000004333411A4000F10B030B264FF0000CDD
:1037600009E0B342C0F21681704640F8089BCEF8DB
:103770000480023986460029C8BF0A2BB6DDC4F191
:10378000200022FA00F040000230385A4FEA103888
:10379000A3EB080302FA08F2C0F30318C146B8F11C
:1037A000000F05D002F0004948EA09095200013B28
:1037B000C0F3032080460028D3D002F0004840EA3E
:1037C00008085200013BCCE79B1B9C44039BA3EBE6
:1037D0000C0080E74FF0FF307DE70CEB0300002882
:1037E00040F3DB80BCF1000F05DD2C78C3F1180736
:1037F000BC4022430135BCF1080F06DD2C78C3F133
:10380000100304FA03F31A430135441E4FF000433A
:1038100023411A4000F10B030B2002904FF0000CE3
:103820006AE01B1BA24006EB400665E00AF10108B6
:10383000002818BF08F101080CEB030444450CDA1A
:103840004FF0FF3047E72C78C3F1180904FA09F468
:1038500022430833ACF1080C01354345F3DBBCF1DE
:10386000000F09DBCAF1200422FA04F42644A3EB7A
:103870000A0302FA0AF263E0634403F1FF3C4FF0EB
:10388000004444FA0CF422404FF0000CEAE70AF13D
:1038900001080CEB030444450BDA4FF0FF301AE744
:1038A0002C78C3F11807BC4022430833ACF1080C54
:1038B00001354345F4DBBCF1000F09DBCAF12004FC
:1038C00022FA04F42044A3EB0A0302FA0AF244E0C9
:1038D00063445F1E4FF000443C4122404FF0000C17
:1038E000ECE7029CA3425BDB744644F8086BCEF81D
:1038F00004000239019EA6460029C8BF0A2B7FF7A3
:10390000C6AE348804F00F04C4F1200022FA00F09F
:10391000013036F81000070B83D0DB1BBA40C0F330
:103920000316C0F30320BBF1030F14BF00270127C8
:103930000F2E14BF002407F00104002C7FF476AF93
:1039400026B102F0004426435200013B0F2814BF69
:10395000002707F00107002F99D10028C1D002F0FD
:10396000004420435200013BBBE7029A9B1A9C444F
:10397000039BA3EB0C00AEE60020ACE6F891010837
:1039800078920108F89001084FF0FF30A3E64FF05D
:10399000FF30A0E64FF0FF309DE64FF0FF309AE693
:1039A0004FF0FF3097E600BF2DE9F04F83B0019153
:1039B000002B40F39F80524951F82280514951F821
:1039C00022900D99494211F0070109D00C9A147800
:1039D000C1F1200204FA02F20C9C01340C9400E0C4
:1039E0000022A3EB010A4FF0000E7746019BA3F1E2
:1039F000030CBC457FDDBAF10F0F11DD0C9C14F8F0
:103A0000023BC1F11805AB401A430C9B5B78C1F136
:103A10001005AB401A431031AAF1100A0C9431E0A2
:103A20000AEB0103002B66DDBAF1000F08DD0C9CE8
:103A30002478C1F11805AC4022430C9C01340C944D
:103A4000BAF1080F09DD0C9C2478C1F1100104FAC9
:103A500001F10A430C9901310C915C1E4FF00041B9
:103A600021410A4003F10A014FF00A0E4FF0000A0B
:103A700008E071453FDB066045608460C0F80CB02B
:103A800004371030BC45B1DD0929AFDDC9F1200391
:103A900022FA03F343441C4C1B5D1C09091BA24082
:103AA000C3F3C004264624B102F000462643520068
:103AB0000139C3F38004254624B102F000452543B3
:103AC00052000139C3F3400B5C46BBF1000F05D037
:103AD00002F000444BEA04045200013903F00103F0
:103AE0009B46002BC5D002F0004B43EA0B0B520063
:103AF0000139BEE70027384603B0BDE8F08F00BFAC
:103B0000A4B301089CB30108ACB301082DE9F04F40
:103B10008BB00491149D159C002800F025819146DE
:103B20001E460268002A00F02281D0F80480B8F115
:103B3000000F00F01F818168002900F01E81C76816
:103B4000002F00F01D81002EC0F21D8104EBC40186
:103B5000CB0005EBC50001010B4443449B6B53B103
:103B600004EBC401CB0005EBC50001010B44434449
:103B7000DB6B022B78D0506BE3002344D900EB00C1
:103B80002B441A0111444144CB6D013330F9132009
:103B9000096E0B44013330F9131004EBC400C30069
:103BA00005EBC50C4FEA0C1003444344DB6A5B0091
:103BB000B3F5107FA8BF4FF410739B460993994249
:103BC000A8BF194608919A42A8BF1A460792002337
:103BD000069304F5906247F822B0DDF810A0039731
:103BE000CDF814B0022B00F382804FEAC40E0EEB26
:103BF00004021002039A10440AAA02EB830252F84C
:103C000010CC5F1C0AAA02EB870252F8101CA644D3
:103C10004FEA4E0205EBC50B4FEA8B0E724413447C
:103C2000103308EB83035A68D9F800300193CDF8BC
:103C300000A03346A1EB0C0100EB8C00FFF7F0FC79
:103C40008642ACBF0023012353EAD07340F09E802C
:103C5000D9F8003003440AEBE30A03F00703C9F87C
:103C60000030361A3B46BDE704EBC401CB0005EB40
:103C7000C50001010B4443441B6CCBB9526B04EBF0
:103C8000C401CB0005EBC50001010B444344D96DD1
:103C90000131404B83FB0103A3EBE173143302EBCF
:103CA0004303B3F9062002EB42024FF4107174E7AC
:103CB00013787BB9516B04EBC402D30005EBC5004C
:103CC000020113444344DB6D013331F913204FF4F7
:103CD000107162E7526BB2F93630B2F934105B1AE8
:103CE000B2F90C2002EB43024FF4107155E7039F29
:103CF000DDF814B0E3001A19100238442344DA0046
:103D000005EBC5052B011A449044D8F86C20D9F86E
:103D100000300193CDF800A03346CBF5107100EBD5
:103D20008B00FFF741FE04F5906257F822301844EB
:103D300047F8220007E004EBC40293010344002289
:103D400047F823200130B0F5107FF4DBD9F80030BC
:103D50001E440AEBE60006F00706C9F80060049B63
:103D6000C01A0BB0BDE8F08F4FF0FF30F9E74FF00D
:103D7000FF30F6E74FF0FF30F3E74FF0FF30F0E7AA
:103D80004FF0FF30EDE74FF0FF30EAE74FF0FF3044
:103D9000E7E700BF56555555002940F3CF80F0B5F1
:103DA000483050F8047C664B1E68D0F800C05D684F
:103DB0003A4686FB0242644685FB04E4121B52002D
:103DC00040F8042C644686FB04243A4685FB0262D4
:103DD00022445200026050F8087C9E68D0F804C06B
:103DE000DD683A4686FB0242644685FB04E4121B0A
:103DF000520040F8082C644686FB04243A4685FBB2
:103E0000026222445200426050F80C7C1E69D0F8D5
:103E100008C05D693A4686FB0242644685FB04E4BD
:103E2000121B520040F80C2C644686FB04243A46D0
:103E300085FB026222445200826050F8107C9E6929
:103E4000D0F80CC0DD693A4686FB0242644685FB29
:103E500004E4121B520040F8102C644686FB042434
:103E60003A4685FB026222445200C26050F8147C3C
:103E70001E6AD0F810C05D6A3A4686FB024264466C
:103E800085FB04E4121B520040F8142C644686FBA8
:103E900004243A4685FB026222445200026150F833
:103EA000187C9E6AD0F814C0DD6A3A4686FB02424E
:103EB000644685FB04E4121B520040F8182C64464B
:103EC00086FB04243A4685FB02622244520042618A
:103ED00050F81C7C1E6BD0F818C05D6B3A4686FB10
:103EE0000242644685FB04E4121B520040F81C2C7D
:103EF000644686FB04243A4685FB02622244520053
:103F0000826150F8206C9D6BC769DC6B334685FB82
:103F100003233A4684FB02C29B1A5B0040F8203C14
:103F20003A4685FB0232334684FB035313445B005D
:103F3000C361013900293FF733AFF0BD704700BFBF
:103F400018B601082DE9F043022A0BD002EBC20299
:103F500013014F4A134403F148068C3301F1440521
:103F6000092491E002EBC2021501494AAB189F698E
:103F70008668344687FB0464AE5885692A4686FB0A
:103F8000025222440A60DD694268144685FB04241B
:103F90005E68C5692A4686FB025222444A601D6A51
:103FA0000268144685FB04249E68056A2A4686FB3F
:103FB000025222448A605D6A0268144685FB04242A
:103FC000DE68056A2A4686FB02522244CA609D6A60
:103FD0004268144685FB04241E69C5692A4686FB8F
:103FE000025222440A61DD6A8268144685FB042479
:103FF0005E6985692A4686FB025222444A619D69B0
:104000004469224685FB02428A61DD6904692246D1
:1040100085FB0242CA611D6AC468224685FB0242D2
:104020000A625D6AC468224685FB02424A629D6A52
:104030000469224685FB02428A62DC6A42691346B1
:1040400084FB0323CB6200234B640B64CB638B6341
:104050004B630B631AE0071D026806F1040E366815
:10406000A3F10408186801F1040C134686FB0393BE
:104070000B60291F134680FB03232B60013C434642
:1040800076460D4661463846002CE4DCBDE8F083F8
:1040900058B60108F0B49C469BBB12F001022DD02B
:1040A000D0F88030D0F88071D0F88062D0F880539A
:1040B000D0F88044D0F88015D0F880265B42C0F854
:1040C00080307F42C0F880717642C0F880626D42D5
:1040D000C0F880536442C0F880444942C0F880155B
:1040E0005242C0F88026D0F880375B42C0F8803753
:1040F000D0F880385B42C0F8803862461046F0BC89
:10410000704712F001053CD12A4642E003FA0CF355
:104110000B6002350431112DF0DC0368DE17CCF1A1
:104120001F0443FA04F7B74203D00123A340013B25
:10413000734003FA0CF30360DE1773409E1B1643B3
:10414000D0F880305B42DA1743FA04F7974203D085
:104150000123A340013B534003FA0CF3C0F8803025
:10416000DA1753409A1A324300F580700B68DE1755
:1041700043FA04F7B742C9D00123A340013B73407F
:10418000C4E700221546C6E703FA0CF30B600235BC
:104190000431112DB2DC0368DE17CCF11F0443FAA1
:1041A00004F7B74203D00123A340013B734003FA55
:1041B0000CF30360DE1773409B1B1A43D0F880306A
:1041C000DE1743FA04F7B74203D00123A340013BB3
:1041D000734003FA0CF3C0F88030DE1773409B1B6A
:1041E0001A4300F580700B68DE1743FA04F7B742F4
:1041F000CAD00123A340013B7340C5E72DE9F04F2E
:10420000A9B00C4601920393339B062B00F30E8159
:10421000C3F107010291002315460FE050F8232057
:104220000A4140F823205E1C50F826200A4140F83D
:10423000262022680A41226002330434112BEDDD6E
:104240000195243C0268C3688769416A066BD0F80F
:104250003CE0A6EB0E06891B7F1AA1EB0E09DB1BC7
:10426000D21AA3EB090152104910DA4BBC4683FB6A
:104270000C7C4FEA4C0702EB660C961B07EB0C0814
:10428000ACEB070C4A4683FB0272520001EB6E094D
:10429000A1EB0E0102EB090E7746CF4D85FB07E738
:1042A000BF00DFF83CB38E468BFB0E1E4FEA8E013B
:1042B000A9EB0202DFF82CE392468EFB0A2A4FEAB2
:1042C0008A0A08EB07021692721817920CEB0A0280
:1042D0001892ACEB0A021992761A1A96A8EB070705
:1042E0001B970169C769866AD0F83490026CA9EB04
:1042F0000209A6EB0908A7EB0807A8EB0208A1EB47
:10430000070A4168A1EB0A01AAEB080A49104FEA23
:104310006A0ABC4683FB0C6C4FEA4C0701EB690C44
:10432000A1EB090107EB0C09ACEB070C474683FB3B
:1043300007677F000AEB6208AAEB020207EB080A94
:10434000564685FB06A6B60092468BFB0A2A4FEA24
:104350008A0AA8EB07073A468EFB0272920009EB25
:1043600006071C9701EB0A071D970CEB02071E9727
:10437000ACEB02021F92A1EB0A012091A9EB060609
:10438000219600F1080C82684169006ADCF824601B
:10439000DCF83070DCF83CC0A7EB0C07F61BA0EB98
:1043A0000608A6EB0C06A1EB0801501A891B401069
:1043B0004910424683FB0282520000EB6708C01B93
:1043C00002EB0807A8EB0202B04683FB08684FEA3D
:1043D000480801EB6C06A1EB0C0108EB060C6346E8
:1043E00085FB03C39B008C468BFB0C1C4FEA8C0C9B
:1043F000A6EB080841468EFB01618900FE18229653
:1044000000EB0C06239656182496521A2592A0EB20
:104410000C002690FB1A2793039A04A92046FFF765
:1044200091FD002631460394019DA6E000230293EE
:1044300008E728AB03EB810E5EF8902C9200D017B2
:1044400082EA00031B1A1E43CB01EA50CF1C28ABA3
:1044500003EB870C5CF8902C9200D01782EA0003E3
:104460001B1A1E43FB01EA5001F1060B28AB03EBBC
:104470008B0353F8902C920058485CF848CC634664
:1044800050F8214084FB03C31A444FEAE27C82EADD
:104490000C03A3EB0C031E434FEACB13EA5001F1CC
:1044A000090828AB03EB880A5AF8902C9200C1F156
:1044B000050C03EB8C0C5CF848CC634650F82740A5
:1044C00084FB03C31A444FEAE27C82EA0C03A3EBA9
:1044D0000C0333434FEAC816AA5101F10C0C28AA69
:1044E00002EB8C0252F8902C4FEA820950F82B60B4
:1044F000C1F1020228AC04EB820252F8482C934628
:1045000086FB0B2B5AF8486C324650F8214084FB4E
:1045100002A25A444A444FEAE27982EA0906A6EB2B
:10452000090633434FEACC1C45F80C2001F10F0C6F
:1045300028AA02EB8C0252F8906CB60050F8288042
:104540005EF8482C964688FB0E2E50F82770C1F175
:104550000B0228A800EB820252F8480C024687FBA7
:10456000020272443244D01782EA0006361A1E4311
:104570004FEACC1C45F80C20013102297FF759AFD6
:10458000039C0195062308E028AA02EB830252F857
:10459000482C9210226001330434082BF4DD01957D
:1045A0000C2308E028AA02EB830252F8482C921050
:1045B000226001330434112BF4DD0195029B329A01
:1045C000A4F124012846FFF765FD304329B0BDE87A
:1045D000F08F00BFA1EBD96E1D75A37B78B70108E2
:1045E0009A79825A83FB20212DE9F04FAFB00191D7
:1045F000029205933A9E4430062E00F351810C46F8
:104600001546C6F107064FF0000C634608218446A4
:10461000184600291DDB674657F808293241D31A8E
:10462000181A5CF8042C3241D31A01F109020DF179
:10463000B80C0CEB820242F8480C0CEB810242F8F9
:10464000483C54F82120324144F821200139BC462D
:10465000DFE7039601940295259F7B1004931C9A33
:104660004FEA620B1D991E9B209A219FDDF88CC09A
:104670002498229EABEB06060696A1EB070A0F4490
:10468000A3EB020E03EB020803446144A3EB080210
:104690007E1A0796AAEB0C0CAEEB000008901F9850
:1046A000C24E86FB00E0644686FB04C4099444467F
:1046B000BF4E86FB04C4BF4D85FB03C3924686FBF9
:1046C0000A2A85FB0828DDF81CC0E14605F1705573
:1046D00005F54C2505F2CB2585FB0929B64E86FB51
:1046E0000121BE4685FB0E2E674686FB0727229AD0
:1046F0000BEB6202400002EB000B101A069D089EB5
:1047000005EB660C5B0003EB44034FEA4802C2EB87
:104710004A0203EB0208490001EB49017F00C7EBA5
:104720004E07A7EB010E0BEB030A034400EB020953
:104730005A44A0EB0800ABEB08088A44CDF870A0FF
:10474000099C4FEA440A0CEB0A0BCDF874B0B9444B
:10475000CDF87890A0EB0E001F902846801B20908B
:104760000EEB08002190D21B2292ACEB0A0223929E
:104770005B1A24932699279B299A2A98DDF8ACB0D6
:10478000DDF8B0C02D9F049DA5EB0B040694A1EBB2
:10479000000A01EB000EA3EB020903EB02083B4405
:1047A0006144A3EB0802AEEB0100AAEB0C0AA9EBF3
:1047B00007070797289F7D4E86FB07C7544686FB51
:1047C00004C4C1467A4E86FB09C9CDF82090794DC4
:1047D00085FB03C3924686FB0A2A85FB082881468F
:1047E00005F1705505F54C2505F2CB2585FB09290A
:1047F000714E86FB012185FB0E2E86FB0020049D59
:1048000005EB6B0C7A000CEB020BACEB0207069D80
:10481000079E05EB660C5B00089A03EB42034FEA28
:104820004802C2EB4A0203EB0208490001EB4901CE
:104830004000C0EB4E00A0EB010E0BEB030A3B4423
:1048400007EB02095A44A7EB0807ABEB08088A44B8
:10485000CDF894A04FEA440A0CEB0A0BCDF898B0BF
:104860008144CDF89C90A7EB0E072897AF1B2997A2
:104870000EEB08072A97121A2B92ACEB0A022C9225
:104880005B1A2D93389B059A53EA02017AD10F46A1
:10489000DFF83081494B24AA039E019C029D61E010
:1048A00000273B460821019C029D002915DB02469A
:1048B00052F80869F31ADF1B50F8040CC31A01F10F
:1048C00009002EAE06EB800040F8487C06EB810024
:1048D00040F8483C01391046E7E70194029500236F
:1048E0000393B9E6A3F1040E1868D2F82490A2F15C
:1048F000040C136880FB09299B10204650F804AB78
:10490000CAF1000BA9EB03024B442360ABEB020995
:10491000444654F8083B89FB03B302EB8303D8F801
:10492000042089FB0282CAEB82024FEAC11845F8D3
:104930000830C1F111084FEAC81845F808204FEABD
:10494000E37883EA0803A3EB08031F434FEAE27806
:1049500082EA0803A3EB08031F430131A046734614
:10496000624604460829BDDD039601940295039B27
:10497000399A019924390298FFF78CFB38432FB0FC
:10498000BDE8F08F389A0AA9019C2046FFF7DAFAB1
:10499000059B03EBC3030A4800EB0310074B24AA53
:1049A00000273946039E029D4BE000BFA1EBD96E64
:1049B0008BBE0D627E1A3A16322E0E7E1CB4010892
:1049C00058B6010820B40108A3F10408D3F800C0C8
:1049D000D2F82490A2F1040E13688CFB09299B10D5
:1049E000A3EB090A04F1040C4B4423602EAB03EB48
:1049F000810353F8902C50F821308AFB0343134471
:104A00009B00C1F111092EAA02EB890252F8902CE9
:104A100050F829408AFB04B422449200CC012B5167
:104A20004FEAC91945F80920DC1763401B1B3B43BB
:104A3000D4176240121B43EA020701314346724613
:104A400064460829C0DD0396019402958FE700BFF4
:104A50002DE9F04796B081460F4616469A46DDF896
:104A600078800024254616E0D8F80C20D8F81010DD
:104A7000A94200DD0022D8F8181002910195009299
:104A800006EB850239464846FFF7AEFD044309F1BF
:104A9000480924370135D8F80030AB421ADDDAF87E
:104AA0001430DAF81820002ADED0D8F81420AA42F0
:104AB000DADD0023D8E7D8F818200192009506EB3C
:104AC000850239464846FFF799FB044309F1480936
:104AD00024370135D8F80430AB4207DDD8F80C3064
:104AE000D8F81020AA42E6DD0023E4E7A94639E021
:104AF0004FEA420E16AB03EBC20353F8483C9B004F
:104B000019434FEA022C06EB0C0A4AF825304FEA0B
:104B1000E37A83EA0A03A3EB0A031C430EF1010EB6
:104B200016AB03EB8E0E5EF848ECC31783EA8E03D8
:104B300005F0010E734419430CF1800CB4444CF899
:104B400025304FEAE37C8CEA0303A3EB0C031C4300
:104B5000002347F822300132082AC9DD243701B189
:104B6000A9460135D8F80830AB4217DDD8F80C203B
:104B7000D8F81030AB4200DD002204A93846FFF718
:104B8000E1F9E80700210A46E6E706EBC312002137
:104B900042F825100133112BF7DD01351F2D01DC03
:104BA0000023F8E7B4FA84F3013BC8F81C30484608
:104BB00016B0BDE8F0870000002800F0D180034661
:104BC0000068002800F0CF802DE9F04F8DB0D3F8B9
:104BD0000480B8F1000F00F0C980D3F80C90B9F14F
:104BE000000F00F0C6805E69002E00F0C580436BA8
:104BF0000078002840F0A180082033F91030604888
:104C000080FB0340DB17C3EBA0031BB2039302EB53
:104C1000C200C30001EBC104200103444344DB6B29
:104C2000022B00F08C8002F5906359F82330073393
:104C3000534880FB0340DD17C5EBA0050135202D4F
:104C4000A8BF20250495013D14460F464FEAC20B2C
:104C50000BEB02034FEA032ACA4429465046FFF7EA
:104C60009BF805EBC5056B00083304F5906259F815
:104C700022108B42B8BF0B4649F822301133404A0C
:104C800082FB0312DB17C3EBA203059304F5D86381
:104C900056F82330069304F2C26356F82330079384
:104CA00004F2C46356F823300893A3444FEACB03BD
:104CB00007EBC7010A01134443441B6C03B1039B78
:104CC000099304F2824359F823300A93E5002B1923
:104CD000D90101F590512B191A022819C3004FEA86
:104CE000C70909EB070C4FEA0C100344283304A84A
:104CF00000904344324431445046FFF7A9FE04F586
:104D0000D86346F823002544EB004F443A0113448E
:104D10009844D8F83C2004F2C26346F8232004F2F9
:104D2000C463099A46F8232004F2C6640B9B46F834
:104D3000243000200DB0BDE8F08F06205DE702EBC7
:104D4000C200C30001EBC1042001034443441D6CB5
:104D50001DB1039B04935D1E76E70023049373E764
:104D60004FF0FF3070474FF0FF3070474FF0FF308B
:104D7000E0E74FF0FF30DDE74FF0FF30DAE700BF4C
:104D8000398EE3382DE9F04782B0176854680E6811
:104D9000CD6D4FF000734FF0000CC6FB073C644232
:104DA000C5FB043C9768D4684E688D6DC6FB073C14
:104DB0006442C5FB043C176954698E684D6DC6FB9F
:104DC000073C6442C5FB043C9769D469CE680D6D0D
:104DD000C6FB073C6442C5FB043C176A546A0E6973
:104DE000CD6CC6FB073C6442C5FB043C976AD46AA1
:104DF0004E698D6CC6FB073C6442C5FB043C176BD7
:104E0000546B8E694D6CC6FB073C6442C5FB043C89
:104E1000D46B0194CF690E6C6546946BC7FB043567
:104E2000019C6442C6FB04351B0D43EA05339C110B
:104E3000DD17B5EB635F02D047F6FF746C4004806A
:104E4000D2F8006401F580531D684FF00073002410
:104E5000C5FB0634D2F8045441F204068E59C6FB51
:104E60000534D2F8085441F208068E59C6FB0534C1
:104E7000D2F80C5441F20C068E59C6FB0534D2F818
:104E8000105441F210068E59C6FB0534D2F8145462
:104E900041F214068E59C6FB0534D2F8185441F27B
:104EA00018068E59C6FB0534D2F81C5441F21C0674
:104EB0008E59C6FB05341B0D43EA04339C11DD17E4
:104EC000B5EB635F02D047F6FF746C40048402F1D7
:104ED000400501F5807402300F2602E03A8002306E
:104EE000013E002E40F3B780D5F80080D5F804C00D
:104EF000D4F80090D4F85CE04FF0007100230A462B
:104F00001F46C9FB0827C9FB0C13CCF1000CCEFBD4
:104F10000C27CEFB0813D5F808E0D5F80C80D4F8A0
:104F20000490D4F858C0C9FB0E27C9FB0813C8F178
:104F30000008CCFB08279846CCFB0E18D5F810E0EB
:104F4000D5F81490D4F808A0D4F854C0CAFB0E27A2
:104F50000B46CAFB0938C9F10009CCFB0927CCFB79
:104F60000E38D5F818E0E969D4F80CA0D4F850C090
:104F7000CAFB0E27CAFB0138C1F10009CCFB092787
:104F80004146CCFB0E31D5F820E0D5F82480D4F88A
:104F90001090D4F84CC0C9FB0E27C9FB0831C8F1EA
:104FA0000008CCFB0827CCFB0E31D5F828E0D5F85B
:104FB0002C80D4F81490D4F848C0C9FB0E27C9FB44
:104FC0000831C8F10008CCFB0827CCFB0E31D5F81E
:104FD00030E0D5F83480D4F81890D4F844C0C9FB38
:104FE0000E27C9FB0831C8F10008CCFB0827CCFB11
:104FF0000E31D5F838E0D5F83C804035D4F81C9017
:10500000D4F840C0C9FB0E27C9FB0831C8F100081D
:10501000CCFB0827CCFB0E3104F58074120D42EA5C
:10502000073297114FEAE27CBCEB625F03D047F690
:10503000FF778CEA070707801B0D43EA013300EB7B
:1050400086079A11D917B1EB635F3FF447AF47F674
:10505000FF724A4042E702B0BDE8F0872DE9F04F09
:1050600085B015680E684FF0007300271C46BC46DB
:10507000C6FB054C5668C6F1000ECE6DC6FB0E4C45
:10508000D1F88060C6FB0537D1F8DC50C5FB0E3780
:1050900095684E68C6FB054CD668C6F1000E8E6D4D
:1050A000C6FB0E4CD1F88460C6FB0537D1F8D8504A
:1050B000C5FB0E3715698E68C6FB054C5669C6F1EF
:1050C000000E4E6DC6FB0E4CD1F88860C6FB05374E
:1050D000D1F8D450C5FB0E379569CE68C6FB054C98
:1050E000D669C6F1000E0E6DC6FB0E4CD1F88C6071
:1050F000C6FB0537D1F8D050C5FB0E37156A0E69CF
:10510000C6FB054C566AC6F1000ECE6CC6FB0E4CB3
:10511000D1F89060C6FB0537D1F8CC50C5FB0E37EF
:10512000956A4E69C6FB054CD66AC6F1000E8E6CB8
:10513000C6FB0E4CD1F89460C6FB0537D1F8C850B9
:10514000C5FB0E37156B8E69C6FB054C566BC6F159
:10515000000E4E6CC6FB0E4CD1F89860C6FB0537AE
:10516000D1F8C450C5FB0E37956BD66B0196CE694E
:10517000C6FB054C019EC6F100080E6CC6FB084C30
:10518000D1F89C60C6FB0537D1F8C050C5FB083785
:10519000240D44EA0C34A511E617B6EB645F02D087
:1051A00047F6FF75754005801B0D43EA07339C11D8
:1051B000DD17B5EB635F02D047F6FF746C404480A7
:1051C000D2F8006401F580531F684FF0007500238A
:1051D000AC461C46C7FB06C401F584573F68C7FBB5
:1051E0000653D2F8046441F20407CF59C7FB06C442
:1051F00041F28407CF59C7FB0653D2F8087441F235
:10520000080651F806E06646CEFB076441F2880CBA
:1052100051F80CC0CCFB0753D2F80C7441F20C0CC3
:1052200051F80CC0CCFB076441F28C0C51F80CC057
:10523000CCFB0753D2F8107441F2100C51F80CC09B
:10524000CCFB076441F2900C51F80CC0CCFB075327
:10525000D2F8147441F2140C51F80CC0CCFB076462
:1052600041F2940C51F80CC0CCFB0753D2F81874DF
:1052700041F2180C51F80CC0CCFB076441F2980CB9
:1052800051F80CC0CCFB0753D2F81C7441F21C0C33
:1052900051F80CC0CCFB076441F29C0C51F80CC0D7
:1052A000CCFB0753360D46EA0436B411F717B7EBBB
:1052B000665F02D047F6FF747C40A0F840402C0D9A
:1052C00044EA0334A311E517B5EB645F02D047F657
:1052D000FF736B40A0F8423002F1400B01F5807C77
:1052E000031D01930F23029306E00A80019B043300
:1052F0000193029B013B0293029B002B40F34881E8
:10530000DBF800E0DBF80480DCF80060DCF85C101F
:105310004FF00073002418462746C6FB0E071A46B6
:105320002546C6FB0825C8F10009C1FB0907C1FBDA
:105330000E250392DCF880A019462646CAFB0E16FD
:10534000CAFB0834DCF8DC20C2FB0916C2FB0E34B1
:10535000DBF808E0DBF80C80DCF804A0DCF85890FF
:10536000CAFB0E07039ACAFB0825C8F1000AC9FB4D
:105370000A07C9FB0E250392DCF88490C9FB0E16C0
:10538000C9FB0834DCF8D820C2FB0A16C2FB0E3475
:10539000DBF810E0DBF81480DCF808A0DCF85490AF
:1053A000CAFB0E07039ACAFB0825C8F1000AC9FB0D
:1053B0000A07C9FB0E250392DCF88890C9FB0E167C
:1053C000C9FB0834DCF8D420C2FB0A16C2FB0E3439
:1053D000DBF818E0DBF81C80DCF80CA0DCF850905F
:1053E000CAFB0E07039ACAFB0825C8F1000AC9FBCD
:1053F0000A07C9FB0E250392DCF88C90C9FB0E1638
:10540000C9FB0834DCF8D020C2FB0A16C2FB0E34FC
:10541000DBF820E0DBF82480DCF810A0DCF84C900E
:10542000CAFB0E07039ACAFB0825C8F1000AC9FB8C
:105430000A07C9FB0E250392DCF89090C9FB0E16F3
:10544000C9FB0834DCF8CC20C2FB0A16C2FB0E34C0
:10545000DBF828E0DBF82C80DCF814A0DCF84890BE
:10546000CAFB0E07039ACAFB0825C8F1000AC9FB4C
:105470000A07C9FB0E250392DCF89490C9FB0E16AF
:10548000C9FB0834DCF8C820C2FB0A16C2FB0E3484
:10549000DBF830E0DBF83480DCF818A0DCF844906E
:1054A000CAFB0E07039ACAFB0825C8F1000AC9FB0C
:1054B0000A07C9FB0E250392DCF89890C9FB0E166B
:1054C000C9FB0834DCF8C420C2FB0A16C2FB0E3448
:1054D000DBF838E0DBF83C800BF1400BDCF81CA07B
:1054E000DCF84090CAFB0E07039ACAFB0825C8F1F6
:1054F000000AC9FB0A07C9FB0E250392DCF89C9041
:10550000C9FB0E16C9FB0834DCF8C020C2FB0A1622
:10551000C2FB0E340CF5807C000D40EA0730871189
:105520004FEAE07EBEEB605F03D047F6FF778EEA7E
:105530000707019A1780090D41EA06318811CE1735
:10554000B6EB615F02D047F6FF707040019E70803D
:10555000039A120D42EA05320299C9000E449011D5
:10556000D517B5EB625F02D047F6FF706840308018
:105570001B0D43EA04330231019A11449A11D817E2
:10558000B0EB635F3FF4B1AE47F6FF724240ACE66A
:1055900005B0BDE8F08F00002DE9F047054616463E
:1055A0009A46089CDDF82490CA685B4B13F8127089
:1055B00003EB420393F801804B69022B07D0002CC8
:1055C00051D0DAF80040002C6AD000245CE08C69ED
:1055D00014BB052C22DC39462846FCF786FE04EB7A
:1055E0004409B14489F8170039462846FCF77DFE86
:1055F00089F8180039462846FCF777FE89F8190023
:105600000134E6E739462846FCF76FFE3055013491
:10561000072CF7DD0324DCE70024F9E70B2C13DC6F
:1056200041462846FCF761FE04EB44073744F87511
:1056300041462846FCF759FE387641462846FCF795
:1056400054FE78760134E9E7002386F83D3086F889
:105650003C3086F83B30BDE8F08739462846FCF7F9
:1056600044FE305501340A2CF7DD0B2405E0414699
:105670002846FCF73AFE30550134142CF7DDEAE7F2
:1056800019F8043033550134052CF9DDDAF804300B
:105690006BB918E039462846FCF727FE305501342F
:1056A000052CF7DDF2E719F80430335501340A2CE4
:1056B000F9DDDAF808306BB918E039462846FCF70E
:1056C00014FE305501340A2CF7DDF2E719F80430E6
:1056D000335501340F2CF9DDDAF80C306BB918E0D2
:1056E00041462846FCF701FE305501340F2CF7DD0A
:1056F000F2E719F8043033550134142CF9DD002396
:105700007375B375A7E741462846FCF7EEFD3055A3
:105710000134142CF7DDF2E7B0B401082DE9F047AD
:1057200088B006461746119ADDF84880CB6812F01B
:10573000010C02D0109A012A51D0B3F5C87F1BDAB0
:105740001C11964880FB0420DA17C2EB6002049219
:1057500002EB8202A01A0590C3F38102069203F0C5
:10576000030307934FF000094D4648464C69022C4D
:1057700077D00024002388E0B3F5FA7F15DAA3F58B
:10578000C8739C10854880FB0420DA17C2EB6002C6
:10579000049202EB8202A01A059003F00303069321
:1057A00000250795A9460120E0E7A3F5FA737C4A96
:1057B00082FB0302A2EBE372049202EB4200181A8E
:1057C0000590002307930693D1F81890B9F1000FC4
:1057D00044D006900592994601250220C6E703F0C1
:1057E00001095B10B32B19DC6E4880FB0320DA172C
:1057F000C2EBE002049202EBC2029000181A6A4B5C
:1058000083FB0023A3EBE073059303EB43035A00F0
:10581000821A0692002507950320A7E7F32B0DDCDB
:10582000B43BC3F301120492C3F38102059203F067
:105830000303069300250795042097E7F43B584A95
:1058400082FB0302A2EBE372049202EB4202981A7B
:105850000590002507950695052087E7012502207C
:1058600084E78B69002B85D1012483E700EB40029C
:1058700002EB040A4D4A02EB8A0212F803A008AABE
:1058800002EB830242F820AC0133032BEEDDBCF1C6
:10589000000F02D0109B012B1AD0CD634B69022B55
:1058A00018D04FF00008454668E0980008AA141880
:1058B00054F8102C4044426054F8200C1A1D08EB98
:1058C000820250600133032BEFDDC8F80090E4E75B
:1058D0000023F8E78D69BDB3049D002405E0294647
:1058E0003046FCF702FD38550134052CF7DD4FF04A
:1058F000010A03251DE049463046FCF7F6FC05EB9E
:1059000045043C44E07549463046FCF7EEFC207601
:1059100049463046FCF7E9FC607608F1010801359C
:1059200008AB03EB8A0353F8203C4345E3DC0AF160
:10593000010ABAF1030F09DC08AB03EB8A0353F841
:10594000109C4FF00008EBE7AA46F2E7002387F827
:105950003D3087F83C3087F83B301CE04946304604
:10596000FCF7C3FC78550134013508AB03EB880321
:1059700053F8203CA342F1DC08F10108B8F1030F11
:1059800006DC08AB03EB880353F8109C0024ECE71B
:105990000023BB757B7508B0BDE8F0876766666657
:1059A00056555555398EE338ABAAAA2A68B4010872
:1059B0002DE9F04F89B0129D139C002800F08580DE
:1059C0000746D0F800B0BBF1000F00F08180D0F89E
:1059D0000480B8F1000F7ED0D0F808A0BAF1000F13
:1059E0007CD01068034407334CD4164689460A46D7
:1059F000D91004A8FCF773FC3168002944D19BF846
:105A00000030002B44D1230108336001021B5100F8
:105A1000C5EB451C4FEA8C020A4404EBC40C4FEA68
:105A2000CC0105EBC50E4FEA0E1C61442831001B6A
:105A30004FEA400C0AEB0C0001900095434452449D
:105A4000414404A8FFF7A8FD04EBC402D30005EB12
:105A5000C5010A0113449844D8F8283004EB4504E2
:105A600004F5FC7447F824303268494604A8FCF772
:105A70009AFC33680344D81003F00703336009B07D
:105A8000BDE8F08F0733B0E704A8FCF72EFCB6E7BB
:105A9000C4EB44125300C5EB45118A001A4404EBD1
:105AA000C403D90005EBC5000301194428310AF1EC
:105AB000F8030293DBF82030019300942B46524404
:105AC000414404A8FFF72AFEBEE74FF0FF30D6E7B7
:105AD0004FF0FF30D3E74FF0FF30D0E74FF0FF300B
